{
    "contractName": "Confuse",
    "abi": [
        {
            "inputs": [],
            "stateMutability": "nonpayable",
            "type": "constructor"
        },
        {
            "inputs": [
                {
                    "internalType": "uint256",
                    "name": "",
                    "type": "uint256"
                }
            ],
            "name": "confuse",
            "outputs": [
                {
                    "internalType": "uint256",
                    "name": "",
                    "type": "uint256"
                }
            ],
            "stateMutability": "view",
            "type": "function"
        },
        {
            "inputs": [
                {
                    "internalType": "uint256",
                    "name": "i",
                    "type": "uint256"
                }
            ],
            "name": "get",
            "outputs": [
                {
                    "internalType": "uint256",
                    "name": "",
                    "type": "uint256"
                }
            ],
            "stateMutability": "view",
            "type": "function"
        },
        {
            "inputs": [
                {
                    "internalType": "uint256",
                    "name": "i",
                    "type": "uint256"
                },
                {
                    "internalType": "uint256",
                    "name": "value",
                    "type": "uint256"
                }
            ],
            "name": "update",
            "outputs": [
                {
                    "internalType": "uint256",
                    "name": "",
                    "type": "uint256"
                },
                {
                    "internalType": "uint256",
                    "name": "",
                    "type": "uint256"
                },
                {
                    "internalType": "uint256",
                    "name": "",
                    "type": "uint256"
                },
                {
                    "internalType": "uint256",
                    "name": "",
                    "type": "uint256"
                },
                {
                    "internalType": "uint256",
                    "name": "",
                    "type": "uint256"
                }
            ],
            "stateMutability": "nonpayable",
            "type": "function"
        }
    ],
    "bytecode": "608060405234801561001057600080fd5b5060005b60328110156100455780600082603281106100315761003161004b565b01558061003d81610061565b915050610014565b50610088565b634e487b7160e01b600052603260045260246000fd5b60006001820161008157634e487b7160e01b600052601160045260246000fd5b5060010190565b610429806100976000396000f3fe608060405234801561001057600080fd5b50600436106100415760003560e01c80632fb565e81461004657806336ae39cf146100865780639507d39a146100a7575b600080fd5b610059610054366004610380565b6100ba565b604080519586526020860194909452928401919091526060830152608082015260a0015b60405180910390f35b6100996100943660046103a2565b61034d565b60405190815260200161007d565b6100996100b53660046103a2565b610364565b600080600080600085600088603281106100d6576100d66103bb565b01556040805160208082018a90528251808303820181529183019092528051910120600090610107906032906103d1565b9050600060328260405160200161012091815260200190565b6040516020818303038152906040528051906020012060001c61014391906103d1565b9050600060328260405160200161015c91815260200190565b6040516020818303038152906040528051906020012060001c61017f91906103d1565b9050600060328260405160200161019891815260200190565b6040516020818303038152906040528051906020012060001c6101bb91906103d1565b90506032846040516020016101d291815260200190565b6040516020818303038152906040528051906020012060001c6101f591906103d1565b60008560328110610208576102086103bb565b01556040805160208082018690528251808303820181529183019092528051910120610236906032906103d1565b60008460328110610249576102496103bb565b01556040805160208082018590528251808303820181529183019092528051910120610277906032906103d1565b6000836032811061028a5761028a6103bb565b015560408051602080820184905282518083038201815291830190925280519101206102b8906032906103d1565b600082603281106102cb576102cb6103bb565b015560008b603281106102e0576102e06103bb565b0154600085603281106102f5576102f56103bb565b01546000856032811061030a5761030a6103bb565b01546000856032811061031f5761031f6103bb565b015460008560328110610334576103346103bb565b0154939f929e50909c509a509098509650505050505050565b6000816032811061035d57600080fd5b0154905081565b6000808260328110610378576103786103bb565b015492915050565b6000806040838503121561039357600080fd5b50508035926020909101359150565b6000602082840312156103b457600080fd5b5035919050565b634e487b7160e01b600052603260045260246000fd5b6000826103ee57634e487b7160e01b600052601260045260246000fd5b50069056fea26469706673582212201abf2abf83ef1ad8b0fb8501c8b1ff7f4efadcb4eba761bd1fdb0c74df423ac264736f6c63430008130033",
    "sourcePath": "e:/毕业设计/mywork/contracts/confuse.sol",
    "compiler": {
        "name": "solc",
        "version": "0.8.19+commit.7dd6d404"
    },
    "functionHashes": {
        "confuse(uint256)": "36ae39cf",
        "get(uint256)": "9507d39a",
        "update(uint256,uint256)": "2fb565e8"
    },
    "gasEstimates": {
        "creation": {
            "codeDepositCost": "213000",
            "executionCost": "infinite",
            "totalCost": "infinite"
        },
        "external": {
            "confuse(uint256)": "2418",
            "get(uint256)": "2445",
            "update(uint256,uint256)": "infinite"
        }
    }
}