{
    "contractName": "Working",
    "abi": [
        {
            "inputs": [
                {
                    "internalType": "uint256",
                    "name": "",
                    "type": "uint256"
                }
            ],
            "name": "commiditys",
            "outputs": [
                {
                    "internalType": "bytes",
                    "name": "commidity_name",
                    "type": "bytes"
                },
                {
                    "internalType": "bytes",
                    "name": "commidity_priceandnumber",
                    "type": "bytes"
                },
                {
                    "components": [
                        {
                            "internalType": "string",
                            "name": "userid",
                            "type": "string"
                        },
                        {
                            "internalType": "bytes",
                            "name": "keys",
                            "type": "bytes"
                        }
                    ],
                    "internalType": "struct Working.Controlist",
                    "name": "controlist",
                    "type": "tuple"
                }
            ],
            "stateMutability": "view",
            "type": "function"
        },
        {
            "inputs": [],
            "name": "controlists",
            "outputs": [
                {
                    "internalType": "string",
                    "name": "userid",
                    "type": "string"
                },
                {
                    "internalType": "bytes",
                    "name": "keys",
                    "type": "bytes"
                }
            ],
            "stateMutability": "view",
            "type": "function"
        },
        {
            "inputs": [
                {
                    "internalType": "string",
                    "name": "id",
                    "type": "string"
                }
            ],
            "name": "getdata",
            "outputs": [
                {
                    "internalType": "bytes",
                    "name": "",
                    "type": "bytes"
                },
                {
                    "internalType": "bytes",
                    "name": "",
                    "type": "bytes"
                },
                {
                    "internalType": "string",
                    "name": "",
                    "type": "string"
                },
                {
                    "internalType": "bytes",
                    "name": "",
                    "type": "bytes"
                }
            ],
            "stateMutability": "view",
            "type": "function"
        },
        {
            "inputs": [
                {
                    "internalType": "bytes",
                    "name": "name",
                    "type": "bytes"
                },
                {
                    "internalType": "bytes",
                    "name": "priceandnumber",
                    "type": "bytes"
                },
                {
                    "internalType": "string",
                    "name": "id",
                    "type": "string"
                },
                {
                    "internalType": "bytes",
                    "name": "kys",
                    "type": "bytes"
                }
            ],
            "name": "set",
            "outputs": [],
            "stateMutability": "nonpayable",
            "type": "function"
        }
    ],
    "bytecode": "608060405234801561001057600080fd5b50610ef3806100206000396000f3fe608060405234801561001057600080fd5b506004361061004c5760003560e01c806322a027b614610051578063b17d553714610070578063ecdc647e14610093578063ee2cf4ad146100a8575b600080fd5b6100596100ca565b6040516100679291906109ff565b60405180910390f35b61008361007e366004610ad0565b6101ea565b6040516100679493929190610b0d565b6100a66100a1366004610b65565b610565565b005b6100bb6100b6366004610c12565b610741565b60405161006793929190610c2b565b6001805481906100d990610c92565b80601f016020809104026020016040519081016040528092919081815260200182805461010590610c92565b80156101525780601f1061012757610100808354040283529160200191610152565b820191906000526020600020905b81548152906001019060200180831161013557829003601f168201915b50505050509080600101805461016790610c92565b80601f016020809104026020016040519081016040528092919081815260200182805461019390610c92565b80156101e05780601f106101b5576101008083540402835291602001916101e0565b820191906000526020600020905b8154815290600101906020018083116101c357829003601f168201915b5050505050905082565b60608060608060005b60005481101561055c578560405160200161020e9190610ccc565b604051602081830303815290604052805190602001206000828154811061023757610237610ce6565b906000526020600020906004020160020160000160405160200161025b9190610cfc565b604051602081830303815290604052805190602001200361054a576000818154811061028957610289610ce6565b9060005260206000209060040201600001600082815481106102ad576102ad610ce6565b9060005260206000209060040201600101600083815481106102d1576102d1610ce6565b9060005260206000209060040201600201600001600084815481106102f8576102f8610ce6565b906000526020600020906004020160020160010183805461031890610c92565b80601f016020809104026020016040519081016040528092919081815260200182805461034490610c92565b80156103915780601f1061036657610100808354040283529160200191610391565b820191906000526020600020905b81548152906001019060200180831161037457829003601f168201915b505050505093508280546103a490610c92565b80601f01602080910402602001604051908101604052809291908181526020018280546103d090610c92565b801561041d5780601f106103f25761010080835404028352916020019161041d565b820191906000526020600020905b81548152906001019060200180831161040057829003601f168201915b5050505050925081805461043090610c92565b80601f016020809104026020016040519081016040528092919081815260200182805461045c90610c92565b80156104a95780601f1061047e576101008083540402835291602001916104a9565b820191906000526020600020905b81548152906001019060200180831161048c57829003601f168201915b505050505091508080546104bc90610c92565b80601f01602080910402602001604051908101604052809291908181526020018280546104e890610c92565b80156105355780601f1061050a57610100808354040283529160200191610535565b820191906000526020600020905b81548152906001019060200180831161051857829003601f168201915b5050505050905094509450945094505061055e565b8061055481610d87565b9150506101f3565b505b9193509193565b60016105718382610dfd565b50600261057e8282610dfd565b506000604051806060016040528086815260200185815260200160016040518060400160405290816000820180546105b590610c92565b80601f01602080910402602001604051908101604052809291908181526020018280546105e190610c92565b801561062e5780601f106106035761010080835404028352916020019161062e565b820191906000526020600020905b81548152906001019060200180831161061157829003601f168201915b5050505050815260200160018201805461064790610c92565b80601f016020809104026020016040519081016040528092919081815260200182805461067390610c92565b80156106c05780601f10610695576101008083540402835291602001916106c0565b820191906000526020600020905b8154815290600101906020018083116106a357829003601f168201915b50505091909252505050905281546001810183556000928352602090922081519192600402019081906106f39082610dfd565b50602082015160018201906107089082610dfd565b5060408201518051600283019081906107219082610dfd565b50602082015160018201906107369082610dfd565b505050505050505050565b6000818154811061075157600080fd5b906000526020600020906004020160009150905080600001805461077490610c92565b80601f01602080910402602001604051908101604052809291908181526020018280546107a090610c92565b80156107ed5780601f106107c2576101008083540402835291602001916107ed565b820191906000526020600020905b8154815290600101906020018083116107d057829003601f168201915b50505050509080600101805461080290610c92565b80601f016020809104026020016040519081016040528092919081815260200182805461082e90610c92565b801561087b5780601f106108505761010080835404028352916020019161087b565b820191906000526020600020905b81548152906001019060200180831161085e57829003601f168201915b505050505090806002016040518060400160405290816000820180546108a090610c92565b80601f01602080910402602001604051908101604052809291908181526020018280546108cc90610c92565b80156109195780601f106108ee57610100808354040283529160200191610919565b820191906000526020600020905b8154815290600101906020018083116108fc57829003601f168201915b5050505050815260200160018201805461093290610c92565b80601f016020809104026020016040519081016040528092919081815260200182805461095e90610c92565b80156109ab5780601f10610980576101008083540402835291602001916109ab565b820191906000526020600020905b81548152906001019060200180831161098e57829003601f168201915b505050505081525050905083565b6000815180845260005b818110156109df576020818501810151868301820152016109c3565b506000602082860101526020601f19601f83011685010191505092915050565b604081526000610a1260408301856109b9565b8281036020840152610a2481856109b9565b95945050505050565b634e487b7160e01b600052604160045260246000fd5b600082601f830112610a5457600080fd5b813567ffffffffffffffff80821115610a6f57610a6f610a2d565b604051601f8301601f19908116603f01168101908282118183101715610a9757610a97610a2d565b81604052838152866020858801011115610ab057600080fd5b836020870160208301376000602085830101528094505050505092915050565b600060208284031215610ae257600080fd5b813567ffffffffffffffff811115610af957600080fd5b610b0584828501610a43565b949350505050565b608081526000610b2060808301876109b9565b8281036020840152610b3281876109b9565b90508281036040840152610b4681866109b9565b90508281036060840152610b5a81856109b9565b979650505050505050565b60008060008060808587031215610b7b57600080fd5b843567ffffffffffffffff80821115610b9357600080fd5b610b9f88838901610a43565b95506020870135915080821115610bb557600080fd5b610bc188838901610a43565b94506040870135915080821115610bd757600080fd5b610be388838901610a43565b93506060870135915080821115610bf957600080fd5b50610c0687828801610a43565b91505092959194509250565b600060208284031215610c2457600080fd5b5035919050565b606081526000610c3e60608301866109b9565b8281036020840152610c5081866109b9565b90508281036040840152835160408252610c6d60408301826109b9565b905060208501518282036020840152610c8682826109b9565b98975050505050505050565b600181811c90821680610ca657607f821691505b602082108103610cc657634e487b7160e01b600052602260045260246000fd5b50919050565b602081526000610cdf60208301846109b9565b9392505050565b634e487b7160e01b600052603260045260246000fd5b6000602080835260008454610d1081610c92565b80848701526040600180841660008114610d315760018114610d4b57610d79565b60ff1985168984015283151560051b890183019550610d79565b896000528660002060005b85811015610d715781548b8201860152908301908801610d56565b8a0184019650505b509398975050505050505050565b600060018201610da757634e487b7160e01b600052601160045260246000fd5b5060010190565b601f821115610df857600081815260208120601f850160051c81016020861015610dd55750805b601f850160051c820191505b81811015610df457828155600101610de1565b5050505b505050565b815167ffffffffffffffff811115610e1757610e17610a2d565b610e2b81610e258454610c92565b84610dae565b602080601f831160018114610e605760008415610e485750858301515b600019600386901b1c1916600185901b178555610df4565b600085815260208120601f198616915b82811015610e8f57888601518255948401946001909101908401610e70565b5085821015610ead5787850151600019600388901b60f8161c191681555b5050505050600190811b0190555056fea26469706673582212208cefcd1d6af2e1dffd4d2736c9ab0bc5cbd356a81aad39e510881b0ad8cb6afa64736f6c63430008110033",
    "sourcePath": "e:/毕业设计/mywork/contracts/working.sol",
    "compiler": {
        "name": "solc",
        "version": "0.8.17+commit.8df45f5f"
    },
    "functionHashes": {
        "commiditys(uint256)": "ee2cf4ad",
        "controlists()": "22a027b6",
        "getdata(string)": "b17d5537",
        "set(bytes,bytes,string,bytes)": "ecdc647e"
    },
    "gasEstimates": {
        "creation": {
            "codeDepositCost": "765400",
            "executionCost": "799",
            "totalCost": "766199"
        },
        "external": {
            "commiditys(uint256)": "infinite",
            "controlists()": "infinite",
            "getdata(string)": "infinite",
            "set(bytes,bytes,string,bytes)": "infinite"
        }
    }
}