{
    "contractName": "Working",
    "abi": [
        {
            "inputs": [],
            "name": "cleanup",
            "outputs": [],
            "stateMutability": "nonpayable",
            "type": "function"
        },
        {
            "inputs": [
                {
                    "internalType": "uint256",
                    "name": "",
                    "type": "uint256"
                }
            ],
            "name": "commiditys",
            "outputs": [
                {
                    "internalType": "bytes",
                    "name": "commidity_name",
                    "type": "bytes"
                },
                {
                    "internalType": "bytes",
                    "name": "commidity_priceandnumber",
                    "type": "bytes"
                },
                {
                    "components": [
                        {
                            "internalType": "string",
                            "name": "userid",
                            "type": "string"
                        },
                        {
                            "internalType": "bytes",
                            "name": "keys",
                            "type": "bytes"
                        }
                    ],
                    "internalType": "struct Working.Controlist",
                    "name": "controlist",
                    "type": "tuple"
                }
            ],
            "stateMutability": "view",
            "type": "function"
        },
        {
            "inputs": [],
            "name": "controlists",
            "outputs": [
                {
                    "internalType": "string",
                    "name": "userid",
                    "type": "string"
                },
                {
                    "internalType": "bytes",
                    "name": "keys",
                    "type": "bytes"
                }
            ],
            "stateMutability": "view",
            "type": "function"
        },
        {
            "inputs": [],
            "name": "count",
            "outputs": [
                {
                    "internalType": "uint256",
                    "name": "",
                    "type": "uint256"
                }
            ],
            "stateMutability": "view",
            "type": "function"
        },
        {
            "inputs": [
                {
                    "internalType": "string",
                    "name": "id",
                    "type": "string"
                }
            ],
            "name": "getdata",
            "outputs": [
                {
                    "internalType": "bytes",
                    "name": "",
                    "type": "bytes"
                },
                {
                    "internalType": "bytes",
                    "name": "",
                    "type": "bytes"
                },
                {
                    "internalType": "string",
                    "name": "",
                    "type": "string"
                },
                {
                    "internalType": "bytes",
                    "name": "",
                    "type": "bytes"
                }
            ],
            "stateMutability": "view",
            "type": "function"
        },
        {
            "inputs": [
                {
                    "internalType": "uint256",
                    "name": "i",
                    "type": "uint256"
                }
            ],
            "name": "getrandomdata",
            "outputs": [
                {
                    "internalType": "bytes",
                    "name": "",
                    "type": "bytes"
                },
                {
                    "internalType": "bytes",
                    "name": "",
                    "type": "bytes"
                },
                {
                    "internalType": "string",
                    "name": "",
                    "type": "string"
                },
                {
                    "internalType": "bytes",
                    "name": "",
                    "type": "bytes"
                }
            ],
            "stateMutability": "view",
            "type": "function"
        },
        {
            "inputs": [
                {
                    "internalType": "bytes",
                    "name": "name",
                    "type": "bytes"
                },
                {
                    "internalType": "bytes",
                    "name": "priceandnumber",
                    "type": "bytes"
                },
                {
                    "internalType": "string",
                    "name": "id",
                    "type": "string"
                },
                {
                    "internalType": "bytes",
                    "name": "kys",
                    "type": "bytes"
                }
            ],
            "name": "set",
            "outputs": [],
            "stateMutability": "nonpayable",
            "type": "function"
        }
    ],
    "bytecode": "608060405234801561001057600080fd5b506112f1806100206000396000f3fe608060405234801561001057600080fd5b506004361061007d5760003560e01c8063b17d55371161005b578063b17d5537146100b8578063bb966f30146100db578063ecdc647e146100ee578063ee2cf4ad1461010157600080fd5b806306661abd1461008257806322a027b6146100985780633cecd719146100ae575b600080fd5b6000546040519081526020015b60405180910390f35b6100a0610123565b60405161008f929190610dfd565b6100b6610243565b005b6100cb6100c6366004610ece565b610250565b60405161008f9493929190610f0b565b6100cb6100e9366004610f63565b6105cb565b6100b66100fc366004610f7c565b6108a6565b61011461010f366004610f63565b610a82565b60405161008f93929190611029565b60018054819061013290611090565b80601f016020809104026020016040519081016040528092919081815260200182805461015e90611090565b80156101ab5780601f10610180576101008083540402835291602001916101ab565b820191906000526020600020905b81548152906001019060200180831161018e57829003601f168201915b5050505050908060010180546101c090611090565b80601f01602080910402602001604051908101604052809291908181526020018280546101ec90611090565b80156102395780601f1061020e57610100808354040283529160200191610239565b820191906000526020600020905b81548152906001019060200180831161021c57829003601f168201915b5050505050905082565b61024e600080610cfa565b565b60608060608060005b6000548110156105c2578560405160200161027491906110ca565b604051602081830303815290604052805190602001206000828154811061029d5761029d6110e4565b90600052602060002090600402016002016000016040516020016102c191906110fa565b60405160208183030381529060405280519060200120036105b057600081815481106102ef576102ef6110e4565b906000526020600020906004020160000160008281548110610313576103136110e4565b906000526020600020906004020160010160008381548110610337576103376110e4565b90600052602060002090600402016002016000016000848154811061035e5761035e6110e4565b906000526020600020906004020160020160010183805461037e90611090565b80601f01602080910402602001604051908101604052809291908181526020018280546103aa90611090565b80156103f75780601f106103cc576101008083540402835291602001916103f7565b820191906000526020600020905b8154815290600101906020018083116103da57829003601f168201915b5050505050935082805461040a90611090565b80601f016020809104026020016040519081016040528092919081815260200182805461043690611090565b80156104835780601f1061045857610100808354040283529160200191610483565b820191906000526020600020905b81548152906001019060200180831161046657829003601f168201915b5050505050925081805461049690611090565b80601f01602080910402602001604051908101604052809291908181526020018280546104c290611090565b801561050f5780601f106104e45761010080835404028352916020019161050f565b820191906000526020600020905b8154815290600101906020018083116104f257829003601f168201915b5050505050915080805461052290611090565b80601f016020809104026020016040519081016040528092919081815260200182805461054e90611090565b801561059b5780601f106105705761010080835404028352916020019161059b565b820191906000526020600020905b81548152906001019060200180831161057e57829003601f168201915b505050505090509450945094509450506105c4565b806105ba81611185565b915050610259565b505b9193509193565b606080606080600085815481106105e4576105e46110e4565b906000526020600020906004020160000160008681548110610608576106086110e4565b90600052602060002090600402016001016000878154811061062c5761062c6110e4565b906000526020600020906004020160020160000160008881548110610653576106536110e4565b906000526020600020906004020160020160010183805461067390611090565b80601f016020809104026020016040519081016040528092919081815260200182805461069f90611090565b80156106ec5780601f106106c1576101008083540402835291602001916106ec565b820191906000526020600020905b8154815290600101906020018083116106cf57829003601f168201915b505050505093508280546106ff90611090565b80601f016020809104026020016040519081016040528092919081815260200182805461072b90611090565b80156107785780601f1061074d57610100808354040283529160200191610778565b820191906000526020600020905b81548152906001019060200180831161075b57829003601f168201915b5050505050925081805461078b90611090565b80601f01602080910402602001604051908101604052809291908181526020018280546107b790611090565b80156108045780601f106107d957610100808354040283529160200191610804565b820191906000526020600020905b8154815290600101906020018083116107e757829003601f168201915b5050505050915080805461081790611090565b80601f016020809104026020016040519081016040528092919081815260200182805461084390611090565b80156108905780601f1061086557610100808354040283529160200191610890565b820191906000526020600020905b81548152906001019060200180831161087357829003601f168201915b5050505050905093509350935093509193509193565b60016108b283826111fb565b5060026108bf82826111fb565b506000604051806060016040528086815260200185815260200160016040518060400160405290816000820180546108f690611090565b80601f016020809104026020016040519081016040528092919081815260200182805461092290611090565b801561096f5780601f106109445761010080835404028352916020019161096f565b820191906000526020600020905b81548152906001019060200180831161095257829003601f168201915b5050505050815260200160018201805461098890611090565b80601f01602080910402602001604051908101604052809291908181526020018280546109b490611090565b8015610a015780601f106109d657610100808354040283529160200191610a01565b820191906000526020600020905b8154815290600101906020018083116109e457829003601f168201915b5050509190925250505090528154600181018355600092835260209092208151919260040201908190610a3490826111fb565b5060208201516001820190610a4990826111fb565b506040820151805160028301908190610a6290826111fb565b5060208201516001820190610a7790826111fb565b505050505050505050565b60008181548110610a9257600080fd5b9060005260206000209060040201600091509050806000018054610ab590611090565b80601f0160208091040260200160405190810160405280929190818152602001828054610ae190611090565b8015610b2e5780601f10610b0357610100808354040283529160200191610b2e565b820191906000526020600020905b815481529060010190602001808311610b1157829003601f168201915b505050505090806001018054610b4390611090565b80601f0160208091040260200160405190810160405280929190818152602001828054610b6f90611090565b8015610bbc5780601f10610b9157610100808354040283529160200191610bbc565b820191906000526020600020905b815481529060010190602001808311610b9f57829003601f168201915b50505050509080600201604051806040016040529081600082018054610be190611090565b80601f0160208091040260200160405190810160405280929190818152602001828054610c0d90611090565b8015610c5a5780601f10610c2f57610100808354040283529160200191610c5a565b820191906000526020600020905b815481529060010190602001808311610c3d57829003601f168201915b50505050508152602001600182018054610c7390611090565b80601f0160208091040260200160405190810160405280929190818152602001828054610c9f90611090565b8015610cec5780601f10610cc157610100808354040283529160200191610cec565b820191906000526020600020905b815481529060010190602001808311610ccf57829003601f168201915b505050505081525050905083565b5080546000825560040290600052602060002090810190610d1b9190610d1e565b50565b80821115610d69576000610d328282610d6d565b610d40600183016000610d6d565b600282016000610d508282610d6d565b610d5e600183016000610d6d565b505050600401610d1e565b5090565b508054610d7990611090565b6000825580601f10610d89575050565b601f016020900490600052602060002090810190610d1b91905b80821115610d695760008155600101610da3565b6000815180845260005b81811015610ddd57602081850181015186830182015201610dc1565b506000602082860101526020601f19601f83011685010191505092915050565b604081526000610e106040830185610db7565b8281036020840152610e228185610db7565b95945050505050565b634e487b7160e01b600052604160045260246000fd5b600082601f830112610e5257600080fd5b813567ffffffffffffffff80821115610e6d57610e6d610e2b565b604051601f8301601f19908116603f01168101908282118183101715610e9557610e95610e2b565b81604052838152866020858801011115610eae57600080fd5b836020870160208301376000602085830101528094505050505092915050565b600060208284031215610ee057600080fd5b813567ffffffffffffffff811115610ef757600080fd5b610f0384828501610e41565b949350505050565b608081526000610f1e6080830187610db7565b8281036020840152610f308187610db7565b90508281036040840152610f448186610db7565b90508281036060840152610f588185610db7565b979650505050505050565b600060208284031215610f7557600080fd5b5035919050565b60008060008060808587031215610f9257600080fd5b843567ffffffffffffffff80821115610faa57600080fd5b610fb688838901610e41565b95506020870135915080821115610fcc57600080fd5b610fd888838901610e41565b94506040870135915080821115610fee57600080fd5b610ffa88838901610e41565b9350606087013591508082111561101057600080fd5b5061101d87828801610e41565b91505092959194509250565b60608152600061103c6060830186610db7565b828103602084015261104e8186610db7565b9050828103604084015283516040825261106b6040830182610db7565b9050602085015182820360208401526110848282610db7565b98975050505050505050565b600181811c908216806110a457607f821691505b6020821081036110c457634e487b7160e01b600052602260045260246000fd5b50919050565b6020815260006110dd6020830184610db7565b9392505050565b634e487b7160e01b600052603260045260246000fd5b600060208083526000845461110e81611090565b8084870152604060018084166000811461112f576001811461114957611177565b60ff1985168984015283151560051b890183019550611177565b896000528660002060005b8581101561116f5781548b8201860152908301908801611154565b8a0184019650505b509398975050505050505050565b6000600182016111a557634e487b7160e01b600052601160045260246000fd5b5060010190565b601f8211156111f657600081815260208120601f850160051c810160208610156111d35750805b601f850160051c820191505b818110156111f2578281556001016111df565b5050505b505050565b815167ffffffffffffffff81111561121557611215610e2b565b611229816112238454611090565b846111ac565b602080601f83116001811461125e57600084156112465750858301515b600019600386901b1c1916600185901b1785556111f2565b600085815260208120601f198616915b8281101561128d5788860151825594840194600190910190840161126e565b50858210156112ab5787850151600019600388901b60f8161c191681555b5050505050600190811b0190555056fea2646970667358221220ea043347e3dac4c3e540ebeaf9db1a52a5f6dfa2902b11bb663e5718b550eded64736f6c63430008110033",
    "sourcePath": "e:/毕业设计/mywork/contracts/working.sol",
    "compiler": {
        "name": "solc",
        "version": "0.8.17+commit.8df45f5f"
    },
    "functionHashes": {
        "cleanup()": "3cecd719",
        "commiditys(uint256)": "ee2cf4ad",
        "controlists()": "22a027b6",
        "count()": "06661abd",
        "getdata(string)": "b17d5537",
        "getrandomdata(uint256)": "bb966f30",
        "set(bytes,bytes,string,bytes)": "ecdc647e"
    },
    "gasEstimates": {
        "creation": {
            "codeDepositCost": "969800",
            "executionCost": "1008",
            "totalCost": "970808"
        },
        "external": {
            "cleanup()": "infinite",
            "commiditys(uint256)": "infinite",
            "controlists()": "infinite",
            "count()": "2270",
            "getdata(string)": "infinite",
            "getrandomdata(uint256)": "infinite",
            "set(bytes,bytes,string,bytes)": "infinite"
        }
    }
}