{
	"contracts/Working.sol": {
		"Working": {
			"abi": [
				{
					"inputs": [],
					"name": "cleanup",
					"outputs": [],
					"stateMutability": "nonpayable",
					"type": "function"
				},
				{
					"inputs": [
						{
							"internalType": "uint256",
							"name": "",
							"type": "uint256"
						}
					],
					"name": "commiditys",
					"outputs": [
						{
							"internalType": "bytes",
							"name": "commidity_name",
							"type": "bytes"
						},
						{
							"internalType": "bytes",
							"name": "commidity_priceandnumber",
							"type": "bytes"
						},
						{
							"components": [
								{
									"internalType": "string",
									"name": "userid",
									"type": "string"
								},
								{
									"internalType": "bytes",
									"name": "keys",
									"type": "bytes"
								}
							],
							"internalType": "struct Working.Controlist",
							"name": "controlist",
							"type": "tuple"
						}
					],
					"stateMutability": "view",
					"type": "function"
				},
				{
					"inputs": [],
					"name": "controlists",
					"outputs": [
						{
							"internalType": "string",
							"name": "userid",
							"type": "string"
						},
						{
							"internalType": "bytes",
							"name": "keys",
							"type": "bytes"
						}
					],
					"stateMutability": "view",
					"type": "function"
				},
				{
					"inputs": [],
					"name": "count",
					"outputs": [
						{
							"internalType": "uint256",
							"name": "",
							"type": "uint256"
						}
					],
					"stateMutability": "view",
					"type": "function"
				},
				{
					"inputs": [
						{
							"internalType": "string",
							"name": "id",
							"type": "string"
						}
					],
					"name": "getdata",
					"outputs": [
						{
							"internalType": "bytes",
							"name": "",
							"type": "bytes"
						},
						{
							"internalType": "bytes",
							"name": "",
							"type": "bytes"
						},
						{
							"internalType": "string",
							"name": "",
							"type": "string"
						},
						{
							"internalType": "bytes",
							"name": "",
							"type": "bytes"
						}
					],
					"stateMutability": "view",
					"type": "function"
				},
				{
					"inputs": [
						{
							"internalType": "uint256",
							"name": "i",
							"type": "uint256"
						}
					],
					"name": "getrandomdata",
					"outputs": [
						{
							"internalType": "bytes",
							"name": "",
							"type": "bytes"
						},
						{
							"internalType": "bytes",
							"name": "",
							"type": "bytes"
						},
						{
							"internalType": "string",
							"name": "",
							"type": "string"
						},
						{
							"internalType": "bytes",
							"name": "",
							"type": "bytes"
						}
					],
					"stateMutability": "view",
					"type": "function"
				},
				{
					"inputs": [
						{
							"internalType": "bytes",
							"name": "name",
							"type": "bytes"
						},
						{
							"internalType": "bytes",
							"name": "priceandnumber",
							"type": "bytes"
						},
						{
							"internalType": "string",
							"name": "id",
							"type": "string"
						},
						{
							"internalType": "bytes",
							"name": "kys",
							"type": "bytes"
						}
					],
					"name": "set",
					"outputs": [],
					"stateMutability": "nonpayable",
					"type": "function"
				}
			],
			"devdoc": {
				"kind": "dev",
				"methods": {},
				"version": 1
			},
			"evm": {
				"assembly": "    /* \"contracts/Working.sol\":122:2238  contract Working {\r... */\n  mstore(0x40, 0x80)\n  callvalue\n  dup1\n  iszero\n  tag_1\n  jumpi\n  0x00\n  dup1\n  revert\ntag_1:\n  pop\n  dataSize(sub_0)\n  dup1\n  dataOffset(sub_0)\n  0x00\n  codecopy\n  0x00\n  return\nstop\n\nsub_0: assembly {\n        /* \"contracts/Working.sol\":122:2238  contract Working {\r... */\n      mstore(0x40, 0x80)\n      callvalue\n      dup1\n      iszero\n      tag_1\n      jumpi\n      0x00\n      dup1\n      revert\n    tag_1:\n      pop\n      jumpi(tag_2, lt(calldatasize, 0x04))\n      shr(0xe0, calldataload(0x00))\n      dup1\n      0xb17d5537\n      gt\n      tag_10\n      jumpi\n      dup1\n      0xb17d5537\n      eq\n      tag_6\n      jumpi\n      dup1\n      0xbb966f30\n      eq\n      tag_7\n      jumpi\n      dup1\n      0xecdc647e\n      eq\n      tag_8\n      jumpi\n      dup1\n      0xee2cf4ad\n      eq\n      tag_9\n      jumpi\n      0x00\n      dup1\n      revert\n    tag_10:\n      dup1\n      0x06661abd\n      eq\n      tag_3\n      jumpi\n      dup1\n      0x22a027b6\n      eq\n      tag_4\n      jumpi\n      dup1\n      0x3cecd719\n      eq\n      tag_5\n      jumpi\n    tag_2:\n      0x00\n      dup1\n      revert\n        /* \"contracts/Working.sol\":2075:2165  function count() public view returns (uint256) {\r... */\n    tag_3:\n        /* \"contracts/Working.sol\":2113:2120  uint256 */\n      0x00\n        /* \"contracts/Working.sol\":2140:2157  commiditys.length */\n      sload\n        /* \"contracts/Working.sol\":2075:2165  function count() public view returns (uint256) {\r... */\n      mload(0x40)\n        /* \"#utility.yul\":6143:6168   */\n      swap1\n      dup2\n      mstore\n        /* \"#utility.yul\":6131:6133   */\n      0x20\n        /* \"#utility.yul\":6116:6134   */\n      add\n        /* \"contracts/Working.sol\":2075:2165  function count() public view returns (uint256) {\r... */\n    tag_13:\n      mload(0x40)\n      dup1\n      swap2\n      sub\n      swap1\n      return\n        /* \"contracts/Working.sol\":562:591  Controlist public controlists */\n    tag_4:\n      tag_15\n      tag_16\n      jump\t// in\n    tag_15:\n      mload(0x40)\n      tag_13\n      swap3\n      swap2\n      swap1\n      tag_18\n      jump\t// in\n        /* \"contracts/Working.sol\":2173:2235  function cleanup() public {\r... */\n    tag_5:\n      tag_19\n      tag_20\n      jump\t// in\n    tag_19:\n      stop\n        /* \"contracts/Working.sol\":929:1629  function getdata(string memory id)\r... */\n    tag_6:\n      tag_21\n      tag_22\n      calldatasize\n      0x04\n      tag_23\n      jump\t// in\n    tag_22:\n      tag_24\n      jump\t// in\n    tag_21:\n      mload(0x40)\n      tag_13\n      swap5\n      swap4\n      swap3\n      swap2\n      swap1\n      tag_26\n      jump\t// in\n        /* \"contracts/Working.sol\":1637:2067  function getrandomdata(uint256 i)\r... */\n    tag_7:\n      tag_21\n      tag_28\n      calldatasize\n      0x04\n      tag_29\n      jump\t// in\n    tag_28:\n      tag_30\n      jump\t// in\n        /* \"contracts/Working.sol\":627:921  function set(\r... */\n    tag_8:\n      tag_19\n      tag_33\n      calldatasize\n      0x04\n      tag_34\n      jump\t// in\n    tag_33:\n      tag_35\n      jump\t// in\n        /* \"contracts/Working.sol\":505:534  Commidity[] public commiditys */\n    tag_9:\n      tag_36\n      tag_37\n      calldatasize\n      0x04\n      tag_29\n      jump\t// in\n    tag_37:\n      tag_38\n      jump\t// in\n    tag_36:\n      mload(0x40)\n      tag_13\n      swap4\n      swap3\n      swap2\n      swap1\n      tag_40\n      jump\t// in\n        /* \"contracts/Working.sol\":562:591  Controlist public controlists */\n    tag_16:\n      0x01\n      dup1\n      sload\n      dup2\n      swap1\n      tag_42\n      swap1\n      tag_43\n      jump\t// in\n    tag_42:\n      dup1\n      0x1f\n      add\n      0x20\n      dup1\n      swap2\n      div\n      mul\n      0x20\n      add\n      mload(0x40)\n      swap1\n      dup2\n      add\n      0x40\n      mstore\n      dup1\n      swap3\n      swap2\n      swap1\n      dup2\n      dup2\n      mstore\n      0x20\n      add\n      dup3\n      dup1\n      sload\n      tag_44\n      swap1\n      tag_43\n      jump\t// in\n    tag_44:\n      dup1\n      iszero\n      tag_45\n      jumpi\n      dup1\n      0x1f\n      lt\n      tag_46\n      jumpi\n      0x0100\n      dup1\n      dup4\n      sload\n      div\n      mul\n      dup4\n      mstore\n      swap2\n      0x20\n      add\n      swap2\n      jump(tag_45)\n    tag_46:\n      dup3\n      add\n      swap2\n      swap1\n      0x00\n      mstore\n      keccak256(0x00, 0x20)\n      swap1\n    tag_47:\n      dup2\n      sload\n      dup2\n      mstore\n      swap1\n      0x01\n      add\n      swap1\n      0x20\n      add\n      dup1\n      dup4\n      gt\n      tag_47\n      jumpi\n      dup3\n      swap1\n      sub\n      0x1f\n      and\n      dup3\n      add\n      swap2\n    tag_45:\n      pop\n      pop\n      pop\n      pop\n      pop\n      swap1\n      dup1\n      0x01\n      add\n      dup1\n      sload\n      tag_48\n      swap1\n      tag_43\n      jump\t// in\n    tag_48:\n      dup1\n      0x1f\n      add\n      0x20\n      dup1\n      swap2\n      div\n      mul\n      0x20\n      add\n      mload(0x40)\n      swap1\n      dup2\n      add\n      0x40\n      mstore\n      dup1\n      swap3\n      swap2\n      swap1\n      dup2\n      dup2\n      mstore\n      0x20\n      add\n      dup3\n      dup1\n      sload\n      tag_49\n      swap1\n      tag_43\n      jump\t// in\n    tag_49:\n      dup1\n      iszero\n      tag_50\n      jumpi\n      dup1\n      0x1f\n      lt\n      tag_51\n      jumpi\n      0x0100\n      dup1\n      dup4\n      sload\n      div\n      mul\n      dup4\n      mstore\n      swap2\n      0x20\n      add\n      swap2\n      jump(tag_50)\n    tag_51:\n      dup3\n      add\n      swap2\n      swap1\n      0x00\n      mstore\n      keccak256(0x00, 0x20)\n      swap1\n    tag_52:\n      dup2\n      sload\n      dup2\n      mstore\n      swap1\n      0x01\n      add\n      swap1\n      0x20\n      add\n      dup1\n      dup4\n      gt\n      tag_52\n      jumpi\n      dup3\n      swap1\n      sub\n      0x1f\n      and\n      dup3\n      add\n      swap2\n    tag_50:\n      pop\n      pop\n      pop\n      pop\n      pop\n      swap1\n      pop\n      dup3\n      jump\t// out\n        /* \"contracts/Working.sol\":2173:2235  function cleanup() public {\r... */\n    tag_20:\n        /* \"contracts/Working.sol\":2210:2227  delete commiditys */\n      tag_54\n        /* \"contracts/Working.sol\":2217:2227  commiditys */\n      0x00\n      dup1\n        /* \"contracts/Working.sol\":2210:2227  delete commiditys */\n      tag_55\n      jump\t// in\n    tag_54:\n        /* \"contracts/Working.sol\":2173:2235  function cleanup() public {\r... */\n      jump\t// out\n        /* \"contracts/Working.sol\":929:1629  function getdata(string memory id)\r... */\n    tag_24:\n        /* \"contracts/Working.sol\":1026:1038  bytes memory */\n      0x60\n        /* \"contracts/Working.sol\":1053:1065  bytes memory */\n      dup1\n        /* \"contracts/Working.sol\":1080:1093  string memory */\n      0x60\n        /* \"contracts/Working.sol\":1108:1120  bytes memory */\n      dup1\n        /* \"contracts/Working.sol\":1153:1162  uint256 i */\n      0x00\n        /* \"contracts/Working.sol\":1148:1622  for (uint256 i = 0; i < commiditys.length; i++) {\r... */\n    tag_57:\n        /* \"contracts/Working.sol\":1172:1182  commiditys */\n      0x00\n        /* \"contracts/Working.sol\":1172:1189  commiditys.length */\n      sload\n        /* \"contracts/Working.sol\":1168:1189  i < commiditys.length */\n      dup2\n      lt\n        /* \"contracts/Working.sol\":1148:1622  for (uint256 i = 0; i < commiditys.length; i++) {\r... */\n      iszero\n      tag_58\n      jumpi\n        /* \"contracts/Working.sol\":1329:1331  id */\n      dup6\n        /* \"contracts/Working.sol\":1318:1332  abi.encode(id) */\n      add(0x20, mload(0x40))\n      tag_60\n      swap2\n      swap1\n      tag_61\n      jump\t// in\n    tag_60:\n      mload(0x40)\n      0x20\n      dup2\n      dup4\n      sub\n      sub\n      dup2\n      mstore\n      swap1\n      0x40\n      mstore\n        /* \"contracts/Working.sol\":1308:1333  keccak256(abi.encode(id)) */\n      dup1\n      mload\n      swap1\n      0x20\n      add\n      keccak256\n        /* \"contracts/Working.sol\":1254:1264  commiditys */\n      0x00\n        /* \"contracts/Working.sol\":1265:1266  i */\n      dup3\n        /* \"contracts/Working.sol\":1254:1267  commiditys[i] */\n      dup2\n      sload\n      dup2\n      lt\n      tag_63\n      jumpi\n      tag_63\n      tag_64\n      jump\t// in\n    tag_63:\n      swap1\n      0x00\n      mstore\n      keccak256(0x00, 0x20)\n      swap1\n      0x04\n      mul\n      add\n        /* \"contracts/Working.sol\":1254:1278  commiditys[i].controlist */\n      0x02\n      add\n        /* \"contracts/Working.sol\":1254:1285  commiditys[i].controlist.userid */\n      0x00\n      add\n        /* \"contracts/Working.sol\":1243:1286  abi.encode(commiditys[i].controlist.userid) */\n      add(0x20, mload(0x40))\n      tag_66\n      swap2\n      swap1\n      tag_67\n      jump\t// in\n    tag_66:\n      mload(0x40)\n      0x20\n      dup2\n      dup4\n      sub\n      sub\n      dup2\n      mstore\n      swap1\n      0x40\n      mstore\n        /* \"contracts/Working.sol\":1233:1287  keccak256(abi.encode(commiditys[i].controlist.userid)) */\n      dup1\n      mload\n      swap1\n      0x20\n      add\n      keccak256\n        /* \"contracts/Working.sol\":1233:1333  keccak256(abi.encode(commiditys[i].controlist.userid)) ==\r... */\n      eq\n        /* \"contracts/Working.sol\":1211:1610  if (\r... */\n      iszero\n      tag_68\n      jumpi\n        /* \"contracts/Working.sol\":1396:1406  commiditys */\n      0x00\n        /* \"contracts/Working.sol\":1407:1408  i */\n      dup2\n        /* \"contracts/Working.sol\":1396:1409  commiditys[i] */\n      dup2\n      sload\n      dup2\n      lt\n      tag_70\n      jumpi\n      tag_70\n      tag_64\n      jump\t// in\n    tag_70:\n      swap1\n      0x00\n      mstore\n      keccak256(0x00, 0x20)\n      swap1\n      0x04\n      mul\n      add\n        /* \"contracts/Working.sol\":1396:1424  commiditys[i].commidity_name */\n      0x00\n      add\n        /* \"contracts/Working.sol\":1447:1457  commiditys */\n      0x00\n        /* \"contracts/Working.sol\":1458:1459  i */\n      dup3\n        /* \"contracts/Working.sol\":1447:1460  commiditys[i] */\n      dup2\n      sload\n      dup2\n      lt\n      tag_73\n      jumpi\n      tag_73\n      tag_64\n      jump\t// in\n    tag_73:\n      swap1\n      0x00\n      mstore\n      keccak256(0x00, 0x20)\n      swap1\n      0x04\n      mul\n      add\n        /* \"contracts/Working.sol\":1447:1485  commiditys[i].commidity_priceandnumber */\n      0x01\n      add\n        /* \"contracts/Working.sol\":1508:1518  commiditys */\n      0x00\n        /* \"contracts/Working.sol\":1519:1520  i */\n      dup4\n        /* \"contracts/Working.sol\":1508:1521  commiditys[i] */\n      dup2\n      sload\n      dup2\n      lt\n      tag_76\n      jumpi\n      tag_76\n      tag_64\n      jump\t// in\n    tag_76:\n      swap1\n      0x00\n      mstore\n      keccak256(0x00, 0x20)\n      swap1\n      0x04\n      mul\n      add\n        /* \"contracts/Working.sol\":1508:1532  commiditys[i].controlist */\n      0x02\n      add\n        /* \"contracts/Working.sol\":1508:1539  commiditys[i].controlist.userid */\n      0x00\n      add\n        /* \"contracts/Working.sol\":1562:1572  commiditys */\n      0x00\n        /* \"contracts/Working.sol\":1573:1574  i */\n      dup5\n        /* \"contracts/Working.sol\":1562:1575  commiditys[i] */\n      dup2\n      sload\n      dup2\n      lt\n      tag_79\n      jumpi\n      tag_79\n      tag_64\n      jump\t// in\n    tag_79:\n      swap1\n      0x00\n      mstore\n      keccak256(0x00, 0x20)\n      swap1\n      0x04\n      mul\n      add\n        /* \"contracts/Working.sol\":1562:1586  commiditys[i].controlist */\n      0x02\n      add\n        /* \"contracts/Working.sol\":1562:1591  commiditys[i].controlist.keys */\n      0x01\n      add\n        /* \"contracts/Working.sol\":1366:1610  return (\r... */\n      dup4\n      dup1\n      sload\n      tag_81\n      swap1\n      tag_43\n      jump\t// in\n    tag_81:\n      dup1\n      0x1f\n      add\n      0x20\n      dup1\n      swap2\n      div\n      mul\n      0x20\n      add\n      mload(0x40)\n      swap1\n      dup2\n      add\n      0x40\n      mstore\n      dup1\n      swap3\n      swap2\n      swap1\n      dup2\n      dup2\n      mstore\n      0x20\n      add\n      dup3\n      dup1\n      sload\n      tag_82\n      swap1\n      tag_43\n      jump\t// in\n    tag_82:\n      dup1\n      iszero\n      tag_83\n      jumpi\n      dup1\n      0x1f\n      lt\n      tag_84\n      jumpi\n      0x0100\n      dup1\n      dup4\n      sload\n      div\n      mul\n      dup4\n      mstore\n      swap2\n      0x20\n      add\n      swap2\n      jump(tag_83)\n    tag_84:\n      dup3\n      add\n      swap2\n      swap1\n      0x00\n      mstore\n      keccak256(0x00, 0x20)\n      swap1\n    tag_85:\n      dup2\n      sload\n      dup2\n      mstore\n      swap1\n      0x01\n      add\n      swap1\n      0x20\n      add\n      dup1\n      dup4\n      gt\n      tag_85\n      jumpi\n      dup3\n      swap1\n      sub\n      0x1f\n      and\n      dup3\n      add\n      swap2\n    tag_83:\n      pop\n      pop\n      pop\n      pop\n      pop\n      swap4\n      pop\n      dup3\n      dup1\n      sload\n      tag_86\n      swap1\n      tag_43\n      jump\t// in\n    tag_86:\n      dup1\n      0x1f\n      add\n      0x20\n      dup1\n      swap2\n      div\n      mul\n      0x20\n      add\n      mload(0x40)\n      swap1\n      dup2\n      add\n      0x40\n      mstore\n      dup1\n      swap3\n      swap2\n      swap1\n      dup2\n      dup2\n      mstore\n      0x20\n      add\n      dup3\n      dup1\n      sload\n      tag_87\n      swap1\n      tag_43\n      jump\t// in\n    tag_87:\n      dup1\n      iszero\n      tag_88\n      jumpi\n      dup1\n      0x1f\n      lt\n      tag_89\n      jumpi\n      0x0100\n      dup1\n      dup4\n      sload\n      div\n      mul\n      dup4\n      mstore\n      swap2\n      0x20\n      add\n      swap2\n      jump(tag_88)\n    tag_89:\n      dup3\n      add\n      swap2\n      swap1\n      0x00\n      mstore\n      keccak256(0x00, 0x20)\n      swap1\n    tag_90:\n      dup2\n      sload\n      dup2\n      mstore\n      swap1\n      0x01\n      add\n      swap1\n      0x20\n      add\n      dup1\n      dup4\n      gt\n      tag_90\n      jumpi\n      dup3\n      swap1\n      sub\n      0x1f\n      and\n      dup3\n      add\n      swap2\n    tag_88:\n      pop\n      pop\n      pop\n      pop\n      pop\n      swap3\n      pop\n      dup2\n      dup1\n      sload\n      tag_91\n      swap1\n      tag_43\n      jump\t// in\n    tag_91:\n      dup1\n      0x1f\n      add\n      0x20\n      dup1\n      swap2\n      div\n      mul\n      0x20\n      add\n      mload(0x40)\n      swap1\n      dup2\n      add\n      0x40\n      mstore\n      dup1\n      swap3\n      swap2\n      swap1\n      dup2\n      dup2\n      mstore\n      0x20\n      add\n      dup3\n      dup1\n      sload\n      tag_92\n      swap1\n      tag_43\n      jump\t// in\n    tag_92:\n      dup1\n      iszero\n      tag_93\n      jumpi\n      dup1\n      0x1f\n      lt\n      tag_94\n      jumpi\n      0x0100\n      dup1\n      dup4\n      sload\n      div\n      mul\n      dup4\n      mstore\n      swap2\n      0x20\n      add\n      swap2\n      jump(tag_93)\n    tag_94:\n      dup3\n      add\n      swap2\n      swap1\n      0x00\n      mstore\n      keccak256(0x00, 0x20)\n      swap1\n    tag_95:\n      dup2\n      sload\n      dup2\n      mstore\n      swap1\n      0x01\n      add\n      swap1\n      0x20\n      add\n      dup1\n      dup4\n      gt\n      tag_95\n      jumpi\n      dup3\n      swap1\n      sub\n      0x1f\n      and\n      dup3\n      add\n      swap2\n    tag_93:\n      pop\n      pop\n      pop\n      pop\n      pop\n      swap2\n      pop\n      dup1\n      dup1\n      sload\n      tag_96\n      swap1\n      tag_43\n      jump\t// in\n    tag_96:\n      dup1\n      0x1f\n      add\n      0x20\n      dup1\n      swap2\n      div\n      mul\n      0x20\n      add\n      mload(0x40)\n      swap1\n      dup2\n      add\n      0x40\n      mstore\n      dup1\n      swap3\n      swap2\n      swap1\n      dup2\n      dup2\n      mstore\n      0x20\n      add\n      dup3\n      dup1\n      sload\n      tag_97\n      swap1\n      tag_43\n      jump\t// in\n    tag_97:\n      dup1\n      iszero\n      tag_98\n      jumpi\n      dup1\n      0x1f\n      lt\n      tag_99\n      jumpi\n      0x0100\n      dup1\n      dup4\n      sload\n      div\n      mul\n      dup4\n      mstore\n      swap2\n      0x20\n      add\n      swap2\n      jump(tag_98)\n    tag_99:\n      dup3\n      add\n      swap2\n      swap1\n      0x00\n      mstore\n      keccak256(0x00, 0x20)\n      swap1\n    tag_100:\n      dup2\n      sload\n      dup2\n      mstore\n      swap1\n      0x01\n      add\n      swap1\n      0x20\n      add\n      dup1\n      dup4\n      gt\n      tag_100\n      jumpi\n      dup3\n      swap1\n      sub\n      0x1f\n      and\n      dup3\n      add\n      swap2\n    tag_98:\n      pop\n      pop\n      pop\n      pop\n      pop\n      swap1\n      pop\n      swap5\n      pop\n      swap5\n      pop\n      swap5\n      pop\n      swap5\n      pop\n      pop\n      jump(tag_56)\n        /* \"contracts/Working.sol\":1211:1610  if (\r... */\n    tag_68:\n        /* \"contracts/Working.sol\":1191:1194  i++ */\n      dup1\n      tag_101\n      dup2\n      tag_102\n      jump\t// in\n    tag_101:\n      swap2\n      pop\n      pop\n        /* \"contracts/Working.sol\":1148:1622  for (uint256 i = 0; i < commiditys.length; i++) {\r... */\n      jump(tag_57)\n    tag_58:\n      pop\n        /* \"contracts/Working.sol\":929:1629  function getdata(string memory id)\r... */\n    tag_56:\n      swap2\n      swap4\n      pop\n      swap2\n      swap4\n      jump\t// out\n        /* \"contracts/Working.sol\":1637:2067  function getrandomdata(uint256 i)\r... */\n    tag_30:\n        /* \"contracts/Working.sol\":1733:1745  bytes memory */\n      0x60\n        /* \"contracts/Working.sol\":1760:1772  bytes memory */\n      dup1\n        /* \"contracts/Working.sol\":1787:1800  string memory */\n      0x60\n        /* \"contracts/Working.sol\":1815:1827  bytes memory */\n      dup1\n        /* \"contracts/Working.sol\":1877:1887  commiditys */\n      0x00\n        /* \"contracts/Working.sol\":1888:1889  i */\n      dup6\n        /* \"contracts/Working.sol\":1877:1890  commiditys[i] */\n      dup2\n      sload\n      dup2\n      lt\n      tag_105\n      jumpi\n      tag_105\n      tag_64\n      jump\t// in\n    tag_105:\n      swap1\n      0x00\n      mstore\n      keccak256(0x00, 0x20)\n      swap1\n      0x04\n      mul\n      add\n        /* \"contracts/Working.sol\":1877:1905  commiditys[i].commidity_name */\n      0x00\n      add\n        /* \"contracts/Working.sol\":1920:1930  commiditys */\n      0x00\n        /* \"contracts/Working.sol\":1931:1932  i */\n      dup7\n        /* \"contracts/Working.sol\":1920:1933  commiditys[i] */\n      dup2\n      sload\n      dup2\n      lt\n      tag_108\n      jumpi\n      tag_108\n      tag_64\n      jump\t// in\n    tag_108:\n      swap1\n      0x00\n      mstore\n      keccak256(0x00, 0x20)\n      swap1\n      0x04\n      mul\n      add\n        /* \"contracts/Working.sol\":1920:1958  commiditys[i].commidity_priceandnumber */\n      0x01\n      add\n        /* \"contracts/Working.sol\":1973:1983  commiditys */\n      0x00\n        /* \"contracts/Working.sol\":1984:1985  i */\n      dup8\n        /* \"contracts/Working.sol\":1973:1986  commiditys[i] */\n      dup2\n      sload\n      dup2\n      lt\n      tag_111\n      jumpi\n      tag_111\n      tag_64\n      jump\t// in\n    tag_111:\n      swap1\n      0x00\n      mstore\n      keccak256(0x00, 0x20)\n      swap1\n      0x04\n      mul\n      add\n        /* \"contracts/Working.sol\":1973:1997  commiditys[i].controlist */\n      0x02\n      add\n        /* \"contracts/Working.sol\":1973:2004  commiditys[i].controlist.userid */\n      0x00\n      add\n        /* \"contracts/Working.sol\":2019:2029  commiditys */\n      0x00\n        /* \"contracts/Working.sol\":2030:2031  i */\n      dup9\n        /* \"contracts/Working.sol\":2019:2032  commiditys[i] */\n      dup2\n      sload\n      dup2\n      lt\n      tag_114\n      jumpi\n      tag_114\n      tag_64\n      jump\t// in\n    tag_114:\n      swap1\n      0x00\n      mstore\n      keccak256(0x00, 0x20)\n      swap1\n      0x04\n      mul\n      add\n        /* \"contracts/Working.sol\":2019:2043  commiditys[i].controlist */\n      0x02\n      add\n        /* \"contracts/Working.sol\":2019:2048  commiditys[i].controlist.keys */\n      0x01\n      add\n        /* \"contracts/Working.sol\":1855:2059  return (\r... */\n      dup4\n      dup1\n      sload\n      tag_116\n      swap1\n      tag_43\n      jump\t// in\n    tag_116:\n      dup1\n      0x1f\n      add\n      0x20\n      dup1\n      swap2\n      div\n      mul\n      0x20\n      add\n      mload(0x40)\n      swap1\n      dup2\n      add\n      0x40\n      mstore\n      dup1\n      swap3\n      swap2\n      swap1\n      dup2\n      dup2\n      mstore\n      0x20\n      add\n      dup3\n      dup1\n      sload\n      tag_117\n      swap1\n      tag_43\n      jump\t// in\n    tag_117:\n      dup1\n      iszero\n      tag_118\n      jumpi\n      dup1\n      0x1f\n      lt\n      tag_119\n      jumpi\n      0x0100\n      dup1\n      dup4\n      sload\n      div\n      mul\n      dup4\n      mstore\n      swap2\n      0x20\n      add\n      swap2\n      jump(tag_118)\n    tag_119:\n      dup3\n      add\n      swap2\n      swap1\n      0x00\n      mstore\n      keccak256(0x00, 0x20)\n      swap1\n    tag_120:\n      dup2\n      sload\n      dup2\n      mstore\n      swap1\n      0x01\n      add\n      swap1\n      0x20\n      add\n      dup1\n      dup4\n      gt\n      tag_120\n      jumpi\n      dup3\n      swap1\n      sub\n      0x1f\n      and\n      dup3\n      add\n      swap2\n    tag_118:\n      pop\n      pop\n      pop\n      pop\n      pop\n      swap4\n      pop\n      dup3\n      dup1\n      sload\n      tag_121\n      swap1\n      tag_43\n      jump\t// in\n    tag_121:\n      dup1\n      0x1f\n      add\n      0x20\n      dup1\n      swap2\n      div\n      mul\n      0x20\n      add\n      mload(0x40)\n      swap1\n      dup2\n      add\n      0x40\n      mstore\n      dup1\n      swap3\n      swap2\n      swap1\n      dup2\n      dup2\n      mstore\n      0x20\n      add\n      dup3\n      dup1\n      sload\n      tag_122\n      swap1\n      tag_43\n      jump\t// in\n    tag_122:\n      dup1\n      iszero\n      tag_123\n      jumpi\n      dup1\n      0x1f\n      lt\n      tag_124\n      jumpi\n      0x0100\n      dup1\n      dup4\n      sload\n      div\n      mul\n      dup4\n      mstore\n      swap2\n      0x20\n      add\n      swap2\n      jump(tag_123)\n    tag_124:\n      dup3\n      add\n      swap2\n      swap1\n      0x00\n      mstore\n      keccak256(0x00, 0x20)\n      swap1\n    tag_125:\n      dup2\n      sload\n      dup2\n      mstore\n      swap1\n      0x01\n      add\n      swap1\n      0x20\n      add\n      dup1\n      dup4\n      gt\n      tag_125\n      jumpi\n      dup3\n      swap1\n      sub\n      0x1f\n      and\n      dup3\n      add\n      swap2\n    tag_123:\n      pop\n      pop\n      pop\n      pop\n      pop\n      swap3\n      pop\n      dup2\n      dup1\n      sload\n      tag_126\n      swap1\n      tag_43\n      jump\t// in\n    tag_126:\n      dup1\n      0x1f\n      add\n      0x20\n      dup1\n      swap2\n      div\n      mul\n      0x20\n      add\n      mload(0x40)\n      swap1\n      dup2\n      add\n      0x40\n      mstore\n      dup1\n      swap3\n      swap2\n      swap1\n      dup2\n      dup2\n      mstore\n      0x20\n      add\n      dup3\n      dup1\n      sload\n      tag_127\n      swap1\n      tag_43\n      jump\t// in\n    tag_127:\n      dup1\n      iszero\n      tag_128\n      jumpi\n      dup1\n      0x1f\n      lt\n      tag_129\n      jumpi\n      0x0100\n      dup1\n      dup4\n      sload\n      div\n      mul\n      dup4\n      mstore\n      swap2\n      0x20\n      add\n      swap2\n      jump(tag_128)\n    tag_129:\n      dup3\n      add\n      swap2\n      swap1\n      0x00\n      mstore\n      keccak256(0x00, 0x20)\n      swap1\n    tag_130:\n      dup2\n      sload\n      dup2\n      mstore\n      swap1\n      0x01\n      add\n      swap1\n      0x20\n      add\n      dup1\n      dup4\n      gt\n      tag_130\n      jumpi\n      dup3\n      swap1\n      sub\n      0x1f\n      and\n      dup3\n      add\n      swap2\n    tag_128:\n      pop\n      pop\n      pop\n      pop\n      pop\n      swap2\n      pop\n      dup1\n      dup1\n      sload\n      tag_131\n      swap1\n      tag_43\n      jump\t// in\n    tag_131:\n      dup1\n      0x1f\n      add\n      0x20\n      dup1\n      swap2\n      div\n      mul\n      0x20\n      add\n      mload(0x40)\n      swap1\n      dup2\n      add\n      0x40\n      mstore\n      dup1\n      swap3\n      swap2\n      swap1\n      dup2\n      dup2\n      mstore\n      0x20\n      add\n      dup3\n      dup1\n      sload\n      tag_132\n      swap1\n      tag_43\n      jump\t// in\n    tag_132:\n      dup1\n      iszero\n      tag_133\n      jumpi\n      dup1\n      0x1f\n      lt\n      tag_134\n      jumpi\n      0x0100\n      dup1\n      dup4\n      sload\n      div\n      mul\n      dup4\n      mstore\n      swap2\n      0x20\n      add\n      swap2\n      jump(tag_133)\n    tag_134:\n      dup3\n      add\n      swap2\n      swap1\n      0x00\n      mstore\n      keccak256(0x00, 0x20)\n      swap1\n    tag_135:\n      dup2\n      sload\n      dup2\n      mstore\n      swap1\n      0x01\n      add\n      swap1\n      0x20\n      add\n      dup1\n      dup4\n      gt\n      tag_135\n      jumpi\n      dup3\n      swap1\n      sub\n      0x1f\n      and\n      dup3\n      add\n      swap2\n    tag_133:\n      pop\n      pop\n      pop\n      pop\n      pop\n      swap1\n      pop\n      swap4\n      pop\n      swap4\n      pop\n      swap4\n      pop\n      swap4\n      pop\n        /* \"contracts/Working.sol\":1637:2067  function getrandomdata(uint256 i)\r... */\n      swap2\n      swap4\n      pop\n      swap2\n      swap4\n      jump\t// out\n        /* \"contracts/Working.sol\":627:921  function set(\r... */\n    tag_35:\n        /* \"contracts/Working.sol\":785:808  controlists.userid = id */\n      dup2\n      mload\n      tag_137\n      swap1\n        /* \"contracts/Working.sol\":785:796  controlists */\n      0x01\n      swap1\n        /* \"contracts/Working.sol\":785:808  controlists.userid = id */\n      0x20\n      dup6\n      add\n      swap1\n      tag_138\n      jump\t// in\n    tag_137:\n      pop\n        /* \"contracts/Working.sol\":819:841  controlists.keys = kys */\n      dup1\n      mload\n      tag_139\n      swap1\n        /* \"contracts/Working.sol\":819:835  controlists.keys */\n      0x02\n      swap1\n        /* \"contracts/Working.sol\":819:841  controlists.keys = kys */\n      0x20\n      dup5\n      add\n      swap1\n      tag_138\n      jump\t// in\n    tag_139:\n      pop\n        /* \"contracts/Working.sol\":852:862  commiditys */\n      0x00\n        /* \"contracts/Working.sol\":868:912  Commidity(name, priceandnumber, controlists) */\n      mload(0x40)\n      dup1\n      0x60\n      add\n      0x40\n      mstore\n      dup1\n        /* \"contracts/Working.sol\":878:882  name */\n      dup7\n        /* \"contracts/Working.sol\":868:912  Commidity(name, priceandnumber, controlists) */\n      dup2\n      mstore\n      0x20\n      add\n        /* \"contracts/Working.sol\":884:898  priceandnumber */\n      dup6\n        /* \"contracts/Working.sol\":868:912  Commidity(name, priceandnumber, controlists) */\n      dup2\n      mstore\n      0x20\n      add\n        /* \"contracts/Working.sol\":900:911  controlists */\n      0x01\n        /* \"contracts/Working.sol\":868:912  Commidity(name, priceandnumber, controlists) */\n      mload(0x40)\n      dup1\n      0x40\n      add\n      0x40\n      mstore\n      swap1\n      dup2\n      0x00\n      dup3\n      add\n      dup1\n      sload\n      tag_141\n      swap1\n      tag_43\n      jump\t// in\n    tag_141:\n      dup1\n      0x1f\n      add\n      0x20\n      dup1\n      swap2\n      div\n      mul\n      0x20\n      add\n      mload(0x40)\n      swap1\n      dup2\n      add\n      0x40\n      mstore\n      dup1\n      swap3\n      swap2\n      swap1\n      dup2\n      dup2\n      mstore\n      0x20\n      add\n      dup3\n      dup1\n      sload\n      tag_142\n      swap1\n      tag_43\n      jump\t// in\n    tag_142:\n      dup1\n      iszero\n      tag_143\n      jumpi\n      dup1\n      0x1f\n      lt\n      tag_144\n      jumpi\n      0x0100\n      dup1\n      dup4\n      sload\n      div\n      mul\n      dup4\n      mstore\n      swap2\n      0x20\n      add\n      swap2\n      jump(tag_143)\n    tag_144:\n      dup3\n      add\n      swap2\n      swap1\n      0x00\n      mstore\n      keccak256(0x00, 0x20)\n      swap1\n    tag_145:\n      dup2\n      sload\n      dup2\n      mstore\n      swap1\n      0x01\n      add\n      swap1\n      0x20\n      add\n      dup1\n      dup4\n      gt\n      tag_145\n      jumpi\n      dup3\n      swap1\n      sub\n      0x1f\n      and\n      dup3\n      add\n      swap2\n    tag_143:\n      pop\n      pop\n      pop\n      pop\n      pop\n      dup2\n      mstore\n      0x20\n      add\n      0x01\n      dup3\n      add\n      dup1\n      sload\n      tag_146\n      swap1\n      tag_43\n      jump\t// in\n    tag_146:\n      dup1\n      0x1f\n      add\n      0x20\n      dup1\n      swap2\n      div\n      mul\n      0x20\n      add\n      mload(0x40)\n      swap1\n      dup2\n      add\n      0x40\n      mstore\n      dup1\n      swap3\n      swap2\n      swap1\n      dup2\n      dup2\n      mstore\n      0x20\n      add\n      dup3\n      dup1\n      sload\n      tag_147\n      swap1\n      tag_43\n      jump\t// in\n    tag_147:\n      dup1\n      iszero\n      tag_148\n      jumpi\n      dup1\n      0x1f\n      lt\n      tag_149\n      jumpi\n      0x0100\n      dup1\n      dup4\n      sload\n      div\n      mul\n      dup4\n      mstore\n      swap2\n      0x20\n      add\n      swap2\n      jump(tag_148)\n    tag_149:\n      dup3\n      add\n      swap2\n      swap1\n      0x00\n      mstore\n      keccak256(0x00, 0x20)\n      swap1\n    tag_150:\n      dup2\n      sload\n      dup2\n      mstore\n      swap1\n      0x01\n      add\n      swap1\n      0x20\n      add\n      dup1\n      dup4\n      gt\n      tag_150\n      jumpi\n      dup3\n      swap1\n      sub\n      0x1f\n      and\n      dup3\n      add\n      swap2\n    tag_148:\n      pop\n      pop\n      pop\n      swap2\n      swap1\n      swap3\n      mstore\n      pop\n      pop\n      pop\n      swap1\n      mstore\n        /* \"contracts/Working.sol\":852:913  commiditys.push(Commidity(name, priceandnumber, controlists)) */\n      dup2\n      sload\n      0x01\n      dup2\n      add\n      dup4\n      sstore\n      0x00\n      swap3\n      dup4\n      mstore\n      0x20\n      swap3\n      dup4\n      swap1\n      keccak256\n      dup3\n      mload\n      dup1\n      mload\n      swap4\n      swap5\n      0x04\n      swap1\n      swap4\n      mul\n      swap1\n      swap2\n      add\n      swap3\n      tag_152\n      swap3\n      dup5\n      swap3\n      add\n      swap1\n      tag_138\n      jump\t// in\n    tag_152:\n      pop\n      0x20\n      dup3\n      dup2\n      add\n      mload\n      dup1\n      mload\n      tag_153\n      swap3\n      0x01\n      dup6\n      add\n      swap3\n      add\n      swap1\n      tag_138\n      jump\t// in\n    tag_153:\n      pop\n      0x40\n      dup3\n      add\n      mload\n      dup1\n      mload\n      dup1\n      mload\n      0x02\n      dup5\n      add\n      swap2\n      tag_154\n      swap2\n      dup4\n      swap2\n      0x20\n      add\n      swap1\n      tag_138\n      jump\t// in\n    tag_154:\n      pop\n      0x20\n      dup3\n      dup2\n      add\n      mload\n      dup1\n      mload\n      tag_155\n      swap3\n      0x01\n      dup6\n      add\n      swap3\n      add\n      swap1\n      tag_138\n      jump\t// in\n    tag_155:\n      pop\n      pop\n      pop\n      pop\n      pop\n        /* \"contracts/Working.sol\":627:921  function set(\r... */\n      pop\n      pop\n      pop\n      pop\n      jump\t// out\n        /* \"contracts/Working.sol\":505:534  Commidity[] public commiditys */\n    tag_38:\n      0x00\n      dup2\n      dup2\n      sload\n      dup2\n      lt\n      tag_156\n      jumpi\n      0x00\n      dup1\n      revert\n    tag_156:\n      swap1\n      0x00\n      mstore\n      keccak256(0x00, 0x20)\n      swap1\n      0x04\n      mul\n      add\n      0x00\n      swap2\n      pop\n      swap1\n      pop\n      dup1\n      0x00\n      add\n      dup1\n      sload\n      tag_158\n      swap1\n      tag_43\n      jump\t// in\n    tag_158:\n      dup1\n      0x1f\n      add\n      0x20\n      dup1\n      swap2\n      div\n      mul\n      0x20\n      add\n      mload(0x40)\n      swap1\n      dup2\n      add\n      0x40\n      mstore\n      dup1\n      swap3\n      swap2\n      swap1\n      dup2\n      dup2\n      mstore\n      0x20\n      add\n      dup3\n      dup1\n      sload\n      tag_159\n      swap1\n      tag_43\n      jump\t// in\n    tag_159:\n      dup1\n      iszero\n      tag_160\n      jumpi\n      dup1\n      0x1f\n      lt\n      tag_161\n      jumpi\n      0x0100\n      dup1\n      dup4\n      sload\n      div\n      mul\n      dup4\n      mstore\n      swap2\n      0x20\n      add\n      swap2\n      jump(tag_160)\n    tag_161:\n      dup3\n      add\n      swap2\n      swap1\n      0x00\n      mstore\n      keccak256(0x00, 0x20)\n      swap1\n    tag_162:\n      dup2\n      sload\n      dup2\n      mstore\n      swap1\n      0x01\n      add\n      swap1\n      0x20\n      add\n      dup1\n      dup4\n      gt\n      tag_162\n      jumpi\n      dup3\n      swap1\n      sub\n      0x1f\n      and\n      dup3\n      add\n      swap2\n    tag_160:\n      pop\n      pop\n      pop\n      pop\n      pop\n      swap1\n      dup1\n      0x01\n      add\n      dup1\n      sload\n      tag_163\n      swap1\n      tag_43\n      jump\t// in\n    tag_163:\n      dup1\n      0x1f\n      add\n      0x20\n      dup1\n      swap2\n      div\n      mul\n      0x20\n      add\n      mload(0x40)\n      swap1\n      dup2\n      add\n      0x40\n      mstore\n      dup1\n      swap3\n      swap2\n      swap1\n      dup2\n      dup2\n      mstore\n      0x20\n      add\n      dup3\n      dup1\n      sload\n      tag_164\n      swap1\n      tag_43\n      jump\t// in\n    tag_164:\n      dup1\n      iszero\n      tag_165\n      jumpi\n      dup1\n      0x1f\n      lt\n      tag_166\n      jumpi\n      0x0100\n      dup1\n      dup4\n      sload\n      div\n      mul\n      dup4\n      mstore\n      swap2\n      0x20\n      add\n      swap2\n      jump(tag_165)\n    tag_166:\n      dup3\n      add\n      swap2\n      swap1\n      0x00\n      mstore\n      keccak256(0x00, 0x20)\n      swap1\n    tag_167:\n      dup2\n      sload\n      dup2\n      mstore\n      swap1\n      0x01\n      add\n      swap1\n      0x20\n      add\n      dup1\n      dup4\n      gt\n      tag_167\n      jumpi\n      dup3\n      swap1\n      sub\n      0x1f\n      and\n      dup3\n      add\n      swap2\n    tag_165:\n      pop\n      pop\n      pop\n      pop\n      pop\n      swap1\n      dup1\n      0x02\n      add\n      mload(0x40)\n      dup1\n      0x40\n      add\n      0x40\n      mstore\n      swap1\n      dup2\n      0x00\n      dup3\n      add\n      dup1\n      sload\n      tag_168\n      swap1\n      tag_43\n      jump\t// in\n    tag_168:\n      dup1\n      0x1f\n      add\n      0x20\n      dup1\n      swap2\n      div\n      mul\n      0x20\n      add\n      mload(0x40)\n      swap1\n      dup2\n      add\n      0x40\n      mstore\n      dup1\n      swap3\n      swap2\n      swap1\n      dup2\n      dup2\n      mstore\n      0x20\n      add\n      dup3\n      dup1\n      sload\n      tag_169\n      swap1\n      tag_43\n      jump\t// in\n    tag_169:\n      dup1\n      iszero\n      tag_170\n      jumpi\n      dup1\n      0x1f\n      lt\n      tag_171\n      jumpi\n      0x0100\n      dup1\n      dup4\n      sload\n      div\n      mul\n      dup4\n      mstore\n      swap2\n      0x20\n      add\n      swap2\n      jump(tag_170)\n    tag_171:\n      dup3\n      add\n      swap2\n      swap1\n      0x00\n      mstore\n      keccak256(0x00, 0x20)\n      swap1\n    tag_172:\n      dup2\n      sload\n      dup2\n      mstore\n      swap1\n      0x01\n      add\n      swap1\n      0x20\n      add\n      dup1\n      dup4\n      gt\n      tag_172\n      jumpi\n      dup3\n      swap1\n      sub\n      0x1f\n      and\n      dup3\n      add\n      swap2\n    tag_170:\n      pop\n      pop\n      pop\n      pop\n      pop\n      dup2\n      mstore\n      0x20\n      add\n      0x01\n      dup3\n      add\n      dup1\n      sload\n      tag_173\n      swap1\n      tag_43\n      jump\t// in\n    tag_173:\n      dup1\n      0x1f\n      add\n      0x20\n      dup1\n      swap2\n      div\n      mul\n      0x20\n      add\n      mload(0x40)\n      swap1\n      dup2\n      add\n      0x40\n      mstore\n      dup1\n      swap3\n      swap2\n      swap1\n      dup2\n      dup2\n      mstore\n      0x20\n      add\n      dup3\n      dup1\n      sload\n      tag_174\n      swap1\n      tag_43\n      jump\t// in\n    tag_174:\n      dup1\n      iszero\n      tag_175\n      jumpi\n      dup1\n      0x1f\n      lt\n      tag_176\n      jumpi\n      0x0100\n      dup1\n      dup4\n      sload\n      div\n      mul\n      dup4\n      mstore\n      swap2\n      0x20\n      add\n      swap2\n      jump(tag_175)\n    tag_176:\n      dup3\n      add\n      swap2\n      swap1\n      0x00\n      mstore\n      keccak256(0x00, 0x20)\n      swap1\n    tag_177:\n      dup2\n      sload\n      dup2\n      mstore\n      swap1\n      0x01\n      add\n      swap1\n      0x20\n      add\n      dup1\n      dup4\n      gt\n      tag_177\n      jumpi\n      dup3\n      swap1\n      sub\n      0x1f\n      and\n      dup3\n      add\n      swap2\n    tag_175:\n      pop\n      pop\n      pop\n      pop\n      pop\n      dup2\n      mstore\n      pop\n      pop\n      swap1\n      pop\n      dup4\n      jump\t// out\n    tag_55:\n      pop\n      dup1\n      sload\n      0x00\n      dup3\n      sstore\n      0x04\n      mul\n      swap1\n      0x00\n      mstore\n      keccak256(0x00, 0x20)\n      swap1\n      dup2\n      add\n      swap1\n      tag_179\n      swap2\n      swap1\n      tag_180\n      jump\t// in\n    tag_179:\n      pop\n      jump\t// out\n    tag_138:\n      dup3\n      dup1\n      sload\n      tag_181\n      swap1\n      tag_43\n      jump\t// in\n    tag_181:\n      swap1\n      0x00\n      mstore\n      keccak256(0x00, 0x20)\n      swap1\n      0x1f\n      add\n      0x20\n      swap1\n      div\n      dup2\n      add\n      swap3\n      dup3\n      tag_183\n      jumpi\n      0x00\n      dup6\n      sstore\n      jump(tag_186)\n    tag_183:\n      dup3\n      0x1f\n      lt\n      tag_184\n      jumpi\n      dup1\n      mload\n      not(0xff)\n      and\n      dup4\n      dup1\n      add\n      or\n      dup6\n      sstore\n      jump(tag_186)\n    tag_184:\n      dup3\n      dup1\n      add\n      0x01\n      add\n      dup6\n      sstore\n      dup3\n      iszero\n      tag_186\n      jumpi\n      swap2\n      dup3\n      add\n    tag_185:\n      dup3\n      dup2\n      gt\n      iszero\n      tag_186\n      jumpi\n      dup3\n      mload\n      dup3\n      sstore\n      swap2\n      0x20\n      add\n      swap2\n      swap1\n      0x01\n      add\n      swap1\n      jump(tag_185)\n    tag_186:\n      pop\n      tag_187\n      swap3\n      swap2\n      pop\n      tag_188\n      jump\t// in\n    tag_187:\n      pop\n      swap1\n      jump\t// out\n    tag_180:\n      dup1\n      dup3\n      gt\n      iszero\n      tag_187\n      jumpi\n      0x00\n      tag_198\n      dup3\n      dup3\n      tag_199\n      jump\t// in\n    tag_198:\n      tag_200\n      0x01\n      dup4\n      add\n      0x00\n      tag_199\n      jump\t// in\n    tag_200:\n      0x02\n      dup3\n      add\n      0x00\n      tag_201\n      dup3\n      dup3\n      tag_199\n      jump\t// in\n    tag_201:\n      tag_203\n      0x01\n      dup4\n      add\n      0x00\n      tag_199\n      jump\t// in\n    tag_203:\n      pop\n      pop\n      pop\n      0x04\n      add\n      jump(tag_180)\n    tag_188:\n    tag_204:\n      dup1\n      dup3\n      gt\n      iszero\n      tag_187\n      jumpi\n      0x00\n      dup2\n      sstore\n      0x01\n      add\n      jump(tag_204)\n    tag_199:\n      pop\n      dup1\n      sload\n      tag_206\n      swap1\n      tag_43\n      jump\t// in\n    tag_206:\n      0x00\n      dup3\n      sstore\n      dup1\n      0x1f\n      lt\n      tag_208\n      jumpi\n      pop\n      pop\n      jump\t// out\n    tag_208:\n      0x1f\n      add\n      0x20\n      swap1\n      div\n      swap1\n      0x00\n      mstore\n      keccak256(0x00, 0x20)\n      swap1\n      dup2\n      add\n      swap1\n      tag_179\n      swap2\n      swap1\n      tag_188\n      jump\t// in\n        /* \"#utility.yul\":14:732   */\n    tag_215:\n        /* \"#utility.yul\":56:61   */\n      0x00\n        /* \"#utility.yul\":109:112   */\n      dup3\n        /* \"#utility.yul\":102:106   */\n      0x1f\n        /* \"#utility.yul\":94:100   */\n      dup4\n        /* \"#utility.yul\":90:107   */\n      add\n        /* \"#utility.yul\":86:113   */\n      slt\n        /* \"#utility.yul\":76:131   */\n      tag_217\n      jumpi\n        /* \"#utility.yul\":127:128   */\n      0x00\n        /* \"#utility.yul\":124:125   */\n      dup1\n        /* \"#utility.yul\":117:129   */\n      revert\n        /* \"#utility.yul\":76:131   */\n    tag_217:\n        /* \"#utility.yul\":163:169   */\n      dup2\n        /* \"#utility.yul\":150:170   */\n      calldataload\n        /* \"#utility.yul\":189:207   */\n      0xffffffffffffffff\n        /* \"#utility.yul\":226:228   */\n      dup1\n        /* \"#utility.yul\":222:224   */\n      dup3\n        /* \"#utility.yul\":219:229   */\n      gt\n        /* \"#utility.yul\":216:252   */\n      iszero\n      tag_219\n      jumpi\n        /* \"#utility.yul\":232:250   */\n      tag_219\n      tag_220\n      jump\t// in\n    tag_219:\n        /* \"#utility.yul\":307:309   */\n      0x40\n        /* \"#utility.yul\":301:310   */\n      mload\n        /* \"#utility.yul\":275:277   */\n      0x1f\n        /* \"#utility.yul\":361:374   */\n      dup4\n      add\n      not(0x1f)\n        /* \"#utility.yul\":357:379   */\n      swap1\n      dup2\n      and\n        /* \"#utility.yul\":381:383   */\n      0x3f\n        /* \"#utility.yul\":353:384   */\n      add\n        /* \"#utility.yul\":349:389   */\n      and\n        /* \"#utility.yul\":337:390   */\n      dup2\n      add\n      swap1\n        /* \"#utility.yul\":405:423   */\n      dup3\n      dup3\n      gt\n        /* \"#utility.yul\":425:447   */\n      dup2\n      dup4\n      lt\n        /* \"#utility.yul\":402:448   */\n      or\n        /* \"#utility.yul\":399:471   */\n      iszero\n      tag_222\n      jumpi\n        /* \"#utility.yul\":451:469   */\n      tag_222\n      tag_220\n      jump\t// in\n    tag_222:\n        /* \"#utility.yul\":491:501   */\n      dup2\n        /* \"#utility.yul\":487:489   */\n      0x40\n        /* \"#utility.yul\":480:502   */\n      mstore\n        /* \"#utility.yul\":526:528   */\n      dup4\n        /* \"#utility.yul\":518:524   */\n      dup2\n        /* \"#utility.yul\":511:529   */\n      mstore\n        /* \"#utility.yul\":572:575   */\n      dup7\n        /* \"#utility.yul\":565:569   */\n      0x20\n        /* \"#utility.yul\":560:562   */\n      dup6\n        /* \"#utility.yul\":552:558   */\n      dup9\n        /* \"#utility.yul\":548:563   */\n      add\n        /* \"#utility.yul\":544:570   */\n      add\n        /* \"#utility.yul\":541:576   */\n      gt\n        /* \"#utility.yul\":538:593   */\n      iszero\n      tag_223\n      jumpi\n        /* \"#utility.yul\":589:590   */\n      0x00\n        /* \"#utility.yul\":586:587   */\n      dup1\n        /* \"#utility.yul\":579:591   */\n      revert\n        /* \"#utility.yul\":538:593   */\n    tag_223:\n        /* \"#utility.yul\":653:655   */\n      dup4\n        /* \"#utility.yul\":646:650   */\n      0x20\n        /* \"#utility.yul\":638:644   */\n      dup8\n        /* \"#utility.yul\":634:651   */\n      add\n        /* \"#utility.yul\":627:631   */\n      0x20\n        /* \"#utility.yul\":619:625   */\n      dup4\n        /* \"#utility.yul\":615:632   */\n      add\n        /* \"#utility.yul\":602:656   */\n      calldatacopy\n        /* \"#utility.yul\":700:701   */\n      0x00\n        /* \"#utility.yul\":693:697   */\n      0x20\n        /* \"#utility.yul\":688:690   */\n      dup6\n        /* \"#utility.yul\":680:686   */\n      dup4\n        /* \"#utility.yul\":676:691   */\n      add\n        /* \"#utility.yul\":672:698   */\n      add\n        /* \"#utility.yul\":665:702   */\n      mstore\n        /* \"#utility.yul\":720:726   */\n      dup1\n        /* \"#utility.yul\":711:726   */\n      swap5\n      pop\n      pop\n      pop\n      pop\n      pop\n        /* \"#utility.yul\":14:732   */\n      swap3\n      swap2\n      pop\n      pop\n      jump\t// out\n        /* \"#utility.yul\":737:1674   */\n    tag_34:\n        /* \"#utility.yul\":860:866   */\n      0x00\n        /* \"#utility.yul\":868:874   */\n      dup1\n        /* \"#utility.yul\":876:882   */\n      0x00\n        /* \"#utility.yul\":884:890   */\n      dup1\n        /* \"#utility.yul\":937:940   */\n      0x80\n        /* \"#utility.yul\":925:934   */\n      dup6\n        /* \"#utility.yul\":916:923   */\n      dup8\n        /* \"#utility.yul\":912:935   */\n      sub\n        /* \"#utility.yul\":908:941   */\n      slt\n        /* \"#utility.yul\":905:958   */\n      iszero\n      tag_225\n      jumpi\n        /* \"#utility.yul\":954:955   */\n      0x00\n        /* \"#utility.yul\":951:952   */\n      dup1\n        /* \"#utility.yul\":944:956   */\n      revert\n        /* \"#utility.yul\":905:958   */\n    tag_225:\n        /* \"#utility.yul\":994:1003   */\n      dup5\n        /* \"#utility.yul\":981:1004   */\n      calldataload\n        /* \"#utility.yul\":1023:1041   */\n      0xffffffffffffffff\n        /* \"#utility.yul\":1064:1066   */\n      dup1\n        /* \"#utility.yul\":1056:1062   */\n      dup3\n        /* \"#utility.yul\":1053:1067   */\n      gt\n        /* \"#utility.yul\":1050:1084   */\n      iszero\n      tag_226\n      jumpi\n        /* \"#utility.yul\":1080:1081   */\n      0x00\n        /* \"#utility.yul\":1077:1078   */\n      dup1\n        /* \"#utility.yul\":1070:1082   */\n      revert\n        /* \"#utility.yul\":1050:1084   */\n    tag_226:\n        /* \"#utility.yul\":1103:1152   */\n      tag_227\n        /* \"#utility.yul\":1144:1151   */\n      dup9\n        /* \"#utility.yul\":1135:1141   */\n      dup4\n        /* \"#utility.yul\":1124:1133   */\n      dup10\n        /* \"#utility.yul\":1120:1142   */\n      add\n        /* \"#utility.yul\":1103:1152   */\n      tag_215\n      jump\t// in\n    tag_227:\n        /* \"#utility.yul\":1093:1152   */\n      swap6\n      pop\n        /* \"#utility.yul\":1205:1207   */\n      0x20\n        /* \"#utility.yul\":1194:1203   */\n      dup8\n        /* \"#utility.yul\":1190:1208   */\n      add\n        /* \"#utility.yul\":1177:1209   */\n      calldataload\n        /* \"#utility.yul\":1161:1209   */\n      swap2\n      pop\n        /* \"#utility.yul\":1234:1236   */\n      dup1\n        /* \"#utility.yul\":1224:1232   */\n      dup3\n        /* \"#utility.yul\":1221:1237   */\n      gt\n        /* \"#utility.yul\":1218:1254   */\n      iszero\n      tag_228\n      jumpi\n        /* \"#utility.yul\":1250:1251   */\n      0x00\n        /* \"#utility.yul\":1247:1248   */\n      dup1\n        /* \"#utility.yul\":1240:1252   */\n      revert\n        /* \"#utility.yul\":1218:1254   */\n    tag_228:\n        /* \"#utility.yul\":1273:1324   */\n      tag_229\n        /* \"#utility.yul\":1316:1323   */\n      dup9\n        /* \"#utility.yul\":1305:1313   */\n      dup4\n        /* \"#utility.yul\":1294:1303   */\n      dup10\n        /* \"#utility.yul\":1290:1314   */\n      add\n        /* \"#utility.yul\":1273:1324   */\n      tag_215\n      jump\t// in\n    tag_229:\n        /* \"#utility.yul\":1263:1324   */\n      swap5\n      pop\n        /* \"#utility.yul\":1377:1379   */\n      0x40\n        /* \"#utility.yul\":1366:1375   */\n      dup8\n        /* \"#utility.yul\":1362:1380   */\n      add\n        /* \"#utility.yul\":1349:1381   */\n      calldataload\n        /* \"#utility.yul\":1333:1381   */\n      swap2\n      pop\n        /* \"#utility.yul\":1406:1408   */\n      dup1\n        /* \"#utility.yul\":1396:1404   */\n      dup3\n        /* \"#utility.yul\":1393:1409   */\n      gt\n        /* \"#utility.yul\":1390:1426   */\n      iszero\n      tag_230\n      jumpi\n        /* \"#utility.yul\":1422:1423   */\n      0x00\n        /* \"#utility.yul\":1419:1420   */\n      dup1\n        /* \"#utility.yul\":1412:1424   */\n      revert\n        /* \"#utility.yul\":1390:1426   */\n    tag_230:\n        /* \"#utility.yul\":1445:1496   */\n      tag_231\n        /* \"#utility.yul\":1488:1495   */\n      dup9\n        /* \"#utility.yul\":1477:1485   */\n      dup4\n        /* \"#utility.yul\":1466:1475   */\n      dup10\n        /* \"#utility.yul\":1462:1486   */\n      add\n        /* \"#utility.yul\":1445:1496   */\n      tag_215\n      jump\t// in\n    tag_231:\n        /* \"#utility.yul\":1435:1496   */\n      swap4\n      pop\n        /* \"#utility.yul\":1549:1551   */\n      0x60\n        /* \"#utility.yul\":1538:1547   */\n      dup8\n        /* \"#utility.yul\":1534:1552   */\n      add\n        /* \"#utility.yul\":1521:1553   */\n      calldataload\n        /* \"#utility.yul\":1505:1553   */\n      swap2\n      pop\n        /* \"#utility.yul\":1578:1580   */\n      dup1\n        /* \"#utility.yul\":1568:1576   */\n      dup3\n        /* \"#utility.yul\":1565:1581   */\n      gt\n        /* \"#utility.yul\":1562:1598   */\n      iszero\n      tag_232\n      jumpi\n        /* \"#utility.yul\":1594:1595   */\n      0x00\n        /* \"#utility.yul\":1591:1592   */\n      dup1\n        /* \"#utility.yul\":1584:1596   */\n      revert\n        /* \"#utility.yul\":1562:1598   */\n    tag_232:\n      pop\n        /* \"#utility.yul\":1617:1668   */\n      tag_233\n        /* \"#utility.yul\":1660:1667   */\n      dup8\n        /* \"#utility.yul\":1649:1657   */\n      dup3\n        /* \"#utility.yul\":1638:1647   */\n      dup9\n        /* \"#utility.yul\":1634:1658   */\n      add\n        /* \"#utility.yul\":1617:1668   */\n      tag_215\n      jump\t// in\n    tag_233:\n        /* \"#utility.yul\":1607:1668   */\n      swap2\n      pop\n      pop\n        /* \"#utility.yul\":737:1674   */\n      swap3\n      swap6\n      swap2\n      swap5\n      pop\n      swap3\n      pop\n      jump\t// out\n        /* \"#utility.yul\":1679:2000   */\n    tag_23:\n        /* \"#utility.yul\":1748:1754   */\n      0x00\n        /* \"#utility.yul\":1801:1803   */\n      0x20\n        /* \"#utility.yul\":1789:1798   */\n      dup3\n        /* \"#utility.yul\":1780:1787   */\n      dup5\n        /* \"#utility.yul\":1776:1799   */\n      sub\n        /* \"#utility.yul\":1772:1804   */\n      slt\n        /* \"#utility.yul\":1769:1821   */\n      iszero\n      tag_235\n      jumpi\n        /* \"#utility.yul\":1817:1818   */\n      0x00\n        /* \"#utility.yul\":1814:1815   */\n      dup1\n        /* \"#utility.yul\":1807:1819   */\n      revert\n        /* \"#utility.yul\":1769:1821   */\n    tag_235:\n        /* \"#utility.yul\":1857:1866   */\n      dup2\n        /* \"#utility.yul\":1844:1867   */\n      calldataload\n        /* \"#utility.yul\":1890:1908   */\n      0xffffffffffffffff\n        /* \"#utility.yul\":1882:1888   */\n      dup2\n        /* \"#utility.yul\":1879:1909   */\n      gt\n        /* \"#utility.yul\":1876:1926   */\n      iszero\n      tag_236\n      jumpi\n        /* \"#utility.yul\":1922:1923   */\n      0x00\n        /* \"#utility.yul\":1919:1920   */\n      dup1\n        /* \"#utility.yul\":1912:1924   */\n      revert\n        /* \"#utility.yul\":1876:1926   */\n    tag_236:\n        /* \"#utility.yul\":1945:1994   */\n      tag_237\n        /* \"#utility.yul\":1986:1993   */\n      dup5\n        /* \"#utility.yul\":1977:1983   */\n      dup3\n        /* \"#utility.yul\":1966:1975   */\n      dup6\n        /* \"#utility.yul\":1962:1984   */\n      add\n        /* \"#utility.yul\":1945:1994   */\n      tag_215\n      jump\t// in\n    tag_237:\n        /* \"#utility.yul\":1935:1994   */\n      swap5\n        /* \"#utility.yul\":1679:2000   */\n      swap4\n      pop\n      pop\n      pop\n      pop\n      jump\t// out\n        /* \"#utility.yul\":2005:2185   */\n    tag_29:\n        /* \"#utility.yul\":2064:2070   */\n      0x00\n        /* \"#utility.yul\":2117:2119   */\n      0x20\n        /* \"#utility.yul\":2105:2114   */\n      dup3\n        /* \"#utility.yul\":2096:2103   */\n      dup5\n        /* \"#utility.yul\":2092:2115   */\n      sub\n        /* \"#utility.yul\":2088:2120   */\n      slt\n        /* \"#utility.yul\":2085:2137   */\n      iszero\n      tag_239\n      jumpi\n        /* \"#utility.yul\":2133:2134   */\n      0x00\n        /* \"#utility.yul\":2130:2131   */\n      dup1\n        /* \"#utility.yul\":2123:2135   */\n      revert\n        /* \"#utility.yul\":2085:2137   */\n    tag_239:\n      pop\n        /* \"#utility.yul\":2156:2179   */\n      calldataload\n      swap2\n        /* \"#utility.yul\":2005:2185   */\n      swap1\n      pop\n      jump\t// out\n        /* \"#utility.yul\":2190:2661   */\n    tag_240:\n        /* \"#utility.yul\":2231:2234   */\n      0x00\n        /* \"#utility.yul\":2269:2274   */\n      dup2\n        /* \"#utility.yul\":2263:2275   */\n      mload\n        /* \"#utility.yul\":2296:2302   */\n      dup1\n        /* \"#utility.yul\":2291:2294   */\n      dup5\n        /* \"#utility.yul\":2284:2303   */\n      mstore\n        /* \"#utility.yul\":2321:2322   */\n      0x00\n        /* \"#utility.yul\":2331:2493   */\n    tag_242:\n        /* \"#utility.yul\":2345:2351   */\n      dup2\n        /* \"#utility.yul\":2342:2343   */\n      dup2\n        /* \"#utility.yul\":2339:2352   */\n      lt\n        /* \"#utility.yul\":2331:2493   */\n      iszero\n      tag_244\n      jumpi\n        /* \"#utility.yul\":2407:2411   */\n      0x20\n        /* \"#utility.yul\":2463:2476   */\n      dup2\n      dup6\n      add\n        /* \"#utility.yul\":2459:2481   */\n      dup2\n      add\n        /* \"#utility.yul\":2453:2482   */\n      mload\n        /* \"#utility.yul\":2435:2446   */\n      dup7\n      dup4\n      add\n        /* \"#utility.yul\":2431:2451   */\n      dup3\n      add\n        /* \"#utility.yul\":2424:2483   */\n      mstore\n        /* \"#utility.yul\":2360:2372   */\n      add\n        /* \"#utility.yul\":2331:2493   */\n      jump(tag_242)\n    tag_244:\n        /* \"#utility.yul\":2511:2517   */\n      dup2\n        /* \"#utility.yul\":2508:2509   */\n      dup2\n        /* \"#utility.yul\":2505:2518   */\n      gt\n        /* \"#utility.yul\":2502:2589   */\n      iszero\n      tag_245\n      jumpi\n        /* \"#utility.yul\":2577:2578   */\n      0x00\n        /* \"#utility.yul\":2570:2574   */\n      0x20\n        /* \"#utility.yul\":2561:2567   */\n      dup4\n        /* \"#utility.yul\":2556:2559   */\n      dup8\n        /* \"#utility.yul\":2552:2568   */\n      add\n        /* \"#utility.yul\":2548:2575   */\n      add\n        /* \"#utility.yul\":2541:2579   */\n      mstore\n        /* \"#utility.yul\":2502:2589   */\n    tag_245:\n      pop\n        /* \"#utility.yul\":2643:2645   */\n      0x1f\n        /* \"#utility.yul\":2622:2637   */\n      add\n      not(0x1f)\n        /* \"#utility.yul\":2618:2647   */\n      and\n        /* \"#utility.yul\":2609:2648   */\n      swap3\n      swap1\n      swap3\n      add\n        /* \"#utility.yul\":2650:2654   */\n      0x20\n        /* \"#utility.yul\":2605:2655   */\n      add\n      swap3\n        /* \"#utility.yul\":2190:2661   */\n      swap2\n      pop\n      pop\n      jump\t// out\n        /* \"#utility.yul\":2666:3367   */\n    tag_26:\n        /* \"#utility.yul\":2953:2956   */\n      0x80\n        /* \"#utility.yul\":2942:2951   */\n      dup2\n        /* \"#utility.yul\":2935:2957   */\n      mstore\n        /* \"#utility.yul\":2916:2920   */\n      0x00\n        /* \"#utility.yul\":2980:3025   */\n      tag_247\n        /* \"#utility.yul\":3020:3023   */\n      0x80\n        /* \"#utility.yul\":3009:3018   */\n      dup4\n        /* \"#utility.yul\":3005:3024   */\n      add\n        /* \"#utility.yul\":2997:3003   */\n      dup8\n        /* \"#utility.yul\":2980:3025   */\n      tag_240\n      jump\t// in\n    tag_247:\n        /* \"#utility.yul\":3073:3082   */\n      dup3\n        /* \"#utility.yul\":3065:3071   */\n      dup2\n        /* \"#utility.yul\":3061:3083   */\n      sub\n        /* \"#utility.yul\":3056:3058   */\n      0x20\n        /* \"#utility.yul\":3045:3054   */\n      dup5\n        /* \"#utility.yul\":3041:3059   */\n      add\n        /* \"#utility.yul\":3034:3084   */\n      mstore\n        /* \"#utility.yul\":3107:3139   */\n      tag_248\n        /* \"#utility.yul\":3132:3138   */\n      dup2\n        /* \"#utility.yul\":3124:3130   */\n      dup8\n        /* \"#utility.yul\":3107:3139   */\n      tag_240\n      jump\t// in\n    tag_248:\n        /* \"#utility.yul\":3093:3139   */\n      swap1\n      pop\n        /* \"#utility.yul\":3187:3196   */\n      dup3\n        /* \"#utility.yul\":3179:3185   */\n      dup2\n        /* \"#utility.yul\":3175:3197   */\n      sub\n        /* \"#utility.yul\":3170:3172   */\n      0x40\n        /* \"#utility.yul\":3159:3168   */\n      dup5\n        /* \"#utility.yul\":3155:3173   */\n      add\n        /* \"#utility.yul\":3148:3198   */\n      mstore\n        /* \"#utility.yul\":3221:3253   */\n      tag_249\n        /* \"#utility.yul\":3246:3252   */\n      dup2\n        /* \"#utility.yul\":3238:3244   */\n      dup7\n        /* \"#utility.yul\":3221:3253   */\n      tag_240\n      jump\t// in\n    tag_249:\n        /* \"#utility.yul\":3207:3253   */\n      swap1\n      pop\n        /* \"#utility.yul\":3301:3310   */\n      dup3\n        /* \"#utility.yul\":3293:3299   */\n      dup2\n        /* \"#utility.yul\":3289:3311   */\n      sub\n        /* \"#utility.yul\":3284:3286   */\n      0x60\n        /* \"#utility.yul\":3273:3282   */\n      dup5\n        /* \"#utility.yul\":3269:3287   */\n      add\n        /* \"#utility.yul\":3262:3312   */\n      mstore\n        /* \"#utility.yul\":3329:3361   */\n      tag_250\n        /* \"#utility.yul\":3354:3360   */\n      dup2\n        /* \"#utility.yul\":3346:3352   */\n      dup6\n        /* \"#utility.yul\":3329:3361   */\n      tag_240\n      jump\t// in\n    tag_250:\n        /* \"#utility.yul\":3321:3361   */\n      swap8\n        /* \"#utility.yul\":2666:3367   */\n      swap7\n      pop\n      pop\n      pop\n      pop\n      pop\n      pop\n      pop\n      jump\t// out\n        /* \"#utility.yul\":3372:4194   */\n    tag_40:\n        /* \"#utility.yul\":3643:3645   */\n      0x60\n        /* \"#utility.yul\":3632:3641   */\n      dup2\n        /* \"#utility.yul\":3625:3646   */\n      mstore\n        /* \"#utility.yul\":3606:3610   */\n      0x00\n        /* \"#utility.yul\":3669:3713   */\n      tag_252\n        /* \"#utility.yul\":3709:3711   */\n      0x60\n        /* \"#utility.yul\":3698:3707   */\n      dup4\n        /* \"#utility.yul\":3694:3712   */\n      add\n        /* \"#utility.yul\":3686:3692   */\n      dup7\n        /* \"#utility.yul\":3669:3713   */\n      tag_240\n      jump\t// in\n    tag_252:\n        /* \"#utility.yul\":3761:3770   */\n      dup3\n        /* \"#utility.yul\":3753:3759   */\n      dup2\n        /* \"#utility.yul\":3749:3771   */\n      sub\n        /* \"#utility.yul\":3744:3746   */\n      0x20\n        /* \"#utility.yul\":3733:3742   */\n      dup5\n        /* \"#utility.yul\":3729:3747   */\n      add\n        /* \"#utility.yul\":3722:3772   */\n      mstore\n        /* \"#utility.yul\":3795:3827   */\n      tag_253\n        /* \"#utility.yul\":3820:3826   */\n      dup2\n        /* \"#utility.yul\":3812:3818   */\n      dup7\n        /* \"#utility.yul\":3795:3827   */\n      tag_240\n      jump\t// in\n    tag_253:\n        /* \"#utility.yul\":3781:3827   */\n      swap1\n      pop\n        /* \"#utility.yul\":3875:3884   */\n      dup3\n        /* \"#utility.yul\":3867:3873   */\n      dup2\n        /* \"#utility.yul\":3863:3885   */\n      sub\n        /* \"#utility.yul\":3858:3860   */\n      0x40\n        /* \"#utility.yul\":3847:3856   */\n      dup5\n        /* \"#utility.yul\":3843:3861   */\n      add\n        /* \"#utility.yul\":3836:3886   */\n      mstore\n        /* \"#utility.yul\":3921:3927   */\n      dup4\n        /* \"#utility.yul\":3915:3928   */\n      mload\n        /* \"#utility.yul\":3952:3954   */\n      0x40\n        /* \"#utility.yul\":3944:3950   */\n      dup3\n        /* \"#utility.yul\":3937:3955   */\n      mstore\n        /* \"#utility.yul\":3978:4025   */\n      tag_254\n        /* \"#utility.yul\":4021:4023   */\n      0x40\n        /* \"#utility.yul\":4013:4019   */\n      dup4\n        /* \"#utility.yul\":4009:4024   */\n      add\n        /* \"#utility.yul\":3995:4007   */\n      dup3\n        /* \"#utility.yul\":3978:4025   */\n      tag_240\n      jump\t// in\n    tag_254:\n        /* \"#utility.yul\":3964:4025   */\n      swap1\n      pop\n        /* \"#utility.yul\":4074:4076   */\n      0x20\n        /* \"#utility.yul\":4066:4072   */\n      dup6\n        /* \"#utility.yul\":4062:4077   */\n      add\n        /* \"#utility.yul\":4056:4078   */\n      mload\n        /* \"#utility.yul\":4123:4129   */\n      dup3\n        /* \"#utility.yul\":4115:4121   */\n      dup3\n        /* \"#utility.yul\":4111:4130   */\n      sub\n        /* \"#utility.yul\":4106:4108   */\n      0x20\n        /* \"#utility.yul\":4098:4104   */\n      dup5\n        /* \"#utility.yul\":4094:4109   */\n      add\n        /* \"#utility.yul\":4087:4131   */\n      mstore\n        /* \"#utility.yul\":4148:4188   */\n      tag_255\n        /* \"#utility.yul\":4181:4187   */\n      dup3\n        /* \"#utility.yul\":4165:4179   */\n      dup3\n        /* \"#utility.yul\":4148:4188   */\n      tag_240\n      jump\t// in\n    tag_255:\n        /* \"#utility.yul\":4140:4188   */\n      swap9\n        /* \"#utility.yul\":3372:4194   */\n      swap8\n      pop\n      pop\n      pop\n      pop\n      pop\n      pop\n      pop\n      pop\n      jump\t// out\n        /* \"#utility.yul\":4199:4418   */\n    tag_61:\n        /* \"#utility.yul\":4348:4350   */\n      0x20\n        /* \"#utility.yul\":4337:4346   */\n      dup2\n        /* \"#utility.yul\":4330:4351   */\n      mstore\n        /* \"#utility.yul\":4311:4315   */\n      0x00\n        /* \"#utility.yul\":4368:4412   */\n      tag_257\n        /* \"#utility.yul\":4408:4410   */\n      0x20\n        /* \"#utility.yul\":4397:4406   */\n      dup4\n        /* \"#utility.yul\":4393:4411   */\n      add\n        /* \"#utility.yul\":4385:4391   */\n      dup5\n        /* \"#utility.yul\":4368:4412   */\n      tag_240\n      jump\t// in\n    tag_257:\n        /* \"#utility.yul\":4360:4412   */\n      swap4\n        /* \"#utility.yul\":4199:4418   */\n      swap3\n      pop\n      pop\n      pop\n      jump\t// out\n        /* \"#utility.yul\":4423:4802   */\n    tag_18:\n        /* \"#utility.yul\":4618:4620   */\n      0x40\n        /* \"#utility.yul\":4607:4616   */\n      dup2\n        /* \"#utility.yul\":4600:4621   */\n      mstore\n        /* \"#utility.yul\":4581:4585   */\n      0x00\n        /* \"#utility.yul\":4644:4688   */\n      tag_259\n        /* \"#utility.yul\":4684:4686   */\n      0x40\n        /* \"#utility.yul\":4673:4682   */\n      dup4\n        /* \"#utility.yul\":4669:4687   */\n      add\n        /* \"#utility.yul\":4661:4667   */\n      dup6\n        /* \"#utility.yul\":4644:4688   */\n      tag_240\n      jump\t// in\n    tag_259:\n        /* \"#utility.yul\":4736:4745   */\n      dup3\n        /* \"#utility.yul\":4728:4734   */\n      dup2\n        /* \"#utility.yul\":4724:4746   */\n      sub\n        /* \"#utility.yul\":4719:4721   */\n      0x20\n        /* \"#utility.yul\":4708:4717   */\n      dup5\n        /* \"#utility.yul\":4704:4722   */\n      add\n        /* \"#utility.yul\":4697:4747   */\n      mstore\n        /* \"#utility.yul\":4764:4796   */\n      tag_260\n        /* \"#utility.yul\":4789:4795   */\n      dup2\n        /* \"#utility.yul\":4781:4787   */\n      dup6\n        /* \"#utility.yul\":4764:4796   */\n      tag_240\n      jump\t// in\n    tag_260:\n        /* \"#utility.yul\":4756:4796   */\n      swap6\n        /* \"#utility.yul\":4423:4802   */\n      swap5\n      pop\n      pop\n      pop\n      pop\n      pop\n      jump\t// out\n        /* \"#utility.yul\":4807:5992   */\n    tag_67:\n        /* \"#utility.yul\":4916:4920   */\n      0x00\n        /* \"#utility.yul\":4945:4947   */\n      0x20\n        /* \"#utility.yul\":4974:4976   */\n      dup1\n        /* \"#utility.yul\":4963:4972   */\n      dup4\n        /* \"#utility.yul\":4956:4977   */\n      mstore\n        /* \"#utility.yul\":4997:4998   */\n      0x00\n        /* \"#utility.yul\":5030:5036   */\n      dup5\n        /* \"#utility.yul\":5024:5037   */\n      sload\n        /* \"#utility.yul\":5060:5063   */\n      dup2\n        /* \"#utility.yul\":5082:5083   */\n      0x01\n        /* \"#utility.yul\":5110:5119   */\n      dup3\n        /* \"#utility.yul\":5106:5108   */\n      dup2\n        /* \"#utility.yul\":5102:5120   */\n      shr\n        /* \"#utility.yul\":5092:5120   */\n      swap2\n      pop\n        /* \"#utility.yul\":5170:5172   */\n      dup1\n        /* \"#utility.yul\":5159:5168   */\n      dup4\n        /* \"#utility.yul\":5155:5173   */\n      and\n        /* \"#utility.yul\":5192:5210   */\n      dup1\n        /* \"#utility.yul\":5182:5243   */\n      tag_262\n      jumpi\n        /* \"#utility.yul\":5236:5240   */\n      0x7f\n        /* \"#utility.yul\":5228:5234   */\n      dup4\n        /* \"#utility.yul\":5224:5241   */\n      and\n        /* \"#utility.yul\":5214:5241   */\n      swap3\n      pop\n        /* \"#utility.yul\":5182:5243   */\n    tag_262:\n        /* \"#utility.yul\":5289:5291   */\n      dup6\n        /* \"#utility.yul\":5281:5287   */\n      dup4\n        /* \"#utility.yul\":5278:5292   */\n      lt\n        /* \"#utility.yul\":5258:5276   */\n      dup2\n        /* \"#utility.yul\":5255:5293   */\n      eq\n        /* \"#utility.yul\":5252:5417   */\n      iszero\n      tag_263\n      jumpi\n      shl(0xe0, 0x4e487b71)\n        /* \"#utility.yul\":5316:5349   */\n      dup6\n      mstore\n        /* \"#utility.yul\":5372:5376   */\n      0x22\n        /* \"#utility.yul\":5369:5370   */\n      0x04\n        /* \"#utility.yul\":5362:5377   */\n      mstore\n        /* \"#utility.yul\":5402:5406   */\n      0x24\n        /* \"#utility.yul\":5323:5326   */\n      dup6\n        /* \"#utility.yul\":5390:5407   */\n      revert\n        /* \"#utility.yul\":5252:5417   */\n    tag_263:\n        /* \"#utility.yul\":5472:5490   */\n      dup8\n      dup7\n      add\n        /* \"#utility.yul\":6391:6410   */\n      dup4\n      dup2\n      mstore\n        /* \"#utility.yul\":6443:6447   */\n      0x20\n        /* \"#utility.yul\":6434:6448   */\n      add\n        /* \"#utility.yul\":5515:5533   */\n      dup2\n        /* \"#utility.yul\":5542:5642   */\n      dup1\n      iszero\n      tag_267\n      jumpi\n        /* \"#utility.yul\":5656:5657   */\n      0x01\n        /* \"#utility.yul\":5651:5966   */\n      dup2\n      eq\n      tag_268\n      jumpi\n        /* \"#utility.yul\":5508:5966   */\n      jump(tag_266)\n        /* \"#utility.yul\":5542:5642   */\n    tag_267:\n      not(0xff)\n        /* \"#utility.yul\":5575:5599   */\n      dup7\n      and\n        /* \"#utility.yul\":5563:5600   */\n      dup3\n      mstore\n        /* \"#utility.yul\":5620:5632   */\n      dup8\n      dup3\n      add\n      swap7\n      pop\n        /* \"#utility.yul\":5542:5642   */\n      jump(tag_266)\n        /* \"#utility.yul\":5651:5966   */\n    tag_268:\n        /* \"#utility.yul\":6252:6253   */\n      0x00\n        /* \"#utility.yul\":6245:6259   */\n      dup12\n      dup2\n      mstore\n        /* \"#utility.yul\":6289:6293   */\n      0x20\n        /* \"#utility.yul\":6276:6294   */\n      swap1\n      keccak256\n        /* \"#utility.yul\":5746:5747   */\n      0x00\n        /* \"#utility.yul\":5760:5925   */\n    tag_271:\n        /* \"#utility.yul\":5774:5780   */\n      dup7\n        /* \"#utility.yul\":5771:5772   */\n      dup2\n        /* \"#utility.yul\":5768:5781   */\n      lt\n        /* \"#utility.yul\":5760:5925   */\n      iszero\n      tag_273\n      jumpi\n        /* \"#utility.yul\":5852:5866   */\n      dup2\n      sload\n        /* \"#utility.yul\":5839:5850   */\n      dup5\n      dup3\n      add\n        /* \"#utility.yul\":5832:5867   */\n      mstore\n        /* \"#utility.yul\":5895:5911   */\n      swap1\n      dup6\n      add\n      swap1\n        /* \"#utility.yul\":5789:5799   */\n      dup10\n      add\n        /* \"#utility.yul\":5760:5925   */\n      jump(tag_271)\n    tag_273:\n        /* \"#utility.yul\":5945:5956   */\n      dup4\n      add\n      swap8\n      pop\n      pop\n        /* \"#utility.yul\":5508:5966   */\n    tag_266:\n      pop\n        /* \"#utility.yul\":5983:5986   */\n      swap5\n      swap10\n        /* \"#utility.yul\":4807:5992   */\n      swap9\n      pop\n      pop\n      pop\n      pop\n      pop\n      pop\n      pop\n      pop\n      pop\n      jump\t// out\n        /* \"#utility.yul\":6459:6839   */\n    tag_43:\n        /* \"#utility.yul\":6538:6539   */\n      0x01\n        /* \"#utility.yul\":6534:6546   */\n      dup2\n      dup2\n      shr\n      swap1\n        /* \"#utility.yul\":6581:6593   */\n      dup3\n      and\n      dup1\n        /* \"#utility.yul\":6602:6663   */\n      tag_278\n      jumpi\n        /* \"#utility.yul\":6656:6660   */\n      0x7f\n        /* \"#utility.yul\":6648:6654   */\n      dup3\n        /* \"#utility.yul\":6644:6661   */\n      and\n        /* \"#utility.yul\":6634:6661   */\n      swap2\n      pop\n        /* \"#utility.yul\":6602:6663   */\n    tag_278:\n        /* \"#utility.yul\":6709:6711   */\n      0x20\n        /* \"#utility.yul\":6701:6707   */\n      dup3\n        /* \"#utility.yul\":6698:6712   */\n      lt\n        /* \"#utility.yul\":6678:6696   */\n      dup2\n        /* \"#utility.yul\":6675:6713   */\n      eq\n        /* \"#utility.yul\":6672:6833   */\n      iszero\n      tag_279\n      jumpi\n        /* \"#utility.yul\":6755:6765   */\n      0x4e487b71\n        /* \"#utility.yul\":6750:6753   */\n      0xe0\n        /* \"#utility.yul\":6746:6766   */\n      shl\n        /* \"#utility.yul\":6743:6744   */\n      0x00\n        /* \"#utility.yul\":6736:6767   */\n      mstore\n        /* \"#utility.yul\":6790:6794   */\n      0x22\n        /* \"#utility.yul\":6787:6788   */\n      0x04\n        /* \"#utility.yul\":6780:6795   */\n      mstore\n        /* \"#utility.yul\":6818:6822   */\n      0x24\n        /* \"#utility.yul\":6815:6816   */\n      0x00\n        /* \"#utility.yul\":6808:6823   */\n      revert\n        /* \"#utility.yul\":6672:6833   */\n    tag_279:\n      pop\n        /* \"#utility.yul\":6459:6839   */\n      swap2\n      swap1\n      pop\n      jump\t// out\n        /* \"#utility.yul\":6844:7076   */\n    tag_102:\n        /* \"#utility.yul\":6883:6886   */\n      0x00\n      not(0x00)\n        /* \"#utility.yul\":6904:6921   */\n      dup3\n      eq\n        /* \"#utility.yul\":6901:7041   */\n      iszero\n      tag_281\n      jumpi\n        /* \"#utility.yul\":6963:6973   */\n      0x4e487b71\n        /* \"#utility.yul\":6958:6961   */\n      0xe0\n        /* \"#utility.yul\":6954:6974   */\n      shl\n        /* \"#utility.yul\":6951:6952   */\n      0x00\n        /* \"#utility.yul\":6944:6975   */\n      mstore\n        /* \"#utility.yul\":6998:7002   */\n      0x11\n        /* \"#utility.yul\":6995:6996   */\n      0x04\n        /* \"#utility.yul\":6988:7003   */\n      mstore\n        /* \"#utility.yul\":7026:7030   */\n      0x24\n        /* \"#utility.yul\":7023:7024   */\n      0x00\n        /* \"#utility.yul\":7016:7031   */\n      revert\n        /* \"#utility.yul\":6901:7041   */\n    tag_281:\n      pop\n        /* \"#utility.yul\":7068:7069   */\n      0x01\n        /* \"#utility.yul\":7057:7070   */\n      add\n      swap1\n        /* \"#utility.yul\":6844:7076   */\n      jump\t// out\n        /* \"#utility.yul\":7081:7208   */\n    tag_64:\n        /* \"#utility.yul\":7142:7152   */\n      0x4e487b71\n        /* \"#utility.yul\":7137:7140   */\n      0xe0\n        /* \"#utility.yul\":7133:7153   */\n      shl\n        /* \"#utility.yul\":7130:7131   */\n      0x00\n        /* \"#utility.yul\":7123:7154   */\n      mstore\n        /* \"#utility.yul\":7173:7177   */\n      0x32\n        /* \"#utility.yul\":7170:7171   */\n      0x04\n        /* \"#utility.yul\":7163:7178   */\n      mstore\n        /* \"#utility.yul\":7197:7201   */\n      0x24\n        /* \"#utility.yul\":7194:7195   */\n      0x00\n        /* \"#utility.yul\":7187:7202   */\n      revert\n        /* \"#utility.yul\":7213:7340   */\n    tag_220:\n        /* \"#utility.yul\":7274:7284   */\n      0x4e487b71\n        /* \"#utility.yul\":7269:7272   */\n      0xe0\n        /* \"#utility.yul\":7265:7285   */\n      shl\n        /* \"#utility.yul\":7262:7263   */\n      0x00\n        /* \"#utility.yul\":7255:7286   */\n      mstore\n        /* \"#utility.yul\":7305:7309   */\n      0x41\n        /* \"#utility.yul\":7302:7303   */\n      0x04\n        /* \"#utility.yul\":7295:7310   */\n      mstore\n        /* \"#utility.yul\":7329:7333   */\n      0x24\n        /* \"#utility.yul\":7326:7327   */\n      0x00\n        /* \"#utility.yul\":7319:7334   */\n      revert\n\n    auxdata: 0xa2646970667358221220bdb33578d4873d83efe4a43a8b41b2651797c46c64bcd46052ac1864b141d7fc64736f6c63430008070033\n}\n",
				"bytecode": {
					"linkReferences": {},
					"object": "608060405234801561001057600080fd5b506112b2806100206000396000f3fe608060405234801561001057600080fd5b506004361061007d5760003560e01c8063b17d55371161005b578063b17d5537146100b8578063bb966f30146100db578063ecdc647e146100ee578063ee2cf4ad1461010157600080fd5b806306661abd1461008257806322a027b6146100985780633cecd719146100ae575b600080fd5b6000546040519081526020015b60405180910390f35b6100a0610123565b60405161008f929190611116565b6100b6610243565b005b6100cb6100c6366004610f9a565b610250565b60405161008f949392919061103d565b6100cb6100e9366004610fd7565b6105cc565b6100b66100fc366004610eed565b6108a7565b61011461010f366004610fd7565b610aa6565b60405161008f93929190611095565b600180548190610132906111ec565b80601f016020809104026020016040519081016040528092919081815260200182805461015e906111ec565b80156101ab5780601f10610180576101008083540402835291602001916101ab565b820191906000526020600020905b81548152906001019060200180831161018e57829003601f168201915b5050505050908060010180546101c0906111ec565b80601f01602080910402602001604051908101604052809291908181526020018280546101ec906111ec565b80156102395780601f1061020e57610100808354040283529160200191610239565b820191906000526020600020905b81548152906001019060200180831161021c57829003601f168201915b5050505050905082565b61024e600080610d1e565b565b60608060608060005b6000548110156105c3578560405160200161027491906110fc565b604051602081830303815290604052805190602001206000828154811061029d5761029d611250565b90600052602060002090600402016002016000016040516020016102c19190611144565b6040516020818303038152906040528051906020012014156105b157600081815481106102f0576102f0611250565b90600052602060002090600402016000016000828154811061031457610314611250565b90600052602060002090600402016001016000838154811061033857610338611250565b90600052602060002090600402016002016000016000848154811061035f5761035f611250565b906000526020600020906004020160020160010183805461037f906111ec565b80601f01602080910402602001604051908101604052809291908181526020018280546103ab906111ec565b80156103f85780601f106103cd576101008083540402835291602001916103f8565b820191906000526020600020905b8154815290600101906020018083116103db57829003601f168201915b5050505050935082805461040b906111ec565b80601f0160208091040260200160405190810160405280929190818152602001828054610437906111ec565b80156104845780601f1061045957610100808354040283529160200191610484565b820191906000526020600020905b81548152906001019060200180831161046757829003601f168201915b50505050509250818054610497906111ec565b80601f01602080910402602001604051908101604052809291908181526020018280546104c3906111ec565b80156105105780601f106104e557610100808354040283529160200191610510565b820191906000526020600020905b8154815290600101906020018083116104f357829003601f168201915b50505050509150808054610523906111ec565b80601f016020809104026020016040519081016040528092919081815260200182805461054f906111ec565b801561059c5780601f106105715761010080835404028352916020019161059c565b820191906000526020600020905b81548152906001019060200180831161057f57829003601f168201915b505050505090509450945094509450506105c5565b806105bb81611227565b915050610259565b505b9193509193565b606080606080600085815481106105e5576105e5611250565b90600052602060002090600402016000016000868154811061060957610609611250565b90600052602060002090600402016001016000878154811061062d5761062d611250565b90600052602060002090600402016002016000016000888154811061065457610654611250565b9060005260206000209060040201600201600101838054610674906111ec565b80601f01602080910402602001604051908101604052809291908181526020018280546106a0906111ec565b80156106ed5780601f106106c2576101008083540402835291602001916106ed565b820191906000526020600020905b8154815290600101906020018083116106d057829003601f168201915b50505050509350828054610700906111ec565b80601f016020809104026020016040519081016040528092919081815260200182805461072c906111ec565b80156107795780601f1061074e57610100808354040283529160200191610779565b820191906000526020600020905b81548152906001019060200180831161075c57829003601f168201915b5050505050925081805461078c906111ec565b80601f01602080910402602001604051908101604052809291908181526020018280546107b8906111ec565b80156108055780601f106107da57610100808354040283529160200191610805565b820191906000526020600020905b8154815290600101906020018083116107e857829003601f168201915b50505050509150808054610818906111ec565b80601f0160208091040260200160405190810160405280929190818152602001828054610844906111ec565b80156108915780601f1061086657610100808354040283529160200191610891565b820191906000526020600020905b81548152906001019060200180831161087457829003601f168201915b5050505050905093509350935093509193509193565b81516108ba906001906020850190610d42565b5080516108ce906002906020840190610d42565b50600060405180606001604052808681526020018581526020016001604051806040016040529081600082018054610905906111ec565b80601f0160208091040260200160405190810160405280929190818152602001828054610931906111ec565b801561097e5780601f106109535761010080835404028352916020019161097e565b820191906000526020600020905b81548152906001019060200180831161096157829003601f168201915b50505050508152602001600182018054610997906111ec565b80601f01602080910402602001604051908101604052809291908181526020018280546109c3906111ec565b8015610a105780601f106109e557610100808354040283529160200191610a10565b820191906000526020600020905b8154815290600101906020018083116109f357829003601f168201915b50505091909252505050905281546001810183556000928352602092839020825180519394600490930290910192610a4b9284920190610d42565b506020828101518051610a649260018501920190610d42565b506040820151805180516002840191610a8291839160200190610d42565b506020828101518051610a9b9260018501920190610d42565b505050505050505050565b60008181548110610ab657600080fd5b9060005260206000209060040201600091509050806000018054610ad9906111ec565b80601f0160208091040260200160405190810160405280929190818152602001828054610b05906111ec565b8015610b525780601f10610b2757610100808354040283529160200191610b52565b820191906000526020600020905b815481529060010190602001808311610b3557829003601f168201915b505050505090806001018054610b67906111ec565b80601f0160208091040260200160405190810160405280929190818152602001828054610b93906111ec565b8015610be05780601f10610bb557610100808354040283529160200191610be0565b820191906000526020600020905b815481529060010190602001808311610bc357829003601f168201915b50505050509080600201604051806040016040529081600082018054610c05906111ec565b80601f0160208091040260200160405190810160405280929190818152602001828054610c31906111ec565b8015610c7e5780601f10610c5357610100808354040283529160200191610c7e565b820191906000526020600020905b815481529060010190602001808311610c6157829003601f168201915b50505050508152602001600182018054610c97906111ec565b80601f0160208091040260200160405190810160405280929190818152602001828054610cc3906111ec565b8015610d105780601f10610ce557610100808354040283529160200191610d10565b820191906000526020600020905b815481529060010190602001808311610cf357829003601f168201915b505050505081525050905083565b5080546000825560040290600052602060002090810190610d3f9190610dc6565b50565b828054610d4e906111ec565b90600052602060002090601f016020900481019282610d705760008555610db6565b82601f10610d8957805160ff1916838001178555610db6565b82800160010185558215610db6579182015b82811115610db6578251825591602001919060010190610d9b565b50610dc2929150610e11565b5090565b80821115610dc2576000610dda8282610e26565b610de8600183016000610e26565b600282016000610df88282610e26565b610e06600183016000610e26565b505050600401610dc6565b5b80821115610dc25760008155600101610e12565b508054610e32906111ec565b6000825580601f10610e42575050565b601f016020900490600052602060002090810190610d3f9190610e11565b600082601f830112610e7157600080fd5b813567ffffffffffffffff80821115610e8c57610e8c611266565b604051601f8301601f19908116603f01168101908282118183101715610eb457610eb4611266565b81604052838152866020858801011115610ecd57600080fd5b836020870160208301376000602085830101528094505050505092915050565b60008060008060808587031215610f0357600080fd5b843567ffffffffffffffff80821115610f1b57600080fd5b610f2788838901610e60565b95506020870135915080821115610f3d57600080fd5b610f4988838901610e60565b94506040870135915080821115610f5f57600080fd5b610f6b88838901610e60565b93506060870135915080821115610f8157600080fd5b50610f8e87828801610e60565b91505092959194509250565b600060208284031215610fac57600080fd5b813567ffffffffffffffff811115610fc357600080fd5b610fcf84828501610e60565b949350505050565b600060208284031215610fe957600080fd5b5035919050565b6000815180845260005b8181101561101657602081850181015186830182015201610ffa565b81811115611028576000602083870101525b50601f01601f19169290920160200192915050565b6080815260006110506080830187610ff0565b82810360208401526110628187610ff0565b905082810360408401526110768186610ff0565b9050828103606084015261108a8185610ff0565b979650505050505050565b6060815260006110a86060830186610ff0565b82810360208401526110ba8186610ff0565b905082810360408401528351604082526110d76040830182610ff0565b9050602085015182820360208401526110f08282610ff0565b98975050505050505050565b60208152600061110f6020830184610ff0565b9392505050565b6040815260006111296040830185610ff0565b828103602084015261113b8185610ff0565b95945050505050565b600060208083526000845481600182811c91508083168061116657607f831692505b85831081141561118457634e487b7160e01b85526022600452602485fd5b8786018381526020018180156111a157600181146111b2576111dd565b60ff198616825287820196506111dd565b60008b81526020902060005b868110156111d7578154848201529085019089016111be565b83019750505b50949998505050505050505050565b600181811c9082168061120057607f821691505b6020821081141561122157634e487b7160e01b600052602260045260246000fd5b50919050565b600060001982141561124957634e487b7160e01b600052601160045260246000fd5b5060010190565b634e487b7160e01b600052603260045260246000fd5b634e487b7160e01b600052604160045260246000fdfea2646970667358221220bdb33578d4873d83efe4a43a8b41b2651797c46c64bcd46052ac1864b141d7fc64736f6c63430008070033",
					"opcodes": "PUSH1 0x80 PUSH1 0x40 MSTORE CALLVALUE DUP1 ISZERO PUSH2 0x10 JUMPI PUSH1 0x0 DUP1 REVERT JUMPDEST POP PUSH2 0x12B2 DUP1 PUSH2 0x20 PUSH1 0x0 CODECOPY PUSH1 0x0 RETURN INVALID PUSH1 0x80 PUSH1 0x40 MSTORE CALLVALUE DUP1 ISZERO PUSH2 0x10 JUMPI PUSH1 0x0 DUP1 REVERT JUMPDEST POP PUSH1 0x4 CALLDATASIZE LT PUSH2 0x7D JUMPI PUSH1 0x0 CALLDATALOAD PUSH1 0xE0 SHR DUP1 PUSH4 0xB17D5537 GT PUSH2 0x5B JUMPI DUP1 PUSH4 0xB17D5537 EQ PUSH2 0xB8 JUMPI DUP1 PUSH4 0xBB966F30 EQ PUSH2 0xDB JUMPI DUP1 PUSH4 0xECDC647E EQ PUSH2 0xEE JUMPI DUP1 PUSH4 0xEE2CF4AD EQ PUSH2 0x101 JUMPI PUSH1 0x0 DUP1 REVERT JUMPDEST DUP1 PUSH4 0x6661ABD EQ PUSH2 0x82 JUMPI DUP1 PUSH4 0x22A027B6 EQ PUSH2 0x98 JUMPI DUP1 PUSH4 0x3CECD719 EQ PUSH2 0xAE JUMPI JUMPDEST PUSH1 0x0 DUP1 REVERT JUMPDEST PUSH1 0x0 SLOAD PUSH1 0x40 MLOAD SWAP1 DUP2 MSTORE PUSH1 0x20 ADD JUMPDEST PUSH1 0x40 MLOAD DUP1 SWAP2 SUB SWAP1 RETURN JUMPDEST PUSH2 0xA0 PUSH2 0x123 JUMP JUMPDEST PUSH1 0x40 MLOAD PUSH2 0x8F SWAP3 SWAP2 SWAP1 PUSH2 0x1116 JUMP JUMPDEST PUSH2 0xB6 PUSH2 0x243 JUMP JUMPDEST STOP JUMPDEST PUSH2 0xCB PUSH2 0xC6 CALLDATASIZE PUSH1 0x4 PUSH2 0xF9A JUMP JUMPDEST PUSH2 0x250 JUMP JUMPDEST PUSH1 0x40 MLOAD PUSH2 0x8F SWAP5 SWAP4 SWAP3 SWAP2 SWAP1 PUSH2 0x103D JUMP JUMPDEST PUSH2 0xCB PUSH2 0xE9 CALLDATASIZE PUSH1 0x4 PUSH2 0xFD7 JUMP JUMPDEST PUSH2 0x5CC JUMP JUMPDEST PUSH2 0xB6 PUSH2 0xFC CALLDATASIZE PUSH1 0x4 PUSH2 0xEED JUMP JUMPDEST PUSH2 0x8A7 JUMP JUMPDEST PUSH2 0x114 PUSH2 0x10F CALLDATASIZE PUSH1 0x4 PUSH2 0xFD7 JUMP JUMPDEST PUSH2 0xAA6 JUMP JUMPDEST PUSH1 0x40 MLOAD PUSH2 0x8F SWAP4 SWAP3 SWAP2 SWAP1 PUSH2 0x1095 JUMP JUMPDEST PUSH1 0x1 DUP1 SLOAD DUP2 SWAP1 PUSH2 0x132 SWAP1 PUSH2 0x11EC JUMP JUMPDEST DUP1 PUSH1 0x1F ADD PUSH1 0x20 DUP1 SWAP2 DIV MUL PUSH1 0x20 ADD PUSH1 0x40 MLOAD SWAP1 DUP2 ADD PUSH1 0x40 MSTORE DUP1 SWAP3 SWAP2 SWAP1 DUP2 DUP2 MSTORE PUSH1 0x20 ADD DUP3 DUP1 SLOAD PUSH2 0x15E SWAP1 PUSH2 0x11EC JUMP JUMPDEST DUP1 ISZERO PUSH2 0x1AB JUMPI DUP1 PUSH1 0x1F LT PUSH2 0x180 JUMPI PUSH2 0x100 DUP1 DUP4 SLOAD DIV MUL DUP4 MSTORE SWAP2 PUSH1 0x20 ADD SWAP2 PUSH2 0x1AB JUMP JUMPDEST DUP3 ADD SWAP2 SWAP1 PUSH1 0x0 MSTORE PUSH1 0x20 PUSH1 0x0 KECCAK256 SWAP1 JUMPDEST DUP2 SLOAD DUP2 MSTORE SWAP1 PUSH1 0x1 ADD SWAP1 PUSH1 0x20 ADD DUP1 DUP4 GT PUSH2 0x18E JUMPI DUP3 SWAP1 SUB PUSH1 0x1F AND DUP3 ADD SWAP2 JUMPDEST POP POP POP POP POP SWAP1 DUP1 PUSH1 0x1 ADD DUP1 SLOAD PUSH2 0x1C0 SWAP1 PUSH2 0x11EC JUMP JUMPDEST DUP1 PUSH1 0x1F ADD PUSH1 0x20 DUP1 SWAP2 DIV MUL PUSH1 0x20 ADD PUSH1 0x40 MLOAD SWAP1 DUP2 ADD PUSH1 0x40 MSTORE DUP1 SWAP3 SWAP2 SWAP1 DUP2 DUP2 MSTORE PUSH1 0x20 ADD DUP3 DUP1 SLOAD PUSH2 0x1EC SWAP1 PUSH2 0x11EC JUMP JUMPDEST DUP1 ISZERO PUSH2 0x239 JUMPI DUP1 PUSH1 0x1F LT PUSH2 0x20E JUMPI PUSH2 0x100 DUP1 DUP4 SLOAD DIV MUL DUP4 MSTORE SWAP2 PUSH1 0x20 ADD SWAP2 PUSH2 0x239 JUMP JUMPDEST DUP3 ADD SWAP2 SWAP1 PUSH1 0x0 MSTORE PUSH1 0x20 PUSH1 0x0 KECCAK256 SWAP1 JUMPDEST DUP2 SLOAD DUP2 MSTORE SWAP1 PUSH1 0x1 ADD SWAP1 PUSH1 0x20 ADD DUP1 DUP4 GT PUSH2 0x21C JUMPI DUP3 SWAP1 SUB PUSH1 0x1F AND DUP3 ADD SWAP2 JUMPDEST POP POP POP POP POP SWAP1 POP DUP3 JUMP JUMPDEST PUSH2 0x24E PUSH1 0x0 DUP1 PUSH2 0xD1E JUMP JUMPDEST JUMP JUMPDEST PUSH1 0x60 DUP1 PUSH1 0x60 DUP1 PUSH1 0x0 JUMPDEST PUSH1 0x0 SLOAD DUP2 LT ISZERO PUSH2 0x5C3 JUMPI DUP6 PUSH1 0x40 MLOAD PUSH1 0x20 ADD PUSH2 0x274 SWAP2 SWAP1 PUSH2 0x10FC JUMP JUMPDEST PUSH1 0x40 MLOAD PUSH1 0x20 DUP2 DUP4 SUB SUB DUP2 MSTORE SWAP1 PUSH1 0x40 MSTORE DUP1 MLOAD SWAP1 PUSH1 0x20 ADD KECCAK256 PUSH1 0x0 DUP3 DUP2 SLOAD DUP2 LT PUSH2 0x29D JUMPI PUSH2 0x29D PUSH2 0x1250 JUMP JUMPDEST SWAP1 PUSH1 0x0 MSTORE PUSH1 0x20 PUSH1 0x0 KECCAK256 SWAP1 PUSH1 0x4 MUL ADD PUSH1 0x2 ADD PUSH1 0x0 ADD PUSH1 0x40 MLOAD PUSH1 0x20 ADD PUSH2 0x2C1 SWAP2 SWAP1 PUSH2 0x1144 JUMP JUMPDEST PUSH1 0x40 MLOAD PUSH1 0x20 DUP2 DUP4 SUB SUB DUP2 MSTORE SWAP1 PUSH1 0x40 MSTORE DUP1 MLOAD SWAP1 PUSH1 0x20 ADD KECCAK256 EQ ISZERO PUSH2 0x5B1 JUMPI PUSH1 0x0 DUP2 DUP2 SLOAD DUP2 LT PUSH2 0x2F0 JUMPI PUSH2 0x2F0 PUSH2 0x1250 JUMP JUMPDEST SWAP1 PUSH1 0x0 MSTORE PUSH1 0x20 PUSH1 0x0 KECCAK256 SWAP1 PUSH1 0x4 MUL ADD PUSH1 0x0 ADD PUSH1 0x0 DUP3 DUP2 SLOAD DUP2 LT PUSH2 0x314 JUMPI PUSH2 0x314 PUSH2 0x1250 JUMP JUMPDEST SWAP1 PUSH1 0x0 MSTORE PUSH1 0x20 PUSH1 0x0 KECCAK256 SWAP1 PUSH1 0x4 MUL ADD PUSH1 0x1 ADD PUSH1 0x0 DUP4 DUP2 SLOAD DUP2 LT PUSH2 0x338 JUMPI PUSH2 0x338 PUSH2 0x1250 JUMP JUMPDEST SWAP1 PUSH1 0x0 MSTORE PUSH1 0x20 PUSH1 0x0 KECCAK256 SWAP1 PUSH1 0x4 MUL ADD PUSH1 0x2 ADD PUSH1 0x0 ADD PUSH1 0x0 DUP5 DUP2 SLOAD DUP2 LT PUSH2 0x35F JUMPI PUSH2 0x35F PUSH2 0x1250 JUMP JUMPDEST SWAP1 PUSH1 0x0 MSTORE PUSH1 0x20 PUSH1 0x0 KECCAK256 SWAP1 PUSH1 0x4 MUL ADD PUSH1 0x2 ADD PUSH1 0x1 ADD DUP4 DUP1 SLOAD PUSH2 0x37F SWAP1 PUSH2 0x11EC JUMP JUMPDEST DUP1 PUSH1 0x1F ADD PUSH1 0x20 DUP1 SWAP2 DIV MUL PUSH1 0x20 ADD PUSH1 0x40 MLOAD SWAP1 DUP2 ADD PUSH1 0x40 MSTORE DUP1 SWAP3 SWAP2 SWAP1 DUP2 DUP2 MSTORE PUSH1 0x20 ADD DUP3 DUP1 SLOAD PUSH2 0x3AB SWAP1 PUSH2 0x11EC JUMP JUMPDEST DUP1 ISZERO PUSH2 0x3F8 JUMPI DUP1 PUSH1 0x1F LT PUSH2 0x3CD JUMPI PUSH2 0x100 DUP1 DUP4 SLOAD DIV MUL DUP4 MSTORE SWAP2 PUSH1 0x20 ADD SWAP2 PUSH2 0x3F8 JUMP JUMPDEST DUP3 ADD SWAP2 SWAP1 PUSH1 0x0 MSTORE PUSH1 0x20 PUSH1 0x0 KECCAK256 SWAP1 JUMPDEST DUP2 SLOAD DUP2 MSTORE SWAP1 PUSH1 0x1 ADD SWAP1 PUSH1 0x20 ADD DUP1 DUP4 GT PUSH2 0x3DB JUMPI DUP3 SWAP1 SUB PUSH1 0x1F AND DUP3 ADD SWAP2 JUMPDEST POP POP POP POP POP SWAP4 POP DUP3 DUP1 SLOAD PUSH2 0x40B SWAP1 PUSH2 0x11EC JUMP JUMPDEST DUP1 PUSH1 0x1F ADD PUSH1 0x20 DUP1 SWAP2 DIV MUL PUSH1 0x20 ADD PUSH1 0x40 MLOAD SWAP1 DUP2 ADD PUSH1 0x40 MSTORE DUP1 SWAP3 SWAP2 SWAP1 DUP2 DUP2 MSTORE PUSH1 0x20 ADD DUP3 DUP1 SLOAD PUSH2 0x437 SWAP1 PUSH2 0x11EC JUMP JUMPDEST DUP1 ISZERO PUSH2 0x484 JUMPI DUP1 PUSH1 0x1F LT PUSH2 0x459 JUMPI PUSH2 0x100 DUP1 DUP4 SLOAD DIV MUL DUP4 MSTORE SWAP2 PUSH1 0x20 ADD SWAP2 PUSH2 0x484 JUMP JUMPDEST DUP3 ADD SWAP2 SWAP1 PUSH1 0x0 MSTORE PUSH1 0x20 PUSH1 0x0 KECCAK256 SWAP1 JUMPDEST DUP2 SLOAD DUP2 MSTORE SWAP1 PUSH1 0x1 ADD SWAP1 PUSH1 0x20 ADD DUP1 DUP4 GT PUSH2 0x467 JUMPI DUP3 SWAP1 SUB PUSH1 0x1F AND DUP3 ADD SWAP2 JUMPDEST POP POP POP POP POP SWAP3 POP DUP2 DUP1 SLOAD PUSH2 0x497 SWAP1 PUSH2 0x11EC JUMP JUMPDEST DUP1 PUSH1 0x1F ADD PUSH1 0x20 DUP1 SWAP2 DIV MUL PUSH1 0x20 ADD PUSH1 0x40 MLOAD SWAP1 DUP2 ADD PUSH1 0x40 MSTORE DUP1 SWAP3 SWAP2 SWAP1 DUP2 DUP2 MSTORE PUSH1 0x20 ADD DUP3 DUP1 SLOAD PUSH2 0x4C3 SWAP1 PUSH2 0x11EC JUMP JUMPDEST DUP1 ISZERO PUSH2 0x510 JUMPI DUP1 PUSH1 0x1F LT PUSH2 0x4E5 JUMPI PUSH2 0x100 DUP1 DUP4 SLOAD DIV MUL DUP4 MSTORE SWAP2 PUSH1 0x20 ADD SWAP2 PUSH2 0x510 JUMP JUMPDEST DUP3 ADD SWAP2 SWAP1 PUSH1 0x0 MSTORE PUSH1 0x20 PUSH1 0x0 KECCAK256 SWAP1 JUMPDEST DUP2 SLOAD DUP2 MSTORE SWAP1 PUSH1 0x1 ADD SWAP1 PUSH1 0x20 ADD DUP1 DUP4 GT PUSH2 0x4F3 JUMPI DUP3 SWAP1 SUB PUSH1 0x1F AND DUP3 ADD SWAP2 JUMPDEST POP POP POP POP POP SWAP2 POP DUP1 DUP1 SLOAD PUSH2 0x523 SWAP1 PUSH2 0x11EC JUMP JUMPDEST DUP1 PUSH1 0x1F ADD PUSH1 0x20 DUP1 SWAP2 DIV MUL PUSH1 0x20 ADD PUSH1 0x40 MLOAD SWAP1 DUP2 ADD PUSH1 0x40 MSTORE DUP1 SWAP3 SWAP2 SWAP1 DUP2 DUP2 MSTORE PUSH1 0x20 ADD DUP3 DUP1 SLOAD PUSH2 0x54F SWAP1 PUSH2 0x11EC JUMP JUMPDEST DUP1 ISZERO PUSH2 0x59C JUMPI DUP1 PUSH1 0x1F LT PUSH2 0x571 JUMPI PUSH2 0x100 DUP1 DUP4 SLOAD DIV MUL DUP4 MSTORE SWAP2 PUSH1 0x20 ADD SWAP2 PUSH2 0x59C JUMP JUMPDEST DUP3 ADD SWAP2 SWAP1 PUSH1 0x0 MSTORE PUSH1 0x20 PUSH1 0x0 KECCAK256 SWAP1 JUMPDEST DUP2 SLOAD DUP2 MSTORE SWAP1 PUSH1 0x1 ADD SWAP1 PUSH1 0x20 ADD DUP1 DUP4 GT PUSH2 0x57F JUMPI DUP3 SWAP1 SUB PUSH1 0x1F AND DUP3 ADD SWAP2 JUMPDEST POP POP POP POP POP SWAP1 POP SWAP5 POP SWAP5 POP SWAP5 POP SWAP5 POP POP PUSH2 0x5C5 JUMP JUMPDEST DUP1 PUSH2 0x5BB DUP2 PUSH2 0x1227 JUMP JUMPDEST SWAP2 POP POP PUSH2 0x259 JUMP JUMPDEST POP JUMPDEST SWAP2 SWAP4 POP SWAP2 SWAP4 JUMP JUMPDEST PUSH1 0x60 DUP1 PUSH1 0x60 DUP1 PUSH1 0x0 DUP6 DUP2 SLOAD DUP2 LT PUSH2 0x5E5 JUMPI PUSH2 0x5E5 PUSH2 0x1250 JUMP JUMPDEST SWAP1 PUSH1 0x0 MSTORE PUSH1 0x20 PUSH1 0x0 KECCAK256 SWAP1 PUSH1 0x4 MUL ADD PUSH1 0x0 ADD PUSH1 0x0 DUP7 DUP2 SLOAD DUP2 LT PUSH2 0x609 JUMPI PUSH2 0x609 PUSH2 0x1250 JUMP JUMPDEST SWAP1 PUSH1 0x0 MSTORE PUSH1 0x20 PUSH1 0x0 KECCAK256 SWAP1 PUSH1 0x4 MUL ADD PUSH1 0x1 ADD PUSH1 0x0 DUP8 DUP2 SLOAD DUP2 LT PUSH2 0x62D JUMPI PUSH2 0x62D PUSH2 0x1250 JUMP JUMPDEST SWAP1 PUSH1 0x0 MSTORE PUSH1 0x20 PUSH1 0x0 KECCAK256 SWAP1 PUSH1 0x4 MUL ADD PUSH1 0x2 ADD PUSH1 0x0 ADD PUSH1 0x0 DUP9 DUP2 SLOAD DUP2 LT PUSH2 0x654 JUMPI PUSH2 0x654 PUSH2 0x1250 JUMP JUMPDEST SWAP1 PUSH1 0x0 MSTORE PUSH1 0x20 PUSH1 0x0 KECCAK256 SWAP1 PUSH1 0x4 MUL ADD PUSH1 0x2 ADD PUSH1 0x1 ADD DUP4 DUP1 SLOAD PUSH2 0x674 SWAP1 PUSH2 0x11EC JUMP JUMPDEST DUP1 PUSH1 0x1F ADD PUSH1 0x20 DUP1 SWAP2 DIV MUL PUSH1 0x20 ADD PUSH1 0x40 MLOAD SWAP1 DUP2 ADD PUSH1 0x40 MSTORE DUP1 SWAP3 SWAP2 SWAP1 DUP2 DUP2 MSTORE PUSH1 0x20 ADD DUP3 DUP1 SLOAD PUSH2 0x6A0 SWAP1 PUSH2 0x11EC JUMP JUMPDEST DUP1 ISZERO PUSH2 0x6ED JUMPI DUP1 PUSH1 0x1F LT PUSH2 0x6C2 JUMPI PUSH2 0x100 DUP1 DUP4 SLOAD DIV MUL DUP4 MSTORE SWAP2 PUSH1 0x20 ADD SWAP2 PUSH2 0x6ED JUMP JUMPDEST DUP3 ADD SWAP2 SWAP1 PUSH1 0x0 MSTORE PUSH1 0x20 PUSH1 0x0 KECCAK256 SWAP1 JUMPDEST DUP2 SLOAD DUP2 MSTORE SWAP1 PUSH1 0x1 ADD SWAP1 PUSH1 0x20 ADD DUP1 DUP4 GT PUSH2 0x6D0 JUMPI DUP3 SWAP1 SUB PUSH1 0x1F AND DUP3 ADD SWAP2 JUMPDEST POP POP POP POP POP SWAP4 POP DUP3 DUP1 SLOAD PUSH2 0x700 SWAP1 PUSH2 0x11EC JUMP JUMPDEST DUP1 PUSH1 0x1F ADD PUSH1 0x20 DUP1 SWAP2 DIV MUL PUSH1 0x20 ADD PUSH1 0x40 MLOAD SWAP1 DUP2 ADD PUSH1 0x40 MSTORE DUP1 SWAP3 SWAP2 SWAP1 DUP2 DUP2 MSTORE PUSH1 0x20 ADD DUP3 DUP1 SLOAD PUSH2 0x72C SWAP1 PUSH2 0x11EC JUMP JUMPDEST DUP1 ISZERO PUSH2 0x779 JUMPI DUP1 PUSH1 0x1F LT PUSH2 0x74E JUMPI PUSH2 0x100 DUP1 DUP4 SLOAD DIV MUL DUP4 MSTORE SWAP2 PUSH1 0x20 ADD SWAP2 PUSH2 0x779 JUMP JUMPDEST DUP3 ADD SWAP2 SWAP1 PUSH1 0x0 MSTORE PUSH1 0x20 PUSH1 0x0 KECCAK256 SWAP1 JUMPDEST DUP2 SLOAD DUP2 MSTORE SWAP1 PUSH1 0x1 ADD SWAP1 PUSH1 0x20 ADD DUP1 DUP4 GT PUSH2 0x75C JUMPI DUP3 SWAP1 SUB PUSH1 0x1F AND DUP3 ADD SWAP2 JUMPDEST POP POP POP POP POP SWAP3 POP DUP2 DUP1 SLOAD PUSH2 0x78C SWAP1 PUSH2 0x11EC JUMP JUMPDEST DUP1 PUSH1 0x1F ADD PUSH1 0x20 DUP1 SWAP2 DIV MUL PUSH1 0x20 ADD PUSH1 0x40 MLOAD SWAP1 DUP2 ADD PUSH1 0x40 MSTORE DUP1 SWAP3 SWAP2 SWAP1 DUP2 DUP2 MSTORE PUSH1 0x20 ADD DUP3 DUP1 SLOAD PUSH2 0x7B8 SWAP1 PUSH2 0x11EC JUMP JUMPDEST DUP1 ISZERO PUSH2 0x805 JUMPI DUP1 PUSH1 0x1F LT PUSH2 0x7DA JUMPI PUSH2 0x100 DUP1 DUP4 SLOAD DIV MUL DUP4 MSTORE SWAP2 PUSH1 0x20 ADD SWAP2 PUSH2 0x805 JUMP JUMPDEST DUP3 ADD SWAP2 SWAP1 PUSH1 0x0 MSTORE PUSH1 0x20 PUSH1 0x0 KECCAK256 SWAP1 JUMPDEST DUP2 SLOAD DUP2 MSTORE SWAP1 PUSH1 0x1 ADD SWAP1 PUSH1 0x20 ADD DUP1 DUP4 GT PUSH2 0x7E8 JUMPI DUP3 SWAP1 SUB PUSH1 0x1F AND DUP3 ADD SWAP2 JUMPDEST POP POP POP POP POP SWAP2 POP DUP1 DUP1 SLOAD PUSH2 0x818 SWAP1 PUSH2 0x11EC JUMP JUMPDEST DUP1 PUSH1 0x1F ADD PUSH1 0x20 DUP1 SWAP2 DIV MUL PUSH1 0x20 ADD PUSH1 0x40 MLOAD SWAP1 DUP2 ADD PUSH1 0x40 MSTORE DUP1 SWAP3 SWAP2 SWAP1 DUP2 DUP2 MSTORE PUSH1 0x20 ADD DUP3 DUP1 SLOAD PUSH2 0x844 SWAP1 PUSH2 0x11EC JUMP JUMPDEST DUP1 ISZERO PUSH2 0x891 JUMPI DUP1 PUSH1 0x1F LT PUSH2 0x866 JUMPI PUSH2 0x100 DUP1 DUP4 SLOAD DIV MUL DUP4 MSTORE SWAP2 PUSH1 0x20 ADD SWAP2 PUSH2 0x891 JUMP JUMPDEST DUP3 ADD SWAP2 SWAP1 PUSH1 0x0 MSTORE PUSH1 0x20 PUSH1 0x0 KECCAK256 SWAP1 JUMPDEST DUP2 SLOAD DUP2 MSTORE SWAP1 PUSH1 0x1 ADD SWAP1 PUSH1 0x20 ADD DUP1 DUP4 GT PUSH2 0x874 JUMPI DUP3 SWAP1 SUB PUSH1 0x1F AND DUP3 ADD SWAP2 JUMPDEST POP POP POP POP POP SWAP1 POP SWAP4 POP SWAP4 POP SWAP4 POP SWAP4 POP SWAP2 SWAP4 POP SWAP2 SWAP4 JUMP JUMPDEST DUP2 MLOAD PUSH2 0x8BA SWAP1 PUSH1 0x1 SWAP1 PUSH1 0x20 DUP6 ADD SWAP1 PUSH2 0xD42 JUMP JUMPDEST POP DUP1 MLOAD PUSH2 0x8CE SWAP1 PUSH1 0x2 SWAP1 PUSH1 0x20 DUP5 ADD SWAP1 PUSH2 0xD42 JUMP JUMPDEST POP PUSH1 0x0 PUSH1 0x40 MLOAD DUP1 PUSH1 0x60 ADD PUSH1 0x40 MSTORE DUP1 DUP7 DUP2 MSTORE PUSH1 0x20 ADD DUP6 DUP2 MSTORE PUSH1 0x20 ADD PUSH1 0x1 PUSH1 0x40 MLOAD DUP1 PUSH1 0x40 ADD PUSH1 0x40 MSTORE SWAP1 DUP2 PUSH1 0x0 DUP3 ADD DUP1 SLOAD PUSH2 0x905 SWAP1 PUSH2 0x11EC JUMP JUMPDEST DUP1 PUSH1 0x1F ADD PUSH1 0x20 DUP1 SWAP2 DIV MUL PUSH1 0x20 ADD PUSH1 0x40 MLOAD SWAP1 DUP2 ADD PUSH1 0x40 MSTORE DUP1 SWAP3 SWAP2 SWAP1 DUP2 DUP2 MSTORE PUSH1 0x20 ADD DUP3 DUP1 SLOAD PUSH2 0x931 SWAP1 PUSH2 0x11EC JUMP JUMPDEST DUP1 ISZERO PUSH2 0x97E JUMPI DUP1 PUSH1 0x1F LT PUSH2 0x953 JUMPI PUSH2 0x100 DUP1 DUP4 SLOAD DIV MUL DUP4 MSTORE SWAP2 PUSH1 0x20 ADD SWAP2 PUSH2 0x97E JUMP JUMPDEST DUP3 ADD SWAP2 SWAP1 PUSH1 0x0 MSTORE PUSH1 0x20 PUSH1 0x0 KECCAK256 SWAP1 JUMPDEST DUP2 SLOAD DUP2 MSTORE SWAP1 PUSH1 0x1 ADD SWAP1 PUSH1 0x20 ADD DUP1 DUP4 GT PUSH2 0x961 JUMPI DUP3 SWAP1 SUB PUSH1 0x1F AND DUP3 ADD SWAP2 JUMPDEST POP POP POP POP POP DUP2 MSTORE PUSH1 0x20 ADD PUSH1 0x1 DUP3 ADD DUP1 SLOAD PUSH2 0x997 SWAP1 PUSH2 0x11EC JUMP JUMPDEST DUP1 PUSH1 0x1F ADD PUSH1 0x20 DUP1 SWAP2 DIV MUL PUSH1 0x20 ADD PUSH1 0x40 MLOAD SWAP1 DUP2 ADD PUSH1 0x40 MSTORE DUP1 SWAP3 SWAP2 SWAP1 DUP2 DUP2 MSTORE PUSH1 0x20 ADD DUP3 DUP1 SLOAD PUSH2 0x9C3 SWAP1 PUSH2 0x11EC JUMP JUMPDEST DUP1 ISZERO PUSH2 0xA10 JUMPI DUP1 PUSH1 0x1F LT PUSH2 0x9E5 JUMPI PUSH2 0x100 DUP1 DUP4 SLOAD DIV MUL DUP4 MSTORE SWAP2 PUSH1 0x20 ADD SWAP2 PUSH2 0xA10 JUMP JUMPDEST DUP3 ADD SWAP2 SWAP1 PUSH1 0x0 MSTORE PUSH1 0x20 PUSH1 0x0 KECCAK256 SWAP1 JUMPDEST DUP2 SLOAD DUP2 MSTORE SWAP1 PUSH1 0x1 ADD SWAP1 PUSH1 0x20 ADD DUP1 DUP4 GT PUSH2 0x9F3 JUMPI DUP3 SWAP1 SUB PUSH1 0x1F AND DUP3 ADD SWAP2 JUMPDEST POP POP POP SWAP2 SWAP1 SWAP3 MSTORE POP POP POP SWAP1 MSTORE DUP2 SLOAD PUSH1 0x1 DUP2 ADD DUP4 SSTORE PUSH1 0x0 SWAP3 DUP4 MSTORE PUSH1 0x20 SWAP3 DUP4 SWAP1 KECCAK256 DUP3 MLOAD DUP1 MLOAD SWAP4 SWAP5 PUSH1 0x4 SWAP1 SWAP4 MUL SWAP1 SWAP2 ADD SWAP3 PUSH2 0xA4B SWAP3 DUP5 SWAP3 ADD SWAP1 PUSH2 0xD42 JUMP JUMPDEST POP PUSH1 0x20 DUP3 DUP2 ADD MLOAD DUP1 MLOAD PUSH2 0xA64 SWAP3 PUSH1 0x1 DUP6 ADD SWAP3 ADD SWAP1 PUSH2 0xD42 JUMP JUMPDEST POP PUSH1 0x40 DUP3 ADD MLOAD DUP1 MLOAD DUP1 MLOAD PUSH1 0x2 DUP5 ADD SWAP2 PUSH2 0xA82 SWAP2 DUP4 SWAP2 PUSH1 0x20 ADD SWAP1 PUSH2 0xD42 JUMP JUMPDEST POP PUSH1 0x20 DUP3 DUP2 ADD MLOAD DUP1 MLOAD PUSH2 0xA9B SWAP3 PUSH1 0x1 DUP6 ADD SWAP3 ADD SWAP1 PUSH2 0xD42 JUMP JUMPDEST POP POP POP POP POP POP POP POP POP JUMP JUMPDEST PUSH1 0x0 DUP2 DUP2 SLOAD DUP2 LT PUSH2 0xAB6 JUMPI PUSH1 0x0 DUP1 REVERT JUMPDEST SWAP1 PUSH1 0x0 MSTORE PUSH1 0x20 PUSH1 0x0 KECCAK256 SWAP1 PUSH1 0x4 MUL ADD PUSH1 0x0 SWAP2 POP SWAP1 POP DUP1 PUSH1 0x0 ADD DUP1 SLOAD PUSH2 0xAD9 SWAP1 PUSH2 0x11EC JUMP JUMPDEST DUP1 PUSH1 0x1F ADD PUSH1 0x20 DUP1 SWAP2 DIV MUL PUSH1 0x20 ADD PUSH1 0x40 MLOAD SWAP1 DUP2 ADD PUSH1 0x40 MSTORE DUP1 SWAP3 SWAP2 SWAP1 DUP2 DUP2 MSTORE PUSH1 0x20 ADD DUP3 DUP1 SLOAD PUSH2 0xB05 SWAP1 PUSH2 0x11EC JUMP JUMPDEST DUP1 ISZERO PUSH2 0xB52 JUMPI DUP1 PUSH1 0x1F LT PUSH2 0xB27 JUMPI PUSH2 0x100 DUP1 DUP4 SLOAD DIV MUL DUP4 MSTORE SWAP2 PUSH1 0x20 ADD SWAP2 PUSH2 0xB52 JUMP JUMPDEST DUP3 ADD SWAP2 SWAP1 PUSH1 0x0 MSTORE PUSH1 0x20 PUSH1 0x0 KECCAK256 SWAP1 JUMPDEST DUP2 SLOAD DUP2 MSTORE SWAP1 PUSH1 0x1 ADD SWAP1 PUSH1 0x20 ADD DUP1 DUP4 GT PUSH2 0xB35 JUMPI DUP3 SWAP1 SUB PUSH1 0x1F AND DUP3 ADD SWAP2 JUMPDEST POP POP POP POP POP SWAP1 DUP1 PUSH1 0x1 ADD DUP1 SLOAD PUSH2 0xB67 SWAP1 PUSH2 0x11EC JUMP JUMPDEST DUP1 PUSH1 0x1F ADD PUSH1 0x20 DUP1 SWAP2 DIV MUL PUSH1 0x20 ADD PUSH1 0x40 MLOAD SWAP1 DUP2 ADD PUSH1 0x40 MSTORE DUP1 SWAP3 SWAP2 SWAP1 DUP2 DUP2 MSTORE PUSH1 0x20 ADD DUP3 DUP1 SLOAD PUSH2 0xB93 SWAP1 PUSH2 0x11EC JUMP JUMPDEST DUP1 ISZERO PUSH2 0xBE0 JUMPI DUP1 PUSH1 0x1F LT PUSH2 0xBB5 JUMPI PUSH2 0x100 DUP1 DUP4 SLOAD DIV MUL DUP4 MSTORE SWAP2 PUSH1 0x20 ADD SWAP2 PUSH2 0xBE0 JUMP JUMPDEST DUP3 ADD SWAP2 SWAP1 PUSH1 0x0 MSTORE PUSH1 0x20 PUSH1 0x0 KECCAK256 SWAP1 JUMPDEST DUP2 SLOAD DUP2 MSTORE SWAP1 PUSH1 0x1 ADD SWAP1 PUSH1 0x20 ADD DUP1 DUP4 GT PUSH2 0xBC3 JUMPI DUP3 SWAP1 SUB PUSH1 0x1F AND DUP3 ADD SWAP2 JUMPDEST POP POP POP POP POP SWAP1 DUP1 PUSH1 0x2 ADD PUSH1 0x40 MLOAD DUP1 PUSH1 0x40 ADD PUSH1 0x40 MSTORE SWAP1 DUP2 PUSH1 0x0 DUP3 ADD DUP1 SLOAD PUSH2 0xC05 SWAP1 PUSH2 0x11EC JUMP JUMPDEST DUP1 PUSH1 0x1F ADD PUSH1 0x20 DUP1 SWAP2 DIV MUL PUSH1 0x20 ADD PUSH1 0x40 MLOAD SWAP1 DUP2 ADD PUSH1 0x40 MSTORE DUP1 SWAP3 SWAP2 SWAP1 DUP2 DUP2 MSTORE PUSH1 0x20 ADD DUP3 DUP1 SLOAD PUSH2 0xC31 SWAP1 PUSH2 0x11EC JUMP JUMPDEST DUP1 ISZERO PUSH2 0xC7E JUMPI DUP1 PUSH1 0x1F LT PUSH2 0xC53 JUMPI PUSH2 0x100 DUP1 DUP4 SLOAD DIV MUL DUP4 MSTORE SWAP2 PUSH1 0x20 ADD SWAP2 PUSH2 0xC7E JUMP JUMPDEST DUP3 ADD SWAP2 SWAP1 PUSH1 0x0 MSTORE PUSH1 0x20 PUSH1 0x0 KECCAK256 SWAP1 JUMPDEST DUP2 SLOAD DUP2 MSTORE SWAP1 PUSH1 0x1 ADD SWAP1 PUSH1 0x20 ADD DUP1 DUP4 GT PUSH2 0xC61 JUMPI DUP3 SWAP1 SUB PUSH1 0x1F AND DUP3 ADD SWAP2 JUMPDEST POP POP POP POP POP DUP2 MSTORE PUSH1 0x20 ADD PUSH1 0x1 DUP3 ADD DUP1 SLOAD PUSH2 0xC97 SWAP1 PUSH2 0x11EC JUMP JUMPDEST DUP1 PUSH1 0x1F ADD PUSH1 0x20 DUP1 SWAP2 DIV MUL PUSH1 0x20 ADD PUSH1 0x40 MLOAD SWAP1 DUP2 ADD PUSH1 0x40 MSTORE DUP1 SWAP3 SWAP2 SWAP1 DUP2 DUP2 MSTORE PUSH1 0x20 ADD DUP3 DUP1 SLOAD PUSH2 0xCC3 SWAP1 PUSH2 0x11EC JUMP JUMPDEST DUP1 ISZERO PUSH2 0xD10 JUMPI DUP1 PUSH1 0x1F LT PUSH2 0xCE5 JUMPI PUSH2 0x100 DUP1 DUP4 SLOAD DIV MUL DUP4 MSTORE SWAP2 PUSH1 0x20 ADD SWAP2 PUSH2 0xD10 JUMP JUMPDEST DUP3 ADD SWAP2 SWAP1 PUSH1 0x0 MSTORE PUSH1 0x20 PUSH1 0x0 KECCAK256 SWAP1 JUMPDEST DUP2 SLOAD DUP2 MSTORE SWAP1 PUSH1 0x1 ADD SWAP1 PUSH1 0x20 ADD DUP1 DUP4 GT PUSH2 0xCF3 JUMPI DUP3 SWAP1 SUB PUSH1 0x1F AND DUP3 ADD SWAP2 JUMPDEST POP POP POP POP POP DUP2 MSTORE POP POP SWAP1 POP DUP4 JUMP JUMPDEST POP DUP1 SLOAD PUSH1 0x0 DUP3 SSTORE PUSH1 0x4 MUL SWAP1 PUSH1 0x0 MSTORE PUSH1 0x20 PUSH1 0x0 KECCAK256 SWAP1 DUP2 ADD SWAP1 PUSH2 0xD3F SWAP2 SWAP1 PUSH2 0xDC6 JUMP JUMPDEST POP JUMP JUMPDEST DUP3 DUP1 SLOAD PUSH2 0xD4E SWAP1 PUSH2 0x11EC JUMP JUMPDEST SWAP1 PUSH1 0x0 MSTORE PUSH1 0x20 PUSH1 0x0 KECCAK256 SWAP1 PUSH1 0x1F ADD PUSH1 0x20 SWAP1 DIV DUP2 ADD SWAP3 DUP3 PUSH2 0xD70 JUMPI PUSH1 0x0 DUP6 SSTORE PUSH2 0xDB6 JUMP JUMPDEST DUP3 PUSH1 0x1F LT PUSH2 0xD89 JUMPI DUP1 MLOAD PUSH1 0xFF NOT AND DUP4 DUP1 ADD OR DUP6 SSTORE PUSH2 0xDB6 JUMP JUMPDEST DUP3 DUP1 ADD PUSH1 0x1 ADD DUP6 SSTORE DUP3 ISZERO PUSH2 0xDB6 JUMPI SWAP2 DUP3 ADD JUMPDEST DUP3 DUP2 GT ISZERO PUSH2 0xDB6 JUMPI DUP3 MLOAD DUP3 SSTORE SWAP2 PUSH1 0x20 ADD SWAP2 SWAP1 PUSH1 0x1 ADD SWAP1 PUSH2 0xD9B JUMP JUMPDEST POP PUSH2 0xDC2 SWAP3 SWAP2 POP PUSH2 0xE11 JUMP JUMPDEST POP SWAP1 JUMP JUMPDEST DUP1 DUP3 GT ISZERO PUSH2 0xDC2 JUMPI PUSH1 0x0 PUSH2 0xDDA DUP3 DUP3 PUSH2 0xE26 JUMP JUMPDEST PUSH2 0xDE8 PUSH1 0x1 DUP4 ADD PUSH1 0x0 PUSH2 0xE26 JUMP JUMPDEST PUSH1 0x2 DUP3 ADD PUSH1 0x0 PUSH2 0xDF8 DUP3 DUP3 PUSH2 0xE26 JUMP JUMPDEST PUSH2 0xE06 PUSH1 0x1 DUP4 ADD PUSH1 0x0 PUSH2 0xE26 JUMP JUMPDEST POP POP POP PUSH1 0x4 ADD PUSH2 0xDC6 JUMP JUMPDEST JUMPDEST DUP1 DUP3 GT ISZERO PUSH2 0xDC2 JUMPI PUSH1 0x0 DUP2 SSTORE PUSH1 0x1 ADD PUSH2 0xE12 JUMP JUMPDEST POP DUP1 SLOAD PUSH2 0xE32 SWAP1 PUSH2 0x11EC JUMP JUMPDEST PUSH1 0x0 DUP3 SSTORE DUP1 PUSH1 0x1F LT PUSH2 0xE42 JUMPI POP POP JUMP JUMPDEST PUSH1 0x1F ADD PUSH1 0x20 SWAP1 DIV SWAP1 PUSH1 0x0 MSTORE PUSH1 0x20 PUSH1 0x0 KECCAK256 SWAP1 DUP2 ADD SWAP1 PUSH2 0xD3F SWAP2 SWAP1 PUSH2 0xE11 JUMP JUMPDEST PUSH1 0x0 DUP3 PUSH1 0x1F DUP4 ADD SLT PUSH2 0xE71 JUMPI PUSH1 0x0 DUP1 REVERT JUMPDEST DUP2 CALLDATALOAD PUSH8 0xFFFFFFFFFFFFFFFF DUP1 DUP3 GT ISZERO PUSH2 0xE8C JUMPI PUSH2 0xE8C PUSH2 0x1266 JUMP JUMPDEST PUSH1 0x40 MLOAD PUSH1 0x1F DUP4 ADD PUSH1 0x1F NOT SWAP1 DUP2 AND PUSH1 0x3F ADD AND DUP2 ADD SWAP1 DUP3 DUP3 GT DUP2 DUP4 LT OR ISZERO PUSH2 0xEB4 JUMPI PUSH2 0xEB4 PUSH2 0x1266 JUMP JUMPDEST DUP2 PUSH1 0x40 MSTORE DUP4 DUP2 MSTORE DUP7 PUSH1 0x20 DUP6 DUP9 ADD ADD GT ISZERO PUSH2 0xECD JUMPI PUSH1 0x0 DUP1 REVERT JUMPDEST DUP4 PUSH1 0x20 DUP8 ADD PUSH1 0x20 DUP4 ADD CALLDATACOPY PUSH1 0x0 PUSH1 0x20 DUP6 DUP4 ADD ADD MSTORE DUP1 SWAP5 POP POP POP POP POP SWAP3 SWAP2 POP POP JUMP JUMPDEST PUSH1 0x0 DUP1 PUSH1 0x0 DUP1 PUSH1 0x80 DUP6 DUP8 SUB SLT ISZERO PUSH2 0xF03 JUMPI PUSH1 0x0 DUP1 REVERT JUMPDEST DUP5 CALLDATALOAD PUSH8 0xFFFFFFFFFFFFFFFF DUP1 DUP3 GT ISZERO PUSH2 0xF1B JUMPI PUSH1 0x0 DUP1 REVERT JUMPDEST PUSH2 0xF27 DUP9 DUP4 DUP10 ADD PUSH2 0xE60 JUMP JUMPDEST SWAP6 POP PUSH1 0x20 DUP8 ADD CALLDATALOAD SWAP2 POP DUP1 DUP3 GT ISZERO PUSH2 0xF3D JUMPI PUSH1 0x0 DUP1 REVERT JUMPDEST PUSH2 0xF49 DUP9 DUP4 DUP10 ADD PUSH2 0xE60 JUMP JUMPDEST SWAP5 POP PUSH1 0x40 DUP8 ADD CALLDATALOAD SWAP2 POP DUP1 DUP3 GT ISZERO PUSH2 0xF5F JUMPI PUSH1 0x0 DUP1 REVERT JUMPDEST PUSH2 0xF6B DUP9 DUP4 DUP10 ADD PUSH2 0xE60 JUMP JUMPDEST SWAP4 POP PUSH1 0x60 DUP8 ADD CALLDATALOAD SWAP2 POP DUP1 DUP3 GT ISZERO PUSH2 0xF81 JUMPI PUSH1 0x0 DUP1 REVERT JUMPDEST POP PUSH2 0xF8E DUP8 DUP3 DUP9 ADD PUSH2 0xE60 JUMP JUMPDEST SWAP2 POP POP SWAP3 SWAP6 SWAP2 SWAP5 POP SWAP3 POP JUMP JUMPDEST PUSH1 0x0 PUSH1 0x20 DUP3 DUP5 SUB SLT ISZERO PUSH2 0xFAC JUMPI PUSH1 0x0 DUP1 REVERT JUMPDEST DUP2 CALLDATALOAD PUSH8 0xFFFFFFFFFFFFFFFF DUP2 GT ISZERO PUSH2 0xFC3 JUMPI PUSH1 0x0 DUP1 REVERT JUMPDEST PUSH2 0xFCF DUP5 DUP3 DUP6 ADD PUSH2 0xE60 JUMP JUMPDEST SWAP5 SWAP4 POP POP POP POP JUMP JUMPDEST PUSH1 0x0 PUSH1 0x20 DUP3 DUP5 SUB SLT ISZERO PUSH2 0xFE9 JUMPI PUSH1 0x0 DUP1 REVERT JUMPDEST POP CALLDATALOAD SWAP2 SWAP1 POP JUMP JUMPDEST PUSH1 0x0 DUP2 MLOAD DUP1 DUP5 MSTORE PUSH1 0x0 JUMPDEST DUP2 DUP2 LT ISZERO PUSH2 0x1016 JUMPI PUSH1 0x20 DUP2 DUP6 ADD DUP2 ADD MLOAD DUP7 DUP4 ADD DUP3 ADD MSTORE ADD PUSH2 0xFFA JUMP JUMPDEST DUP2 DUP2 GT ISZERO PUSH2 0x1028 JUMPI PUSH1 0x0 PUSH1 0x20 DUP4 DUP8 ADD ADD MSTORE JUMPDEST POP PUSH1 0x1F ADD PUSH1 0x1F NOT AND SWAP3 SWAP1 SWAP3 ADD PUSH1 0x20 ADD SWAP3 SWAP2 POP POP JUMP JUMPDEST PUSH1 0x80 DUP2 MSTORE PUSH1 0x0 PUSH2 0x1050 PUSH1 0x80 DUP4 ADD DUP8 PUSH2 0xFF0 JUMP JUMPDEST DUP3 DUP2 SUB PUSH1 0x20 DUP5 ADD MSTORE PUSH2 0x1062 DUP2 DUP8 PUSH2 0xFF0 JUMP JUMPDEST SWAP1 POP DUP3 DUP2 SUB PUSH1 0x40 DUP5 ADD MSTORE PUSH2 0x1076 DUP2 DUP7 PUSH2 0xFF0 JUMP JUMPDEST SWAP1 POP DUP3 DUP2 SUB PUSH1 0x60 DUP5 ADD MSTORE PUSH2 0x108A DUP2 DUP6 PUSH2 0xFF0 JUMP JUMPDEST SWAP8 SWAP7 POP POP POP POP POP POP POP JUMP JUMPDEST PUSH1 0x60 DUP2 MSTORE PUSH1 0x0 PUSH2 0x10A8 PUSH1 0x60 DUP4 ADD DUP7 PUSH2 0xFF0 JUMP JUMPDEST DUP3 DUP2 SUB PUSH1 0x20 DUP5 ADD MSTORE PUSH2 0x10BA DUP2 DUP7 PUSH2 0xFF0 JUMP JUMPDEST SWAP1 POP DUP3 DUP2 SUB PUSH1 0x40 DUP5 ADD MSTORE DUP4 MLOAD PUSH1 0x40 DUP3 MSTORE PUSH2 0x10D7 PUSH1 0x40 DUP4 ADD DUP3 PUSH2 0xFF0 JUMP JUMPDEST SWAP1 POP PUSH1 0x20 DUP6 ADD MLOAD DUP3 DUP3 SUB PUSH1 0x20 DUP5 ADD MSTORE PUSH2 0x10F0 DUP3 DUP3 PUSH2 0xFF0 JUMP JUMPDEST SWAP9 SWAP8 POP POP POP POP POP POP POP POP JUMP JUMPDEST PUSH1 0x20 DUP2 MSTORE PUSH1 0x0 PUSH2 0x110F PUSH1 0x20 DUP4 ADD DUP5 PUSH2 0xFF0 JUMP JUMPDEST SWAP4 SWAP3 POP POP POP JUMP JUMPDEST PUSH1 0x40 DUP2 MSTORE PUSH1 0x0 PUSH2 0x1129 PUSH1 0x40 DUP4 ADD DUP6 PUSH2 0xFF0 JUMP JUMPDEST DUP3 DUP2 SUB PUSH1 0x20 DUP5 ADD MSTORE PUSH2 0x113B DUP2 DUP6 PUSH2 0xFF0 JUMP JUMPDEST SWAP6 SWAP5 POP POP POP POP POP JUMP JUMPDEST PUSH1 0x0 PUSH1 0x20 DUP1 DUP4 MSTORE PUSH1 0x0 DUP5 SLOAD DUP2 PUSH1 0x1 DUP3 DUP2 SHR SWAP2 POP DUP1 DUP4 AND DUP1 PUSH2 0x1166 JUMPI PUSH1 0x7F DUP4 AND SWAP3 POP JUMPDEST DUP6 DUP4 LT DUP2 EQ ISZERO PUSH2 0x1184 JUMPI PUSH4 0x4E487B71 PUSH1 0xE0 SHL DUP6 MSTORE PUSH1 0x22 PUSH1 0x4 MSTORE PUSH1 0x24 DUP6 REVERT JUMPDEST DUP8 DUP7 ADD DUP4 DUP2 MSTORE PUSH1 0x20 ADD DUP2 DUP1 ISZERO PUSH2 0x11A1 JUMPI PUSH1 0x1 DUP2 EQ PUSH2 0x11B2 JUMPI PUSH2 0x11DD JUMP JUMPDEST PUSH1 0xFF NOT DUP7 AND DUP3 MSTORE DUP8 DUP3 ADD SWAP7 POP PUSH2 0x11DD JUMP JUMPDEST PUSH1 0x0 DUP12 DUP2 MSTORE PUSH1 0x20 SWAP1 KECCAK256 PUSH1 0x0 JUMPDEST DUP7 DUP2 LT ISZERO PUSH2 0x11D7 JUMPI DUP2 SLOAD DUP5 DUP3 ADD MSTORE SWAP1 DUP6 ADD SWAP1 DUP10 ADD PUSH2 0x11BE JUMP JUMPDEST DUP4 ADD SWAP8 POP POP JUMPDEST POP SWAP5 SWAP10 SWAP9 POP POP POP POP POP POP POP POP POP JUMP JUMPDEST PUSH1 0x1 DUP2 DUP2 SHR SWAP1 DUP3 AND DUP1 PUSH2 0x1200 JUMPI PUSH1 0x7F DUP3 AND SWAP2 POP JUMPDEST PUSH1 0x20 DUP3 LT DUP2 EQ ISZERO PUSH2 0x1221 JUMPI PUSH4 0x4E487B71 PUSH1 0xE0 SHL PUSH1 0x0 MSTORE PUSH1 0x22 PUSH1 0x4 MSTORE PUSH1 0x24 PUSH1 0x0 REVERT JUMPDEST POP SWAP2 SWAP1 POP JUMP JUMPDEST PUSH1 0x0 PUSH1 0x0 NOT DUP3 EQ ISZERO PUSH2 0x1249 JUMPI PUSH4 0x4E487B71 PUSH1 0xE0 SHL PUSH1 0x0 MSTORE PUSH1 0x11 PUSH1 0x4 MSTORE PUSH1 0x24 PUSH1 0x0 REVERT JUMPDEST POP PUSH1 0x1 ADD SWAP1 JUMP JUMPDEST PUSH4 0x4E487B71 PUSH1 0xE0 SHL PUSH1 0x0 MSTORE PUSH1 0x32 PUSH1 0x4 MSTORE PUSH1 0x24 PUSH1 0x0 REVERT JUMPDEST PUSH4 0x4E487B71 PUSH1 0xE0 SHL PUSH1 0x0 MSTORE PUSH1 0x41 PUSH1 0x4 MSTORE PUSH1 0x24 PUSH1 0x0 REVERT INVALID LOG2 PUSH5 0x6970667358 0x22 SLT KECCAK256 0xBD 0xB3 CALLDATALOAD PUSH25 0xD4873D83EFE4A43A8B41B2651797C46C64BCD46052AC1864B1 COINBASE 0xD7 0xFC PUSH5 0x736F6C6343 STOP ADDMOD SMOD STOP CALLER "
				},
				"gasEstimates": {
					"creation": {
						"codeDepositCost": "957200",
						"executionCost": "994",
						"totalCost": "958194"
					},
					"external": {
						"cleanup()": "infinite",
						"commiditys(uint256)": "infinite",
						"controlists()": "infinite",
						"count()": "2270",
						"getdata(string)": "infinite",
						"getrandomdata(uint256)": "infinite",
						"set(bytes,bytes,string,bytes)": "infinite"
					}
				},
				"methodIdentifiers": {
					"cleanup()": "3cecd719",
					"commiditys(uint256)": "ee2cf4ad",
					"controlists()": "22a027b6",
					"count()": "06661abd",
					"getdata(string)": "b17d5537",
					"getrandomdata(uint256)": "bb966f30",
					"set(bytes,bytes,string,bytes)": "ecdc647e"
				}
			},
			"storageLayout": {
				"storage": [
					{
						"astId": 18,
						"contract": "contracts/Working.sol:Working",
						"label": "commiditys",
						"offset": 0,
						"slot": "0",
						"type": "t_array(t_struct(Commidity)14_storage)dyn_storage"
					},
					{
						"astId": 21,
						"contract": "contracts/Working.sol:Working",
						"label": "controlists",
						"offset": 0,
						"slot": "1",
						"type": "t_struct(Controlist)6_storage"
					}
				],
				"types": {
					"t_array(t_struct(Commidity)14_storage)dyn_storage": {
						"base": "t_struct(Commidity)14_storage",
						"encoding": "dynamic_array",
						"label": "struct Working.Commidity[]",
						"numberOfBytes": "32"
					},
					"t_bytes_storage": {
						"encoding": "bytes",
						"label": "bytes",
						"numberOfBytes": "32"
					},
					"t_string_storage": {
						"encoding": "bytes",
						"label": "string",
						"numberOfBytes": "32"
					},
					"t_struct(Commidity)14_storage": {
						"encoding": "inplace",
						"label": "struct Working.Commidity",
						"members": [
							{
								"astId": 8,
								"contract": "contracts/Working.sol:Working",
								"label": "commidity_name",
								"offset": 0,
								"slot": "0",
								"type": "t_bytes_storage"
							},
							{
								"astId": 10,
								"contract": "contracts/Working.sol:Working",
								"label": "commidity_priceandnumber",
								"offset": 0,
								"slot": "1",
								"type": "t_bytes_storage"
							},
							{
								"astId": 13,
								"contract": "contracts/Working.sol:Working",
								"label": "controlist",
								"offset": 0,
								"slot": "2",
								"type": "t_struct(Controlist)6_storage"
							}
						],
						"numberOfBytes": "128"
					},
					"t_struct(Controlist)6_storage": {
						"encoding": "inplace",
						"label": "struct Working.Controlist",
						"members": [
							{
								"astId": 3,
								"contract": "contracts/Working.sol:Working",
								"label": "userid",
								"offset": 0,
								"slot": "0",
								"type": "t_string_storage"
							},
							{
								"astId": 5,
								"contract": "contracts/Working.sol:Working",
								"label": "keys",
								"offset": 0,
								"slot": "1",
								"type": "t_bytes_storage"
							}
						],
						"numberOfBytes": "64"
					}
				}
			},
			"userdoc": {
				"kind": "user",
				"methods": {},
				"version": 1
			}
		}
	}
}