{
  "contractName": "Confuse",
  "abi": [
    {
      "inputs": [],
      "stateMutability": "nonpayable",
      "type": "constructor"
    },
    {
      "inputs": [
        {
          "internalType": "uint256",
          "name": "",
          "type": "uint256"
        }
      ],
      "name": "confuse",
      "outputs": [
        {
          "internalType": "uint256",
          "name": "",
          "type": "uint256"
        }
      ],
      "stateMutability": "view",
      "type": "function",
      "constant": true
    },
    {
      "inputs": [
        {
          "internalType": "uint256",
          "name": "i",
          "type": "uint256"
        },
        {
          "internalType": "uint256",
          "name": "value",
          "type": "uint256"
        }
      ],
      "name": "update",
      "outputs": [
        {
          "internalType": "uint256",
          "name": "",
          "type": "uint256"
        },
        {
          "internalType": "uint256",
          "name": "",
          "type": "uint256"
        },
        {
          "internalType": "uint256",
          "name": "",
          "type": "uint256"
        },
        {
          "internalType": "uint256",
          "name": "",
          "type": "uint256"
        },
        {
          "internalType": "uint256",
          "name": "",
          "type": "uint256"
        }
      ],
      "stateMutability": "nonpayable",
      "type": "function"
    },
    {
      "inputs": [
        {
          "internalType": "uint256",
          "name": "i",
          "type": "uint256"
        }
      ],
      "name": "get",
      "outputs": [
        {
          "internalType": "uint256",
          "name": "",
          "type": "uint256"
        }
      ],
      "stateMutability": "view",
      "type": "function",
      "constant": true
    }
  ],
  "bytecode": "0x608060405234801561001057600080fd5b5060005b60328110156100455780600082603281106100315761003161004b565b01558061003d81610061565b915050610014565b50610088565b634e487b7160e01b600052603260045260246000fd5b60006001820161008157634e487b7160e01b600052601160045260246000fd5b5060010190565b61041d806100976000396000f3fe608060405234801561001057600080fd5b50600436106100415760003560e01c80632fb565e81461004657806336ae39cf146100865780639507d39a146100a7575b600080fd5b610059610054366004610374565b6100ba565b604080519586526020860194909452928401919091526060830152608082015260a0015b60405180910390f35b610099610094366004610396565b610341565b60405190815260200161007d565b6100996100b5366004610396565b610358565b600080600080600085600088603281106100d6576100d66103af565b0155604080514260208201524491810191909152606081018890526000906032906080016040516020818303038152906040528051906020012060001c61011d91906103c5565b9050600060328260405160200161013691815260200190565b6040516020818303038152906040528051906020012060001c61015991906103c5565b9050600060328260405160200161017291815260200190565b6040516020818303038152906040528051906020012060001c61019591906103c5565b905060006032826040516020016101ae91815260200190565b6040516020818303038152906040528051906020012060001c6101d191906103c5565b604080514260208201524491810191909152606081018d90529091506032906080016040516020818303038152906040528051906020012060001c61021691906103c5565b60008560328110610229576102296103af565b0155604080514260208201524491810191909152606081018c90526032906080016040516020818303038152906040528051906020012060001c61026d91906103c5565b60008460328110610280576102806103af565b0155604080514260208201524491810191909152606081018c90526032906080016040516020818303038152906040528051906020012060001c6102c491906103c5565b600083603281106102d7576102d76103af565b0155604080514260208201524491810191909152606081018c90526032906080016040516020818303038152906040528051906020012060001c61031b91906103c5565b6000826032811061032e5761032e6103af565b0155999a92999198509650945092505050565b6000816032811061035157600080fd5b0154905081565b600080826032811061036c5761036c6103af565b015492915050565b6000806040838503121561038757600080fd5b50508035926020909101359150565b6000602082840312156103a857600080fd5b5035919050565b634e487b7160e01b600052603260045260246000fd5b6000826103e257634e487b7160e01b600052601260045260246000fd5b50069056fea2646970667358221220b4df8ed52cd5002d55ccd37efde37cb2d2e39eda714fd5b639021ccf86c9872364736f6c63430008110033",
  "immutableReferences": {},
  "source": "pragma solidity >0.4.0 <0.9.0;\r\n\r\n//,[50]\r\n//4\r\ncontract Confuse {\r\n    uint256[50] public confuse;\r\n\r\n    constructor() public {\r\n        for (uint256 i = 0; i < 50; i++) {\r\n            confuse[i] = i;\r\n        }\r\n    }\r\n\r\n    function update(uint256 i, uint256 value)\r\n        public\r\n        returns (\r\n            uint256,\r\n            uint256,\r\n            uint256,\r\n            uint256,\r\n            uint256\r\n        )\r\n    {\r\n        confuse[i] = value;\r\n        //\r\n        uint256 index1 = uint256(\r\n            keccak256(abi.encodePacked(block.timestamp, block.difficulty, i))\r\n        ) % 50;\r\n        uint256 index2 = uint256(keccak256(abi.encodePacked(index1))) % 50;\r\n        uint256 index3 = uint256(keccak256(abi.encodePacked(index2))) % 50;\r\n        uint256 index4 = uint256(keccak256(abi.encodePacked(index3))) % 50;\r\n        confuse[index1] =\r\n            uint256(\r\n                keccak256(\r\n                    abi.encodePacked(block.timestamp, block.difficulty, i)\r\n                )\r\n            ) %\r\n            50;\r\n        confuse[index2] =\r\n            uint256(\r\n                keccak256(\r\n                    abi.encodePacked(block.timestamp, block.difficulty, i)\r\n                )\r\n            ) %\r\n            50;\r\n        confuse[index3] =\r\n            uint256(\r\n                keccak256(\r\n                    abi.encodePacked(block.timestamp, block.difficulty, i)\r\n                )\r\n            ) %\r\n            50;\r\n        confuse[index4] =\r\n            uint256(\r\n                keccak256(\r\n                    abi.encodePacked(block.timestamp, block.difficulty, i)\r\n                )\r\n            ) %\r\n            50;\r\n        return (i, index1, index2, index3, index4);\r\n    }\r\n\r\n    function get(uint256 i) public view returns (uint256) {\r\n        return confuse[i];\r\n    }\r\n}\r\n",
  "sourcePath": "e:\\\\mywork\\contracts\\Confuse.sol",
  "compiler": {
    "name": "solc",
    "version": "0.8.17+commit.8df45f5f.Emscripten.clang"
  },
  "schemaVersion": "3.4.11",
  "updatedAt": "2023-03-02T08:59:51.125Z",
  "networkType": "ethereum",
  "devdoc": {
    "kind": "dev",
    "methods": {},
    "version": 1
  },
  "userdoc": {
    "kind": "user",
    "methods": {},
    "version": 1
  }
}