{
  "contractName": "Working",
  "abi": [
    {
      "inputs": [
        {
          "internalType": "uint256",
          "name": "",
          "type": "uint256"
        }
      ],
      "name": "commiditys",
      "outputs": [
        {
          "internalType": "bytes",
          "name": "commidity_name",
          "type": "bytes"
        },
        {
          "internalType": "bytes",
          "name": "commidity_priceandnumber",
          "type": "bytes"
        },
        {
          "components": [
            {
              "internalType": "string",
              "name": "userid",
              "type": "string"
            },
            {
              "internalType": "bytes",
              "name": "keys",
              "type": "bytes"
            }
          ],
          "internalType": "struct Working.Controlist",
          "name": "controlist",
          "type": "tuple"
        },
        {
          "internalType": "uint256",
          "name": "time",
          "type": "uint256"
        }
      ],
      "stateMutability": "view",
      "type": "function",
      "constant": true
    },
    {
      "inputs": [],
      "name": "controlists",
      "outputs": [
        {
          "internalType": "string",
          "name": "userid",
          "type": "string"
        },
        {
          "internalType": "bytes",
          "name": "keys",
          "type": "bytes"
        }
      ],
      "stateMutability": "view",
      "type": "function",
      "constant": true
    },
    {
      "inputs": [
        {
          "internalType": "bytes",
          "name": "name",
          "type": "bytes"
        },
        {
          "internalType": "bytes",
          "name": "priceandnumber",
          "type": "bytes"
        },
        {
          "internalType": "string",
          "name": "id",
          "type": "string"
        },
        {
          "internalType": "bytes",
          "name": "kys",
          "type": "bytes"
        }
      ],
      "name": "set",
      "outputs": [],
      "stateMutability": "nonpayable",
      "type": "function"
    },
    {
      "inputs": [
        {
          "internalType": "string",
          "name": "id",
          "type": "string"
        }
      ],
      "name": "getdata",
      "outputs": [
        {
          "internalType": "bytes",
          "name": "",
          "type": "bytes"
        },
        {
          "internalType": "bytes",
          "name": "",
          "type": "bytes"
        },
        {
          "internalType": "string",
          "name": "",
          "type": "string"
        },
        {
          "internalType": "bytes",
          "name": "",
          "type": "bytes"
        }
      ],
      "stateMutability": "view",
      "type": "function",
      "constant": true
    },
    {
      "inputs": [
        {
          "internalType": "uint256",
          "name": "i",
          "type": "uint256"
        }
      ],
      "name": "getrandomdata",
      "outputs": [
        {
          "internalType": "bytes",
          "name": "",
          "type": "bytes"
        },
        {
          "internalType": "bytes",
          "name": "",
          "type": "bytes"
        },
        {
          "internalType": "string",
          "name": "",
          "type": "string"
        },
        {
          "internalType": "bytes",
          "name": "",
          "type": "bytes"
        }
      ],
      "stateMutability": "view",
      "type": "function",
      "constant": true
    },
    {
      "inputs": [],
      "name": "count",
      "outputs": [
        {
          "internalType": "uint256",
          "name": "",
          "type": "uint256"
        }
      ],
      "stateMutability": "view",
      "type": "function",
      "constant": true
    },
    {
      "inputs": [],
      "name": "cleanup",
      "outputs": [],
      "stateMutability": "nonpayable",
      "type": "function"
    },
    {
      "inputs": [],
      "name": "getall",
      "outputs": [
        {
          "components": [
            {
              "internalType": "bytes",
              "name": "commidity_name",
              "type": "bytes"
            },
            {
              "internalType": "bytes",
              "name": "commidity_priceandnumber",
              "type": "bytes"
            },
            {
              "components": [
                {
                  "internalType": "string",
                  "name": "userid",
                  "type": "string"
                },
                {
                  "internalType": "bytes",
                  "name": "keys",
                  "type": "bytes"
                }
              ],
              "internalType": "struct Working.Controlist",
              "name": "controlist",
              "type": "tuple"
            },
            {
              "internalType": "uint256",
              "name": "time",
              "type": "uint256"
            }
          ],
          "internalType": "struct Working.Commidity[]",
          "name": "",
          "type": "tuple[]"
        }
      ],
      "stateMutability": "view",
      "type": "function",
      "constant": true
    }
  ],
  "bytecode": "0x608060405234801561001057600080fd5b506116af806100206000396000f3fe608060405234801561001057600080fd5b50600436106100885760003560e01c8063b17d55371161005b578063b17d5537146100d8578063bb966f30146100fb578063ecdc647e1461010e578063ee2cf4ad1461012157600080fd5b806306661abd1461008d57806322a027b6146100a35780633cecd719146100b957806390974795146100c3575b600080fd5b6000546040519081526020015b60405180910390f35b6100ab610144565b60405161009a9291906110fd565b6100c1610264565b005b6100cb610271565b60405161009a9190611159565b6100eb6100e63660046112a8565b610536565b60405161009a94939291906112e5565b6100eb61010936600461133d565b6108b1565b6100c161011c366004611356565b610b8c565b61013461012f36600461133d565b610d76565b60405161009a9493929190611403565b6001805481906101539061144e565b80601f016020809104026020016040519081016040528092919081815260200182805461017f9061144e565b80156101cc5780601f106101a1576101008083540402835291602001916101cc565b820191906000526020600020905b8154815290600101906020018083116101af57829003601f168201915b5050505050908060010180546101e19061144e565b80601f016020809104026020016040519081016040528092919081815260200182805461020d9061144e565b801561025a5780601f1061022f5761010080835404028352916020019161025a565b820191906000526020600020905b81548152906001019060200180831161023d57829003601f168201915b5050505050905082565b61026f600080610ff3565b565b60606000805480602002602001604051908101604052809291908181526020016000905b8282101561052d57838290600052602060002090600502016040518060800160405290816000820180546102c89061144e565b80601f01602080910402602001604051908101604052809291908181526020018280546102f49061144e565b80156103415780601f1061031657610100808354040283529160200191610341565b820191906000526020600020905b81548152906001019060200180831161032457829003601f168201915b5050505050815260200160018201805461035a9061144e565b80601f01602080910402602001604051908101604052809291908181526020018280546103869061144e565b80156103d35780601f106103a8576101008083540402835291602001916103d3565b820191906000526020600020905b8154815290600101906020018083116103b657829003601f168201915b50505050508152602001600282016040518060400160405290816000820180546103fc9061144e565b80601f01602080910402602001604051908101604052809291908181526020018280546104289061144e565b80156104755780601f1061044a57610100808354040283529160200191610475565b820191906000526020600020905b81548152906001019060200180831161045857829003601f168201915b5050505050815260200160018201805461048e9061144e565b80601f01602080910402602001604051908101604052809291908181526020018280546104ba9061144e565b80156105075780601f106104dc57610100808354040283529160200191610507565b820191906000526020600020905b8154815290600101906020018083116104ea57829003601f168201915b505050505081525050815260200160048201548152505081526020019060010190610295565b50505050905090565b60608060608060005b6000548110156108a8578560405160200161055a9190611488565b6040516020818303038152906040528051906020012060008281548110610583576105836114a2565b90600052602060002090600502016002016000016040516020016105a791906114b8565b604051602081830303815290604052805190602001200361089657600081815481106105d5576105d56114a2565b9060005260206000209060050201600001600082815481106105f9576105f96114a2565b90600052602060002090600502016001016000838154811061061d5761061d6114a2565b906000526020600020906005020160020160000160008481548110610644576106446114a2565b90600052602060002090600502016002016001018380546106649061144e565b80601f01602080910402602001604051908101604052809291908181526020018280546106909061144e565b80156106dd5780601f106106b2576101008083540402835291602001916106dd565b820191906000526020600020905b8154815290600101906020018083116106c057829003601f168201915b505050505093508280546106f09061144e565b80601f016020809104026020016040519081016040528092919081815260200182805461071c9061144e565b80156107695780601f1061073e57610100808354040283529160200191610769565b820191906000526020600020905b81548152906001019060200180831161074c57829003601f168201915b5050505050925081805461077c9061144e565b80601f01602080910402602001604051908101604052809291908181526020018280546107a89061144e565b80156107f55780601f106107ca576101008083540402835291602001916107f5565b820191906000526020600020905b8154815290600101906020018083116107d857829003601f168201915b505050505091508080546108089061144e565b80601f01602080910402602001604051908101604052809291908181526020018280546108349061144e565b80156108815780601f1061085657610100808354040283529160200191610881565b820191906000526020600020905b81548152906001019060200180831161086457829003601f168201915b505050505090509450945094509450506108aa565b806108a081611543565b91505061053f565b505b9193509193565b606080606080600085815481106108ca576108ca6114a2565b9060005260206000209060050201600001600086815481106108ee576108ee6114a2565b906000526020600020906005020160010160008781548110610912576109126114a2565b906000526020600020906005020160020160000160008881548110610939576109396114a2565b90600052602060002090600502016002016001018380546109599061144e565b80601f01602080910402602001604051908101604052809291908181526020018280546109859061144e565b80156109d25780601f106109a7576101008083540402835291602001916109d2565b820191906000526020600020905b8154815290600101906020018083116109b557829003601f168201915b505050505093508280546109e59061144e565b80601f0160208091040260200160405190810160405280929190818152602001828054610a119061144e565b8015610a5e5780601f10610a3357610100808354040283529160200191610a5e565b820191906000526020600020905b815481529060010190602001808311610a4157829003601f168201915b50505050509250818054610a719061144e565b80601f0160208091040260200160405190810160405280929190818152602001828054610a9d9061144e565b8015610aea5780601f10610abf57610100808354040283529160200191610aea565b820191906000526020600020905b815481529060010190602001808311610acd57829003601f168201915b50505050509150808054610afd9061144e565b80601f0160208091040260200160405190810160405280929190818152602001828054610b299061144e565b8015610b765780601f10610b4b57610100808354040283529160200191610b76565b820191906000526020600020905b815481529060010190602001808311610b5957829003601f168201915b5050505050905093509350935093509193509193565b6001610b9883826115b9565b506002610ba582826115b9565b50600060405180608001604052808681526020018581526020016001604051806040016040529081600082018054610bdc9061144e565b80601f0160208091040260200160405190810160405280929190818152602001828054610c089061144e565b8015610c555780601f10610c2a57610100808354040283529160200191610c55565b820191906000526020600020905b815481529060010190602001808311610c3857829003601f168201915b50505050508152602001600182018054610c6e9061144e565b80601f0160208091040260200160405190810160405280929190818152602001828054610c9a9061144e565b8015610ce75780601f10610cbc57610100808354040283529160200191610ce7565b820191906000526020600020905b815481529060010190602001808311610cca57829003601f168201915b505050919092525050508152426020918201528254600181018455600093845292208151919260050201908190610d1e90826115b9565b5060208201516001820190610d3390826115b9565b506040820151805160028301908190610d4c90826115b9565b5060208201516001820190610d6190826115b9565b50505060608201518160040155505050505050565b60008181548110610d8657600080fd5b9060005260206000209060050201600091509050806000018054610da99061144e565b80601f0160208091040260200160405190810160405280929190818152602001828054610dd59061144e565b8015610e225780601f10610df757610100808354040283529160200191610e22565b820191906000526020600020905b815481529060010190602001808311610e0557829003601f168201915b505050505090806001018054610e379061144e565b80601f0160208091040260200160405190810160405280929190818152602001828054610e639061144e565b8015610eb05780601f10610e8557610100808354040283529160200191610eb0565b820191906000526020600020905b815481529060010190602001808311610e9357829003601f168201915b50505050509080600201604051806040016040529081600082018054610ed59061144e565b80601f0160208091040260200160405190810160405280929190818152602001828054610f019061144e565b8015610f4e5780601f10610f2357610100808354040283529160200191610f4e565b820191906000526020600020905b815481529060010190602001808311610f3157829003601f168201915b50505050508152602001600182018054610f679061144e565b80601f0160208091040260200160405190810160405280929190818152602001828054610f939061144e565b8015610fe05780601f10610fb557610100808354040283529160200191610fe0565b820191906000526020600020905b815481529060010190602001808311610fc357829003601f168201915b5050509190925250505060049091015484565b50805460008255600502906000526020600020908101906110149190611017565b50565b8082111561106957600061102b828261106d565b61103960018301600061106d565b600282016000611049828261106d565b61105760018301600061106d565b50506000600483015550600501611017565b5090565b5080546110799061144e565b6000825580601f10611089575050565b601f01602090049060005260206000209081019061101491905b8082111561106957600081556001016110a3565b6000815180845260005b818110156110dd576020818501810151868301820152016110c1565b506000602082860101526020601f19601f83011685010191505092915050565b60408152600061111060408301856110b7565b828103602084015261112281856110b7565b95945050505050565b600081516040845261114060408501826110b7565b90506020830151848203602086015261112282826110b7565b60006020808301818452808551808352604092508286019150828160051b87010184880160005b838110156111f757603f198984030185528151608081518186526111a6828701826110b7565b915050888201518582038a8701526111be82826110b7565b91505087820151858203898701526111d6828261112b565b60609384015196909301959095525094870194925090860190600101611180565b509098975050505050505050565b634e487b7160e01b600052604160045260246000fd5b600082601f83011261122c57600080fd5b813567ffffffffffffffff8082111561124757611247611205565b604051601f8301601f19908116603f0116810190828211818310171561126f5761126f611205565b8160405283815286602085880101111561128857600080fd5b836020870160208301376000602085830101528094505050505092915050565b6000602082840312156112ba57600080fd5b813567ffffffffffffffff8111156112d157600080fd5b6112dd8482850161121b565b949350505050565b6080815260006112f860808301876110b7565b828103602084015261130a81876110b7565b9050828103604084015261131e81866110b7565b9050828103606084015261133281856110b7565b979650505050505050565b60006020828403121561134f57600080fd5b5035919050565b6000806000806080858703121561136c57600080fd5b843567ffffffffffffffff8082111561138457600080fd5b6113908883890161121b565b955060208701359150808211156113a657600080fd5b6113b28883890161121b565b945060408701359150808211156113c857600080fd5b6113d48883890161121b565b935060608701359150808211156113ea57600080fd5b506113f78782880161121b565b91505092959194509250565b60808152600061141660808301876110b7565b828103602084015261142881876110b7565b9050828103604084015261143c818661112b565b91505082606083015295945050505050565b600181811c9082168061146257607f821691505b60208210810361148257634e487b7160e01b600052602260045260246000fd5b50919050565b60208152600061149b60208301846110b7565b9392505050565b634e487b7160e01b600052603260045260246000fd5b60006020808352600084546114cc8161144e565b808487015260406001808416600081146114ed576001811461150757611535565b60ff1985168984015283151560051b890183019550611535565b896000528660002060005b8581101561152d5781548b8201860152908301908801611512565b8a0184019650505b509398975050505050505050565b60006001820161156357634e487b7160e01b600052601160045260246000fd5b5060010190565b601f8211156115b457600081815260208120601f850160051c810160208610156115915750805b601f850160051c820191505b818110156115b05782815560010161159d565b5050505b505050565b815167ffffffffffffffff8111156115d3576115d3611205565b6115e7816115e1845461144e565b8461156a565b602080601f83116001811461161c57600084156116045750858301515b600019600386901b1c1916600185901b1785556115b0565b600085815260208120601f198616915b8281101561164b5788860151825594840194600190910190840161162c565b50858210156116695787850151600019600388901b60f8161c191681555b5050505050600190811b0190555056fea2646970667358221220203eb7a7c89d53c1c8a0b1c36467b1625899b437877b799a3b5567d586153c4f64736f6c63430008110033",
  "immutableReferences": {},
  "source": "pragma solidity >0.4.0 <0.9.0;\r\n\r\n//\r\ncontract Working {\r\n    struct Controlist {\r\n        string userid; //id\r\n        bytes keys; //\r\n    }\r\n    struct Commidity {\r\n        bytes commidity_name; //(string)\r\n        bytes commidity_priceandnumber; //(BFVvector)\r\n        Controlist controlist; //\r\n        uint256 time; //\r\n    }\r\n    Commidity[] public commiditys; //\r\n    Controlist public controlists; //\r\n\r\n    function set(\r\n        bytes memory name,\r\n        bytes memory priceandnumber,\r\n        string memory id,\r\n        bytes memory kys\r\n    ) public {\r\n        controlists.userid = id;\r\n        controlists.keys = kys;\r\n        commiditys.push(\r\n            Commidity(name, priceandnumber, controlists, block.timestamp) //\r\n        );\r\n    }\r\n\r\n    function getdata(\r\n        string memory id //id\r\n    )\r\n        public\r\n        view\r\n        returns (\r\n            bytes memory,\r\n            bytes memory,\r\n            string memory,\r\n            bytes memory\r\n        )\r\n    {\r\n        for (uint256 i = 0; i < commiditys.length; i++) {\r\n            if (\r\n                keccak256(abi.encode(commiditys[i].controlist.userid)) ==\r\n                keccak256(abi.encode(id))\r\n            )\r\n                return (\r\n                    commiditys[i].commidity_name,\r\n                    commiditys[i].commidity_priceandnumber,\r\n                    commiditys[i].controlist.userid,\r\n                    commiditys[i].controlist.keys\r\n                );\r\n        }\r\n    }\r\n\r\n    function getrandomdata(\r\n        uint256 i //\r\n    )\r\n        public\r\n        view\r\n        returns (\r\n            bytes memory,\r\n            bytes memory,\r\n            string memory,\r\n            bytes memory\r\n        )\r\n    {\r\n        return (\r\n            commiditys[i].commidity_name,\r\n            commiditys[i].commidity_priceandnumber,\r\n            commiditys[i].controlist.userid,\r\n            commiditys[i].controlist.keys\r\n        );\r\n    }\r\n\r\n    function count() public view returns (uint256) {\r\n        //\r\n        return commiditys.length;\r\n    }\r\n\r\n    function cleanup() public {\r\n        //\r\n        delete commiditys;\r\n    }\r\n\r\n    function getall() public view returns (Commidity[] memory) {\r\n        //{{id}}\r\n        return commiditys;\r\n    }\r\n}\r\n",
  "sourcePath": "e:\\\\mywork\\contracts\\Working.sol",
  "compiler": {
    "name": "solc",
    "version": "0.8.17+commit.8df45f5f.Emscripten.clang"
  },
  "schemaVersion": "3.4.11",
  "updatedAt": "2023-03-02T08:59:50.612Z",
  "networkType": "ethereum",
  "devdoc": {
    "kind": "dev",
    "methods": {},
    "version": 1
  },
  "userdoc": {
    "kind": "user",
    "methods": {},
    "version": 1
  }
}