{
  "contractName": "Working",
  "abi": [
    {
      "inputs": [
        {
          "internalType": "uint256",
          "name": "",
          "type": "uint256"
        }
      ],
      "name": "commiditys",
      "outputs": [
        {
          "internalType": "bytes",
          "name": "commidity_name",
          "type": "bytes"
        },
        {
          "internalType": "bytes",
          "name": "commidity_priceandnumber",
          "type": "bytes"
        },
        {
          "components": [
            {
              "internalType": "string",
              "name": "userid",
              "type": "string"
            },
            {
              "internalType": "bytes",
              "name": "keys",
              "type": "bytes"
            }
          ],
          "internalType": "struct Working.Controlist",
          "name": "controlist",
          "type": "tuple"
        }
      ],
      "stateMutability": "view",
      "type": "function",
      "constant": true
    },
    {
      "inputs": [],
      "name": "controlists",
      "outputs": [
        {
          "internalType": "string",
          "name": "userid",
          "type": "string"
        },
        {
          "internalType": "bytes",
          "name": "keys",
          "type": "bytes"
        }
      ],
      "stateMutability": "view",
      "type": "function",
      "constant": true
    },
    {
      "inputs": [
        {
          "internalType": "bytes",
          "name": "name",
          "type": "bytes"
        },
        {
          "internalType": "bytes",
          "name": "priceandnumber",
          "type": "bytes"
        },
        {
          "internalType": "string",
          "name": "id",
          "type": "string"
        },
        {
          "internalType": "bytes",
          "name": "kys",
          "type": "bytes"
        }
      ],
      "name": "set",
      "outputs": [],
      "stateMutability": "nonpayable",
      "type": "function"
    },
    {
      "inputs": [
        {
          "internalType": "string",
          "name": "id",
          "type": "string"
        }
      ],
      "name": "getdata",
      "outputs": [
        {
          "internalType": "bytes",
          "name": "",
          "type": "bytes"
        },
        {
          "internalType": "bytes",
          "name": "",
          "type": "bytes"
        },
        {
          "internalType": "string",
          "name": "",
          "type": "string"
        },
        {
          "internalType": "bytes",
          "name": "",
          "type": "bytes"
        }
      ],
      "stateMutability": "view",
      "type": "function",
      "constant": true
    },
    {
      "inputs": [
        {
          "internalType": "uint256",
          "name": "i",
          "type": "uint256"
        }
      ],
      "name": "getrandomdata",
      "outputs": [
        {
          "internalType": "bytes",
          "name": "",
          "type": "bytes"
        },
        {
          "internalType": "bytes",
          "name": "",
          "type": "bytes"
        },
        {
          "internalType": "string",
          "name": "",
          "type": "string"
        },
        {
          "internalType": "bytes",
          "name": "",
          "type": "bytes"
        }
      ],
      "stateMutability": "view",
      "type": "function",
      "constant": true
    },
    {
      "inputs": [],
      "name": "count",
      "outputs": [
        {
          "internalType": "uint256",
          "name": "",
          "type": "uint256"
        }
      ],
      "stateMutability": "view",
      "type": "function",
      "constant": true
    },
    {
      "inputs": [],
      "name": "cleanup",
      "outputs": [],
      "stateMutability": "nonpayable",
      "type": "function"
    },
    {
      "inputs": [
        {
          "internalType": "uint256",
          "name": "blockNumber",
          "type": "uint256"
        }
      ],
      "name": "getBlockTime",
      "outputs": [
        {
          "internalType": "uint256",
          "name": "timestamp",
          "type": "uint256"
        }
      ],
      "stateMutability": "view",
      "type": "function",
      "constant": true
    }
  ],
  "bytecode": "0x608060405234801561001057600080fd5b50611310806100206000396000f3fe608060405234801561001057600080fd5b50600436106100885760003560e01c8063b17d55371161005b578063b17d5537146100d7578063bb966f30146100fa578063ecdc647e1461010d578063ee2cf4ad1461012057600080fd5b806306661abd1461008d5780630a9f3f05146100a457806322a027b6146100b75780633cecd719146100cd575b600080fd5b6000545b6040519081526020015b60405180910390f35b6100916100b2366004610dd6565b504290565b6100bf610142565b60405161009b929190610e35565b6100d5610262565b005b6100ea6100e5366004610f06565b61026f565b60405161009b9493929190610f43565b6100ea610108366004610dd6565b6105ea565b6100d561011b366004610f9b565b6108c5565b61013361012e366004610dd6565b610aa1565b60405161009b93929190611048565b600180548190610151906110af565b80601f016020809104026020016040519081016040528092919081815260200182805461017d906110af565b80156101ca5780601f1061019f576101008083540402835291602001916101ca565b820191906000526020600020905b8154815290600101906020018083116101ad57829003601f168201915b5050505050908060010180546101df906110af565b80601f016020809104026020016040519081016040528092919081815260200182805461020b906110af565b80156102585780601f1061022d57610100808354040283529160200191610258565b820191906000526020600020905b81548152906001019060200180831161023b57829003601f168201915b5050505050905082565b61026d600080610d19565b565b60608060608060005b6000548110156105e1578560405160200161029391906110e9565b60405160208183030381529060405280519060200120600082815481106102bc576102bc611103565b90600052602060002090600402016002016000016040516020016102e09190611119565b60405160208183030381529060405280519060200120036105cf576000818154811061030e5761030e611103565b90600052602060002090600402016000016000828154811061033257610332611103565b90600052602060002090600402016001016000838154811061035657610356611103565b90600052602060002090600402016002016000016000848154811061037d5761037d611103565b906000526020600020906004020160020160010183805461039d906110af565b80601f01602080910402602001604051908101604052809291908181526020018280546103c9906110af565b80156104165780601f106103eb57610100808354040283529160200191610416565b820191906000526020600020905b8154815290600101906020018083116103f957829003601f168201915b50505050509350828054610429906110af565b80601f0160208091040260200160405190810160405280929190818152602001828054610455906110af565b80156104a25780601f10610477576101008083540402835291602001916104a2565b820191906000526020600020905b81548152906001019060200180831161048557829003601f168201915b505050505092508180546104b5906110af565b80601f01602080910402602001604051908101604052809291908181526020018280546104e1906110af565b801561052e5780601f106105035761010080835404028352916020019161052e565b820191906000526020600020905b81548152906001019060200180831161051157829003601f168201915b50505050509150808054610541906110af565b80601f016020809104026020016040519081016040528092919081815260200182805461056d906110af565b80156105ba5780601f1061058f576101008083540402835291602001916105ba565b820191906000526020600020905b81548152906001019060200180831161059d57829003601f168201915b505050505090509450945094509450506105e3565b806105d9816111a4565b915050610278565b505b9193509193565b6060806060806000858154811061060357610603611103565b90600052602060002090600402016000016000868154811061062757610627611103565b90600052602060002090600402016001016000878154811061064b5761064b611103565b90600052602060002090600402016002016000016000888154811061067257610672611103565b9060005260206000209060040201600201600101838054610692906110af565b80601f01602080910402602001604051908101604052809291908181526020018280546106be906110af565b801561070b5780601f106106e05761010080835404028352916020019161070b565b820191906000526020600020905b8154815290600101906020018083116106ee57829003601f168201915b5050505050935082805461071e906110af565b80601f016020809104026020016040519081016040528092919081815260200182805461074a906110af565b80156107975780601f1061076c57610100808354040283529160200191610797565b820191906000526020600020905b81548152906001019060200180831161077a57829003601f168201915b505050505092508180546107aa906110af565b80601f01602080910402602001604051908101604052809291908181526020018280546107d6906110af565b80156108235780601f106107f857610100808354040283529160200191610823565b820191906000526020600020905b81548152906001019060200180831161080657829003601f168201915b50505050509150808054610836906110af565b80601f0160208091040260200160405190810160405280929190818152602001828054610862906110af565b80156108af5780601f10610884576101008083540402835291602001916108af565b820191906000526020600020905b81548152906001019060200180831161089257829003601f168201915b5050505050905093509350935093509193509193565b60016108d1838261121a565b5060026108de828261121a565b50600060405180606001604052808681526020018581526020016001604051806040016040529081600082018054610915906110af565b80601f0160208091040260200160405190810160405280929190818152602001828054610941906110af565b801561098e5780601f106109635761010080835404028352916020019161098e565b820191906000526020600020905b81548152906001019060200180831161097157829003601f168201915b505050505081526020016001820180546109a7906110af565b80601f01602080910402602001604051908101604052809291908181526020018280546109d3906110af565b8015610a205780601f106109f557610100808354040283529160200191610a20565b820191906000526020600020905b815481529060010190602001808311610a0357829003601f168201915b5050509190925250505090528154600181018355600092835260209092208151919260040201908190610a53908261121a565b5060208201516001820190610a68908261121a565b506040820151805160028301908190610a81908261121a565b5060208201516001820190610a96908261121a565b505050505050505050565b60008181548110610ab157600080fd5b9060005260206000209060040201600091509050806000018054610ad4906110af565b80601f0160208091040260200160405190810160405280929190818152602001828054610b00906110af565b8015610b4d5780601f10610b2257610100808354040283529160200191610b4d565b820191906000526020600020905b815481529060010190602001808311610b3057829003601f168201915b505050505090806001018054610b62906110af565b80601f0160208091040260200160405190810160405280929190818152602001828054610b8e906110af565b8015610bdb5780601f10610bb057610100808354040283529160200191610bdb565b820191906000526020600020905b815481529060010190602001808311610bbe57829003601f168201915b50505050509080600201604051806040016040529081600082018054610c00906110af565b80601f0160208091040260200160405190810160405280929190818152602001828054610c2c906110af565b8015610c795780601f10610c4e57610100808354040283529160200191610c79565b820191906000526020600020905b815481529060010190602001808311610c5c57829003601f168201915b50505050508152602001600182018054610c92906110af565b80601f0160208091040260200160405190810160405280929190818152602001828054610cbe906110af565b8015610d0b5780601f10610ce057610100808354040283529160200191610d0b565b820191906000526020600020905b815481529060010190602001808311610cee57829003601f168201915b505050505081525050905083565b5080546000825560040290600052602060002090810190610d3a9190610d3d565b50565b80821115610d88576000610d518282610d8c565b610d5f600183016000610d8c565b600282016000610d6f8282610d8c565b610d7d600183016000610d8c565b505050600401610d3d565b5090565b508054610d98906110af565b6000825580601f10610da8575050565b601f016020900490600052602060002090810190610d3a91905b80821115610d885760008155600101610dc2565b600060208284031215610de857600080fd5b5035919050565b6000815180845260005b81811015610e1557602081850181015186830182015201610df9565b506000602082860101526020601f19601f83011685010191505092915050565b604081526000610e486040830185610def565b8281036020840152610e5a8185610def565b95945050505050565b634e487b7160e01b600052604160045260246000fd5b600082601f830112610e8a57600080fd5b813567ffffffffffffffff80821115610ea557610ea5610e63565b604051601f8301601f19908116603f01168101908282118183101715610ecd57610ecd610e63565b81604052838152866020858801011115610ee657600080fd5b836020870160208301376000602085830101528094505050505092915050565b600060208284031215610f1857600080fd5b813567ffffffffffffffff811115610f2f57600080fd5b610f3b84828501610e79565b949350505050565b608081526000610f566080830187610def565b8281036020840152610f688187610def565b90508281036040840152610f7c8186610def565b90508281036060840152610f908185610def565b979650505050505050565b60008060008060808587031215610fb157600080fd5b843567ffffffffffffffff80821115610fc957600080fd5b610fd588838901610e79565b95506020870135915080821115610feb57600080fd5b610ff788838901610e79565b9450604087013591508082111561100d57600080fd5b61101988838901610e79565b9350606087013591508082111561102f57600080fd5b5061103c87828801610e79565b91505092959194509250565b60608152600061105b6060830186610def565b828103602084015261106d8186610def565b9050828103604084015283516040825261108a6040830182610def565b9050602085015182820360208401526110a38282610def565b98975050505050505050565b600181811c908216806110c357607f821691505b6020821081036110e357634e487b7160e01b600052602260045260246000fd5b50919050565b6020815260006110fc6020830184610def565b9392505050565b634e487b7160e01b600052603260045260246000fd5b600060208083526000845461112d816110af565b8084870152604060018084166000811461114e576001811461116857611196565b60ff1985168984015283151560051b890183019550611196565b896000528660002060005b8581101561118e5781548b8201860152908301908801611173565b8a0184019650505b509398975050505050505050565b6000600182016111c457634e487b7160e01b600052601160045260246000fd5b5060010190565b601f82111561121557600081815260208120601f850160051c810160208610156111f25750805b601f850160051c820191505b81811015611211578281556001016111fe565b5050505b505050565b815167ffffffffffffffff81111561123457611234610e63565b6112488161124284546110af565b846111cb565b602080601f83116001811461127d57600084156112655750858301515b600019600386901b1c1916600185901b178555611211565b600085815260208120601f198616915b828110156112ac5788860151825594840194600190910190840161128d565b50858210156112ca5787850151600019600388901b60f8161c191681555b5050505050600190811b0190555056fea26469706673582212208a61f16014a52d262fdff90735163522028c01499c1d307e3f42882d8cb3ddb764736f6c63430008110033",
  "immutableReferences": {},
  "source": "pragma solidity >0.4.0 <0.9.0;\r\n\r\n//\r\ncontract Working {\r\n    struct Controlist {\r\n        string userid; //id\r\n        bytes keys; //\r\n    }\r\n    struct Commidity {\r\n        bytes commidity_name; //(string)\r\n        bytes commidity_priceandnumber; //(BFVvector)\r\n        Controlist controlist; //\r\n    }\r\n    Commidity[] public commiditys; //\r\n    Controlist public controlists; //\r\n\r\n    function set(\r\n        bytes memory name,\r\n        bytes memory priceandnumber,\r\n        string memory id,\r\n        bytes memory kys\r\n    ) public {\r\n        controlists.userid = id;\r\n        controlists.keys = kys;\r\n        commiditys.push(Commidity(name, priceandnumber, controlists));\r\n    }\r\n\r\n    function getdata(string memory id)\r\n        public\r\n        view\r\n        returns (\r\n            bytes memory,\r\n            bytes memory,\r\n            string memory,\r\n            bytes memory\r\n        )\r\n    {\r\n        for (uint256 i = 0; i < commiditys.length; i++) {\r\n            if (\r\n                keccak256(abi.encode(commiditys[i].controlist.userid)) ==\r\n                keccak256(abi.encode(id))\r\n            )\r\n                return (\r\n                    commiditys[i].commidity_name,\r\n                    commiditys[i].commidity_priceandnumber,\r\n                    commiditys[i].controlist.userid,\r\n                    commiditys[i].controlist.keys\r\n                );\r\n        }\r\n    }\r\n\r\n    function getrandomdata(uint256 i)\r\n        public\r\n        view\r\n        returns (\r\n            bytes memory,\r\n            bytes memory,\r\n            string memory,\r\n            bytes memory\r\n        )\r\n    {\r\n        return (\r\n            commiditys[i].commidity_name,\r\n            commiditys[i].commidity_priceandnumber,\r\n            commiditys[i].controlist.userid,\r\n            commiditys[i].controlist.keys\r\n        );\r\n    }\r\n\r\n    function count() public view returns (uint256) {\r\n        return commiditys.length;\r\n    }\r\n\r\n    function cleanup() public {\r\n        delete commiditys;\r\n    }\r\n\r\n    //\r\n    function getBlockTime(uint256 blockNumber)\r\n        public\r\n        view\r\n        returns (uint256 timestamp)\r\n    {\r\n        timestamp = block.timestamp;\r\n    }\r\n}\r\n",
  "sourcePath": "e:\\\\mywork\\contracts\\Working.sol",
  "compiler": {
    "name": "solc",
    "version": "0.8.17+commit.8df45f5f.Emscripten.clang"
  },
  "schemaVersion": "3.4.11",
  "updatedAt": "2023-02-28T07:26:23.858Z",
  "networkType": "ethereum",
  "devdoc": {
    "kind": "dev",
    "methods": {},
    "version": 1
  },
  "userdoc": {
    "kind": "user",
    "methods": {},
    "version": 1
  }
}